:020000041104E5
:10B00000F8390020C148FF1F0000000000000000C8
:10B010000000000000000000000000000000000030
:10B020000000000000000000000000000000000020
:10B030000000000000000000000000000000000010
:10B040000000000000000000000000000000000000
:10B0500000000000000000000000000000000000F0
:10B0600000000000000000000000000000000000E0
:10B0700000000000000000000000000000000000D0
:10B0800000000000000000000000000000000000C0
:10B0900000000000000000000000000000000000B0
:10B0A00000000000000000000000000000000000A0
:10B0B0000000000000000000000000000000000090
:10B0C000002080F314880A4885460A490A4A00206D
:10B0D000521A002A04D008600431043A002AFAD136
:10B0E000064880470648804706488047FEE700003C
:10B0F000F8390020F83100209C720020B9060611B2
:10B10000491F0611711F061170B50C4C2368002BE6
:10B1100013D003F02BFB050009F08EFF60612000C7
:10B1200000F05CF90100200000F014FA002801D0C2
:10B1300009F09AFE280003F01DFB70BD9049FF1F27
:10B14000034B10B59B6B002B00D0984710BDC04639
:10B150009049FF1F70B50A4D2B78012B0FD0094C79
:10B160003C220021200009F077FF074809F0BCFCD1
:10B17000200000F01BF9054BA36301232B7070BD69
:10B18000604600209049FF1FA849FF1F0949FF1F83
:10B1900000000000000000000000000000000000AF
:10B1A000000000000000000000000000000000009F
:10B1B000000000000000000000000000000000008F
:10B1C00000000000000000000000000070470000C8
:10B1D0001A2210B511000123054803F01AFA09F0EC
:10B1E0008BFA044B0321186802F070F810BDC046BA
:10B1F00014F000405C49002010B5040001200AF062
:10B200001BF8114B11491A6848680023904201D27B
:10B210004B68D31A0E4A13600AF0E6F80D4B0E4A3B
:10B220001860031919000831914203D909331B0230
:10B230001B0AE41A094B00191860A423084A5B038F
:10B2400011680B43136010BDB012FF1F281002409D
:10B25000B412FF1F60490020FFFFFF002CF00040E8
:10B2600024F00040F8B5424B04001B68DB6ADB07A2
:10B2700032D5404B404A1B6840489B049B0C93428C
:10B2800041D93F495918C72941D83E498B4200D975
:10B2900003683D4A3D4F15683D4E94463968B542B6
:10B2A0004ED83C4A9E18C4225200964200D90B0048
:10B2B0000360634601351D600368072041432E4A41
:10B2C000C918C9083960D908934247D92C4A9B1834
:10B2D0006343DB088B423ED80622002311002E4830
:10B2E00003F097F92000FFF787FF002009F024FE04
:10B2F00001232A4A11680B431360294B294A1A601B
:10B30000FFF766FFF8BD1C4AD11AC729C1D9264AE2
:10B310001F035E029D01914208D88022E9191201A3
:10B320008918891BDB00CB1A1B0BAEE780221901A1
:10B33000C91912018918891B1B02CB1A5B1BF3E781
:10B340000D0A6E189E4204D34D1B9D4201D8036026
:10B35000B2E70B00FBE75B1A013CBBE7064AD21AD7
:10B360006243D2088A42B7D9521A0134FAE7C0467A
:10B37000386F002064F00040420F0000D412FF1F1D
:10B38000BEF0FFFF06100000C812FF1FAC12FF1F27
:10B39000E703000082F1FFFF1CF00040A8F000402E
:10B3A000A412FF1FB6412103AF020000002110B517
:10B3B0000400080001F078FF054B1860022300200C
:10B3C00023603033E360034B2361034B187010BDDF
:10B3D0005C4900201027000054490020F7B5019077
:10B3E000EFF3108372B64E4A4E4E10783360002849
:10B3F0004FD14D4F3A68002A03D083F3108830BFF5
:10B40000FEBD4A4D2B68DB6ADB0715D509F0ECFF62
:10B41000474B1B6883420BD8C01A2B688C331B68C0
:10B42000834209D9336883F3108830BF0020E7E7EF
:10B43000C01A404BC018F0E709F0D6FF2B683D4C0E
:10B44000DB6A201ADB0727D53B4A3C4913685C18A6
:10B45000C42149008C4201D9394B1B68040C80B2CD
:10B460005C43136043436402DB09E4180AF024F8E8
:10B47000FA239B005843002802D0844200D90400DC
:10B4800009F042FD2F4A304B12691860D2070ED5E1
:10B49000336883F31088C9E784004200C301A4180D
:10B4A0001C1BC3001818A408400A2418DEE7274A0A
:10B4B0001278002A02D12A6852691A601B68009328
:10B4C000019B586909F048FD214B1B78002BA9D03E
:10B4D0003B68002BA6D1009AA24200D92200FA2391
:10B4E0009B005843904200D910002A68D3699169A3
:10B4F0005918814296D8C31A5069984200D9180049
:10B500004209430A9B18820B9B18C20A9B1A420CE1
:10B510009B1AC00C181AFFF7A5FE032070E7C0465F
:10B5200054490020584900205812FF1F386F00204E
:10B53000A812FF1FFFFFFF00D412FF1F82F1FFFFC1
:10B54000AC12FF1F00100240D010FF1F1D12FF1F82
:10B55000082C0020F7B5081E00D1AFE0002311220F
:10B560001521654803F055F8644A654B12689A4204
:10B5700007D0002009F000FD0221624A13688B43C6
:10B58000136004F02FFE09F00BF95F4B1B6883F387
:10B5900010885E4B1878C0B20AF0E6F810215C4DB6
:10B5A0002B68DC6A0C4000D189E05A4B07225248D4
:10B5B00003F02FF8012306224F48110003F029F869
:10B5C0000023554C0120A3600233A360534B23603A
:10B5D00009F032FE0323A36009F006FF040009F01E
:10B5E0004BFA019009F000FF4D4B18600AF034F956
:10B5F0004C4B1B68A3426AD2E31A2A68D16AC90776
:10B6000069D549491C0C09689BB24C4359436402F3
:10B61000C90964180320FC329368444A44491268FB
:10B620000E689B1A434A444D12689B183B4A9A186D
:10B63000034092089B192A600B60042B03D9013246
:10B6400003402A600B602B683C49E618300009F083
:10B6500093FD3B4F39493B68C3183B603000009372
:10B660000AF0DAF8374E3368C81834493060884237
:10B6700005D9009B01333B600AF0CEF8316009F038
:10B680007BFA09F0F9F9304B019A1B68A21A1218DB
:10B690009A422DD2019A9B181B1B181A09F084FE9E
:10B6A000022009F049FC002009F066FCFA21286814
:10B6B0008900201809F060FD09F05EFBFEBD032340
:10B6C000082209210C4802F0A4FF230073E71F4A57
:10B6D000E31A9B1891E7DC0198000234241A580001
:10B6E000241AD8008033C318A4085B0AE41891E731
:10B6F000FA208000D2E7C0461CF00040A412FF1FD1
:10B70000B64121031000004058490020E212FF1FFB
:10B71000386F0020FB03000014100240C409000031
:10B72000A812FF1F60490020D412FF1FB812FF1F8C
:10B73000C012FF1FB412FF1FBC12FF1F71020000D6
:10B740004010FF1FC412FF1FD010FF1FFFFFFF009C
:10B750002948016A81F30888416A81F30988FFE773
:10B760002548011C1030F0C8A046A946B246BB4689
:10B77000F0C9026882F30888426882F30988826807
:10B780009646C26882F30388026982F31088426990
:10B7900082F31388826982F31188C26982F3148864
:10B7A000012070471448F0C044464D4656465F4657
:10B7B000F0C0EFF308810160EFF309814160714649
:10B7C0008160EFF30381C160EFF310810161EFF35A
:10B7D00013814161EFF311818161EFF31481C16144
:10B7E0000548011C1030F0C8A046A946B246BB4629
:10B7F000F0C9002070470000446F002000000000E6
:10B800000000000000000000000000000000000038
:10B810000000000000000000000000000000000028
:10B820000000000000000000000000000000000018
:10B830000000000000000000000000000000000008
:10CC50000000000000000000002330B5934200DB1C
:10CC600030BD9C000D192D6801330551F6E7000019
:10CC70000421044B044A013B002B02D010680842F7
:10CC8000F9D0704781969800900008110022032186
:10CC9000054B1A60054B1A6032321A60044A116063
:10CCA00007221A607047C046880008118C000811DE
:10CCB0009000081110B5FFF7DBFF0022034B1A604C
:10CCC000034B06321A70FFF7D3FF10BD880008111E
:10CCD0000000081110B5FFF7CBFF0022034B1A60CC
:10CCE000034B04321A70FFF7C3FF10BD8800081110
:10CCF0000000081170B50124FFF7BAFF044B054D81
:10CD00001C6005232B70FFF7B3FF2878204070BD0F
:10CD1000880008110000081110B5044C013C002CDB
:10CD200003D0FFF7E7FF0028F8D110BD81969800E7
:10CD3000F0B5070093B01400402A00DD74E0002A2B
:10CD400048D0002318009A0002AD01335051102B37
:10CD5000F9D1002318259C4224DC032323405A1ECA
:10CD60009341A510ED18EFF3108672B6FFF7D4FFCC
:10CD7000FFF7A0FFFF2338041B0418403B0CDBB275
:10CD80001843FF231B021F400223002238430002E6
:10CD900018432649264B0A601860042C10DC029ABE
:10CDA0001A6011E0CA5CDE002E40B240981080008C
:10CDB00002AE865901333243019602AE8251CAE770
:10CDC000402C10D0954208DCFFF7A6FFFFF782FF4A
:10CDD00086F31088200013B0F0BD910002A8095816
:10CDE00001321960EEE7029A1A60039A1A60049AF7
:10CDF0001A60059A1A60069A1A60079A1A60089AC9
:10CE00001A60099A1A600A9A1A600B9A1A600C9AA8
:10CE10001A600D9A1A600E9A1A600F9A1A60109A88
:10CE200001921A60119ABBE70024D3E78800081129
:10CE30000000081170B50500EFF3108472B6FFF71B
:10CE400017FF04220B4B28041A60FF231B04184011
:10CE50002B0CDBB21843FF231B021D400323284386
:10CE60000002054D18432860FFF702FF286884F38D
:10CE7000108870BD880008110000081170B5050009
:10CE8000EFF3108472B6104B18421CD0FFF744FF2A
:10CE9000FFF710FF00220D4B28041A60FF231B042C
:10CEA00018402B0CDBB21843FF231B021D4020232C
:10CEB000284300021843064B1860FFF72DFFFFF7C9
:10CEC00009FF84F3108870BD00E0FF00880008119E
:10CED0000000081110B50024A0421BD188230E4C7D
:10CEE0005B0523600D4B012263608023A3608023D8
:10CEF0005B01E360802303205B002361E161013B70
:10CF0000A1182376CB7F62618343CB77044B1A70E1
:10CF1000FFF7BCFE200010BD2849002000000811CA
:10CF20004C490020002805D00023C3611800024AA4
:10CF3000137070470148FCE74C49002084001981B8
:10CF4000F7B51700002832D0002A30D0002B2ED0A1
:10CF500005688D422BD844688C4228D34A1ED218CB
:10CF6000954224D8944222D30130C27FD40720D4E2
:10CF7000124C2478002C1ED009020D0A02218A438B
:10CF8000C27703229C0813405A1E9341E4188C4038
:10CF90002E0063190193019BB34201D12000FEBD15
:10CFA0003000FFF747FF7B1B98510436F3E7044836
:10CFB000F5E70448F3E70448F1E7C0464C49002090
:10CFC000840019818100198180001981F0B585B034
:10CFD0001E0001901700031E67D0002A65D0002EA6
:10CFE00063D00068884260D85A688A425DD34B1E7D
:10CFF0009B19984259D89A4257D3019B5D1C012333
:10D00000EA7F1A4253D12C480078002851D00320DF
:10D01000824313433F220C02114003914021EB77DE
:10D02000039B240ACB1A029335009E4205D8320096
:10D0300039002000FFF77CFE2EE039002000029A24
:10D04000FFF776FE029BE418FB180293039B270070
:10D050009B191E00403E0393402E02D832000299D5
:10D06000E7E7029B3800191BC9194022403EFFF731
:10D070005FFE40373F2EF4D8039E2000803E3F23C2
:10D080003400B2099C43511C029B4030890192013B
:10D0900020185918B21ACDD10121019B0133DA7F32
:10D0A0008A43DA77280005B0F0BD044DFAE7044D55
:10D0B000F8E7044DF6E7C0464C490020840019818A
:10D0C0008100198180001981F8B5036805008B4241
:10D0D0001FD843688B421CD3461CF37F01271C00DA
:10D0E0003C4018D10E4A1278002A16D003229343EE
:10D0F0003B430902F377080AFFF7C0FEF37FBB4307
:10D10000F377EB69181E03D0200021009847200018
:10D11000F8BD0448FCE70448FAE70448F8E7C046CD
:10D120004C490020840019818100198180001981F7
:10D13000031E04D0034B1A78131E00D003001800FE
:10D140007047C0464C49002010B501F0C1FA00F00C
:10D15000E7F801F0D7FA10BD10B501F0B9FA0020D8
:10D1600007F0C2FD01F0CEFA10BD00000E4B10B565
:10D170001B69DB0702D5002008F016FB01200B4BD2
:10D180001B69034201D008F00FFB094B1B69DB0749
:10D1900002D5022008F008FB064B1B69DB0702D50D
:10D1A000032008F001FB10BD0010004014100040E7
:10D1B000281000403C100040194A1A4B5168196071
:10D1C00012685A60184A51689960D169D960116A29
:10D1D0001961526A5A61154A11689961C021890022
:10D1E0005158D961C121890051581962C221890061
:10D1F00051585962C321890051589962C42189004C
:10D200005158D962C521890051581963C621890036
:10D2100051585963C721890052589A637047C046D4
:10D2200010E000E0DC48002000ED00E000E100E05C
:10D23000194B1A4A19680120516000219160596800
:10D24000404211609968164A5160D968D1611969E4
:10D250001162596951629969124A1160C0214900ED
:10D260005050D86949185050186A04315050586AC3
:10D2700004315050986A04315050D86A04315050EB
:10D28000186B04315050586B04315050996BC723C0
:10D290009B00D1507047C046DC48002010E000E001
:10D2A00000ED00E000E100E00023984205D1044BCE
:10D2B000044AD96004491870116018007047C046CC
:10D2C00018490020F808FF1F514FFF1F10B505290E
:10D2D00005D8080001F00AFC0E1C1C10051C0D48A6
:10D2E00010BD06220C480023110001F092F9022023
:10D2F00008F0EAF90020F3E7FFF75EFFFEF752FAC5
:10D30000002802D1013008F0DFF9FFF791FFF1E7C3
:10D310000248E5E7840014811CF00040830014817A
:10D3200001220023054970B50C684D6812196B4144
:10D330000A604B6001F050F970BDC046886F002054
:10D34000024A034B9B1A034A536070479C720020A9
:10D3500000280120002C002070477047704770475C
:10D36000704710B500F005F810BD10B5FDF7E8FEE8
:10D3700010BD7047F0B51E0085B00A9B04007343D2
:10D38000170003930520002E1FD0002B1FD0230071
:10D390000025226101224033A1602460646065633E
:10D3A000A563266325731A7001F0E0F901F0E2F934
:10D3B00004232000637314302B000096039A390075
:10D3C00000F057FA2800636AE36305B0F0BD014836
:10D3D000FBE7C046BD020000F8B504000F001500D1
:10D3E00001F0C4F9637B0600042B04D001F0C2F9FC
:10D3F00008252800F8BD236B9D4203D901F0BAF936
:10D400001D4DF6E7002D03D101F0B4F90535F0E725
:10D4100023689C421ED120002A003900143000F0FD
:10D42000CBF8051E06D0300001F0A4F96A2DE0D13A
:10D43000124DDEE7636BA26B01336363934200D945
:10D44000A363636AE26B9A4200D9E363300001F0A0
:10D4500091F9CEE70C3B1C002A003900D86B01F093
:10D4600063FB2564200000F05FFB300001F082F9CF
:10D47000002500F04DFCBCE7BF020000BE0200002A
:10D48000F0B585B00293050001920B9E01F06EF994
:10D49000304B04001B78002B09D0019B029A1343E8
:10D4A00005D001F067F92C4C200005B0F0BD6B7B76
:10D4B000042B04D0200001F05DF90824F4E72F00CC
:10D4C0001437380000F026F9039000280CD1320000
:10D4D0000A99380000F027F96B6B2000013B6B6361
:10D4E00001F048F9039CDFE7019B029A134306D140
:10D4F0002000C824336001F03DF96400D4E7174BE5
:10D500001B780393002B06D000232000336001F02A
:10D5100031F9C824C8E7124F0A9B3968019ACB63D6
:10D520002800029B00F028FB200001F023F900F006
:10D53000EFFB01F01BF90500386800F099FB039B35
:10D54000041E01D13B681B6C3360280001F012F906
:10D55000AAE7C0463C5CFF1FEA030000E452FF1F3D
:10D560005464FF1F70B5FFF7FCFE0124002501F095
:10D57000FDF806490A684B6812196B410A604B6056
:10D5800001F0F8F8FFF7F1FEF1E7C046E852FF1F9F
:10D590004269012A06D1002301698A425B41DBB25C
:10D5A0001800704700239A42FAD1036980698342C8
:10D5B0009B415B42F4E70000F0B5040085B003AF87
:10D5C0000191150000210322380007F045FD2000DD
:10D5D000FFF7DEFF002802D06A2005B0F0BD6369C6
:10D5E000002B13D1E3686268934201D12368E360A2
:10D5F000A2690199E06801F097FAA369E268D2187C
:10D60000E2602269D31A23610020E6E72BBA7F2D5E
:10D6100059D801265B005B0E3B702269AB199A4218
:10D62000DAD36168E3688B4201D12368E360E06884
:10D63000A368984266D30B1A0093B34262D2002BC0
:10D640000DD01A00390001F06FFA009B009AF61A0B
:10D650002368E36023699B1A2361002E0BD0009B93
:10D660003200F918E06801F05FFA23699B1B23611F
:10D67000E3689E19E6606668E368B34201D12368F7
:10D68000E360E068A368984211D3361AB5420ED918
:10D69000002E0CD03200019901F046FA019BAD1B1F
:10D6A0009B1901932368E36023699E1B26612A006E
:10D6B0000199E06801F038FAE3685B19E3602369D7
:10D6C0005D1B2561A0E7114A954209D88022190205
:10D6D000090E52420A431B0E3A707B7002269CE7E9
:10D6E0000B4A0520954200D977E740221904090E1C
:10D6F00052420A433A701A02120E1B0E7A70BB7025
:10D7000003268AE700230093A9E7C046FF3F0000F5
:10D71000FFFF3F004368026800699B1A181A4342E2
:10D720005841C0B27047F0B5040087B00191029231
:10D730000021032204A807F08FFC2000FFF7EAFF76
:10D740006B2300282ED16268A36800926269002AC8
:10D7500016D1009A934201D12368A360A269A168FF
:10D76000019801F0E1F9A269A3689B18A3602369FD
:10D770009B182361029B002B14D01A60002311E038
:10D78000009A934201D12368A360A1680A7853B23A
:10D79000002B0ADA3F239A43802A5ED03A3B0326C5
:10D7A000C02A03D0180007B0F0BD0126009B5D1A07
:10D7B000AE4254D9002D08D027692A0004A801F0F0
:10D7C000B3F92368EF19A3602761A368771B03935C
:10D7D00004ABE8183A00039901F0A6F9039B320064
:10D7E000DD192369A560DF190023059306AB2761C6
:10D7F0009F1B04A9380001F097F9012E03D03F22A6
:10D800003B7813403B70059B1FBA029B1F60009B37
:10D810009D4201D12368A360A168E368994210D9B1
:10D82000009B5D1ABD420CD22A00019801F07CF9E0
:10D83000019B7F1B5B1901932368A36023695D191A
:10D8400025613A00A168019801F06EF9A368DB191F
:10D85000A3602369DF19276190E70226A6E7002568
:10D86000B3E7036842688360C360D31A0361002092
:10D87000704710B54361029B016089184160836164
:10D88000FFF7EFFF002010BD030001221860586071
:10D8900081601A77802200209200186158619A8175
:10D8A0007047030010B568331C78503B20001A689D
:10D8B000002A00D110BD8A4202D14A691A60F6E7F7
:10D8C00013689A4201D05B331C78031CA04200D934
:10D8D000231CD8B213001433E9E710B50400FFF796
:10D8E000E0FF230067331B780100834202D0200051
:10D8F00007F02AFF10BD000070B504000620002CC0
:10D9000009D000F033FF164B05001B78002B03D025
:10D9100000F030FF134870BD627B022A03D000F094
:10D9200029FF0820F7E7227F012A03D000F022FF19
:10D930000920F0E720696373002802D02100FFF777
:10D94000CCFF2068844206D1280000F013FF00F0CD
:10D95000DFF90020DFE70C3800F042F9F1E7C046BC
:10D960003C5CFF1FEA03000010B5C36C5A7B022A1F
:10D970000BD11A6967301100673109780378994231
:10D9800003D100211000FFF7A8FF10BDF7B50193E8
:10D99000344B05001B8800920024042B09D000F0B2
:10D9A000E5FE314B06001B78A34204D000F0E2FEF6
:10D9B0002E4C2000FEBD6B7B022B03D000F0DAFE64
:10D9C0000824F6E72A4F2C693B68A34210D1AB69C3
:10D9D0005A1C07D1274807F03FFE300000F0CAFE6E
:10D9E000244CE6E70133AB6100F0C4FE224CE0E7D3
:10D9F000002C08D19A692B616A619D610123AB619A
:10DA000000F0B8FED5E7009A01990A4304D1C82472
:10DA100000F0B0FE6400CCE7184A1278002A03D068
:10DA200000F0A8FEC824C4E76733197823006733E1
:10DA30001B788B4202D9200007F086FE009A019BDA
:10DA40003968280000F098F8300000F093FE00F0EC
:10DA50005FF900F08BFE0500386800F009F904005A
:10DA60002800CDE7B85BFF1F3C5CFF1FEA03000006
:10DA70005464FF1F8603000085030000E452FF1F6B
:10DA8000F8B5244B05001B880020042B09D000F0BA
:10DA90006DFE214B07001B78002B03D000F06AFEBF
:10DAA0001E48F8BD6B7B022B03D000F063FE0820FC
:10DAB000F7E71B4B18682B69984205D0380000F037
:10DAC00059FEE1208000ECE7AB695C1EAC61002CE4
:10DAD00004D0380000F04EFE1248E2E72900FFF7BC
:10DAE000FCFE2E68B54205D12C61380000F042FEE4
:10DAF0002000D6E70C3E300000F016F8B3692E6126
:10DB00006B610123B5613800AB6100F033FE00F0BA
:10DB1000FFF8EDE7B85BFF1F3C5CFF1FEA03000066
:10DB20005464FF1F8503000070B5050048352B784D
:10DB30000400022B05D0042B16D0012007F08CFD29
:10DB400009E0C3680269010013600A485A6000F0E6
:10DB50006FF901232B70200000F0ECFA2200002363
:10DB600049321370E36470BDC368026913605A6080
:10DB70000323EFE7E051FF1F70B50C000500E064E0
:10DB8000511C01D1591C02D0200000F0A7FA23003B
:10DB9000022248331A702100104800F077F9220061
:10DBA0002B7B0C32012B05D16B68E56023611A6079
:10DBB0006A6070BD21002B686731AB4205D159689E
:10DBC000E36021610A605A60F3E718005B30067871
:10DBD00008788642F3D81B68EFE7C046E051FF1F84
:10DBE00070B5050048352B780400022B05D0042BB6
:10DBF00017D0012007F030FD09E0C3680269010079
:10DC000013600B485A6000F013F901232B702000B9
:10DC100000F090FA2300032249331A700023E364D2
:10DC200070BDC368026913605A600323EEE7C04603
:10DC3000E051FF1F30B5C26C137B002B15D1016979
:10DC4000C3680B6059600100136867319A4205D0C0
:10DC50001C005B3425780C78A54207D9020059686E
:10DC60000C320161C3600A605A6030BD1B68EDE789
:10DC700010B549300378032B03D8054A5B00985A46
:10DC800010BDCA20400007F0E7FCCA204000F7E7BB
:10DC90009A62061130B50C000B00673422780C3301
:10DCA00095002B50CB600B61030051118900F833B4
:10DCB0005B181F21914301228A401968FF300A43F3
:10DCC0001A60237842789A4200D9437030BD000030
:10DCD00010B500F04BFD0B4B1C78002C03D000F06E
:10DCE00049FD094810BD094A1378C72B03D900F034
:10DCF00041FDCA20F6E70133137000F03BFD200020
:10DD0000F0E7C0463C5CFF1FEA030000E452FF1F3F
:10DD100010B500F02BFD0F4B04001B78002B03D037
:10DD2000200000F027FD10BD0B4B1B78002BF7D116
:10DD30000A4A1300FF335B789B009958084B0C3953
:10DD40001960084B18688842EAD0FFF708FB00F01A
:10DD500014FDE5E73C5CFF1FE452FF1FE051FF1F8D
:10DD6000385CFF1F5464FF1F10B500F0FFFC0F4B21
:10DD70001B78002B03D000F0FDFC0D4810BD0D4BAF
:10DD80001C78002C03D100F0F5FCC920F6E7013C1B
:10DD9000E4B21C70002C03D000F0ECFCC820EDE7CE
:10DDA00000F0E8FCFFF7B4FF2000E7E73C5CFF1F52
:10DDB000EA030000E452FF1F03003E22FF335A70C3
:10DDC0000022073B04C09842FCD1704770B50C009C
:10DDD00067342378094A9B009A58002A02D1FFF73A
:10DDE00059FF70BD0A001B580C325D68CB600D6195
:10DDF0002A605A6023789B001A50F2E7E051FF1F17
:10DE00000B0010B567331B78084A9B009A58002A0C
:10DE100002D1FFF73FFF10BD0A001B580C325868B3
:10DE2000CB60086102605A60F5E7C046E051FF1F11
:10DE300070B50C0067342678124AB3009D58124A18
:10DE4000126867321278B2420DD1002D02D1FFF76D
:10DE500021FF70BD0A001B580C325868CB60086166
:10DE600002605A60F5E7002DF1D00A001B580C3211
:10DE70005D68CB600D612A605A6023789B001A5060
:10DE8000E7E7C046E051FF1F5464FF1F0B0070B569
:10DE900067331C78A300C3181A681568AA4209D012
:10DEA00008000C30824200D11D600A69CB68136003
:10DEB0005A6070BD1F26012500220100A643B5400F
:10DEC0001A606311F8319B00CB181E68FF30AE4317
:10DED0001E604378A342ECD10B68002B15D0190CBF
:10DEE00001D11B041032190E01D11B020832190F87
:10DEF00001D11B010432990F01D19B000232DB4397
:10DF0000DB0FD21804D44270D3E720320431E3E7A8
:10DF1000012007F0A1FBCCE767310B789B00C0180C
:10DF200003681B68036070470300FF335B78034A94
:10DF30009B001B5889000C3B8B507047385CFF1FBF
:10DF400010B500F013FC134B134C1B6867331B78A0
:10DF50009B001B59002B02D100F00CFC10BD1A00D5
:10DF60001900593212780C39002AF5D01A689A42F1
:10DF7000F2D04A6D002A03D0013A4A65002AEBD15B
:10DF80005B331B789B00E2581268E2508B6D4B6547
:10DF9000E2E7C0465464FF1FE051FF1F70B5040064
:10DFA0000E0000F0E3FB637B0500012B03D000F0C3
:10DFB000E1FB082070BD2068844213D123695A1CFC
:10DFC00005D1280000F0D6FBC8208000F2E7626986
:10DFD00001332361934200D96361280000F0CAFB3A
:10DFE0000020E7E7002E06D10C38FFF79DFD05E085
:10DFF0000C38FFF799FD20688442F9D1280000F021
:10E00000B9FBFFF785FEEBE770B50400002501269C
:10E01000206060600261426181600573067600F0F5
:10E02000A5FB00F0A7FB2800667370BD10B50021AA
:10E03000FFF7B4FF10BD0000F7B50600019317000D
:10E0400000F094FB1E4B05001C78002C04D000F05F
:10E0500091FB1C4C2000FEBD737B012B03D000F014
:10E0600089FB0824F6E73369002B05D0013B3361B7
:10E07000280000F07FFBEDE7019B3B4304D1C8245F
:10E0800000F078FB6400E5E70F4B1B78002B03D012
:10E0900000F070FBC824DDE70C4C3A002168019BBE
:10E0A0003000FFF769FD280000F064FBFFF730FE49
:10E0B00000F05CFB05002068FFF7DAFD0400D7E7FD
:10E0C0003C5CFF1FEA030000E452FF1F5464FF1F83
:10E0D000014B1B605B607047485CFF1F1100F0B58F
:10E0E000194321D01149026343630E684F6834001D
:10E0F0003D00A4185D410E498462C5628C460968E2
:10E10000614508D0CC680D69A41BBD419D4202D871
:10E11000F5D19442F3D903004A681C330262C1610D
:10E1200013604B6063468363F0BDC046305CFF1FE5
:10E13000485CFF1F836B002B05D0C369026A136024
:10E140005A60002383637047F7B506000F0000F0A4
:10E150000DFB304C050022686368B6185F412E4BFA
:10E16000266067601F682C4B9F424ED02068616814
:10E170003E003B681C3E0193B26AF36A121A8B415F
:10E18000002B42DC01D1002A3FD13B002C33187810
:10E190000238042835D800F0A9FC0E3423032E00E1
:10E1A00001233000BB85FFF7C5FF31001B48FFF797
:10E1B0003FFE019FD7E73000FFF7BCFF3B00103B5D
:10E1C0005A681B683100136014485A60FFF730FE2C
:10E1D000134BBB853000FFF7C7FB0023F364E8E770
:10E1E0003000FFF7A7FF3B00103B5A681B68136025
:10E1F0005A600C4BEDE703233000BB85FFF79AFF15
:10E20000D7E7012007F028FAD3E7280000F0B2FA98
:10E21000F7BDC046305CFF1F485CFF1FE051FF1F89
:10E220000102000003020000036A0D4AF0B59C469B
:10E230000C4C416A136826686768934205D15A6896
:10E240004260036010605860F0BD9C69DD69A41BEA
:10E25000BD418D42F3D801D16445F0D81B68ECE78D
:10E26000405CFF1F385BFF1F02000368481ED0B5EB
:10E27000052800D96AE000F039FC0320364C6959C2
:10E280001A003C321278052A16D11C003D3422783F
:10E29000012A11D09E6ADF6A2E4A1E625F621068F0
:10E2A0005168801979412C4A9861D9619A601800A7
:10E2B000FFF7BAFF01232370D0BD1A003C32127859
:10E2C000052AF9D11A003D3211780029F4D0996855
:10E2D000002905D0196858680160486000219960DC
:10E2E00000231370E8E79068D16804000C43E3D082
:10E2F0001C003C342478052CDED11C003D342478ED
:10E30000002CD9D1D96298621169526919635A6394
:10E31000D2E719003C3109780529CDD119003D31EA
:10E3200009780029C8D112695A61C5E71A003C3240
:10E3300011780529C0D119003D3109780029BBD1D8
:10E340003E331B78012BB7D11170B5E7012007F0E0
:10E3500083F9B1E7385BFF1F405CFF1F10B50179FF
:10E360000400052907D10339FFF77EFF04212000AF
:10E37000FFF77AFF01212000FFF776FF10BD0000B4
:10E38000F0B58BB003AB04AF01930097012252426A
:10E39000D3173848FFF774F8040000F027F9002C71
:10E3A00025D1354B186059603800FFF7D7FF334E41
:10E3B0003468B442E6D000F019F9A269E369121A90
:10E3C0008B41002B02DC0ED1002A0CD003A9019155
:10E3D00000972848FFF754F8040000F007F9C92314
:10E3E0005B009C4207D1244B186059600BE0012070
:10E3F00007F032F9D8E7002C34D11F4B1860596070
:10E400003800FFF7ABFF3468B442D0D0A269E369AB
:10E41000194D28686968121A8B41002BC7DC01D19D
:10E42000002AC4D12369616920009847A368002BA2
:10E4300005D02368626813605A600023A360226BD2
:10E44000636B1100194311D0286869682262636206
:10E4500012184B41A660A261E3612000FFF7E4FEC1
:10E460002468D1E7012007F0F7F8CCE723003D331B
:10E470001970F5E7F05AFF1F385BFF1F405CFF1F64
:10E480007FB501236A46009013716946182202483D
:10E49000FEF7A2FF07B000BDF05AFF1FF7B5089EB8
:10E4A000099F0DAC24780300A44601246442E517BB
:10E4B000A4197D410A98184F01900B98BD4229D8A4
:10E4C00001D1033426D8B84224D802D1019C0234A9
:10E4D00020D8D9601A610899099A9962DA62019A7A
:10E4E00000211A630C9A58635A61052200209A870A
:10E4F0001A00186259629861D96101213E32986010
:10E500001B605B6011706246824202D01800FFF708
:10E51000B7FFFEBD0520FCE7FFFFFF7F7FB50223AD
:10E520006A4600901371694618220248FEF754FFAC
:10E5300007B000BDF05AFF1F30B587B00A9C0B9999
:10E54000551C01D15D1C12D0651C01D14D1C0ED093
:10E55000029203936A460323009005911371694662
:10E56000182204480494FEF737FF07B030BD052099
:10E57000FBE7C046F05AFF1F7FB50F4B0F4A1B60E9
:10E580005B6014230E4900930E480433FEF7F2FE3D
:10E59000012305930C4B0022049380239B000393DB
:10E5A0000A4B0B49029300230A480092019305236A
:10E5B00006F032FD07B000BD405CFF1F0050FF1F9A
:10E5C000AC620611F05AFF1F817BFF1FF052FF1F44
:10E5D000B8620611405BFF1F10B5FEF7C1FE0120B7
:10E5E0000021FFF7B1FDFFF7ABFC10BD70B500F0E7
:10E5F000BDF8044B1C685D6800F0BCF829002000E1
:10E6000070BDC046305CFF1F10B5FFF7EFFF10BDB7
:10E610007047F0B501259340012604686D428A4297
:10E6200003D92C4023430360F0BD370097400132EB
:10E63000BD43D2B2F3E700007FB504220F4B1A802E
:10E64000FEF77EFE0E48FFF7B7FBFFF741FD012303
:10E6500005930C4B0022049380239B0003930A4BE9
:10E660000A49029300230A48009201933D2306F0D1
:10E67000D3FCFFF781FF002007B000BDB85BFF1F90
:10E68000E051FF1F656DFF1F545CFF1FA262061162
:10E69000C05BFF1F70B50A4D03242B88042B0DD1DE
:10E6A00000210848FFF740FC074B1A68074B1A6027
:10E6B000FEF752FE2C8000F068F8023C200070BD8E
:10E6C000B85BFF1FE051FF1F385CFF1F5464FF1F42
:10E6D00010B500F04BF80A4A04001378BB2B09D997
:10E6E000FA20800006F0B8FF200000F043F8FA207E
:10E6F000800010BD0133137000F03CF80020F8E7F3
:10E700003C5CFF1F70B500F031F8124D04002B780F
:10E71000002B04D100F02EF80F4806F09DFF2B7857
:10E72000013BDBB22B70002B03D0200000F022F85D
:10E7300070BD0A4B19780029F7D10948FFF7F4FB9F
:10E74000084B1A68084B1B689A42EED000F019F883
:10E75000EBE7C0463C5CFF1FE9030000E452FF1FEB
:10E76000E051FF1F385CFF1F5464FF1FEFF3108060
:10E7700072B6704780F3108870471E481E490160CA
:10E7800070471C481C49016070471C4802681C49BE
:10E790000A430260002080F3098816481649016088
:10E7A00062B6FEE772B6EFF30980002820D0243865
:10E7B000F0C044464D4656465F46F0C0744604607D
:10E7C00020381049096808600E480F490A6802603D
:10E7D000106801461030F0C8A046A946B246BB46B4
:10E7E000F0C901688E46043080F3098862B670472C
:10E7F000EAE7000004ED00E00000001020ED00E07A
:10E800000000C0C05464FF1F385CFF1F70B50600D5
:10E810000C1E17D00F23173199431E4B0D001220E9
:10E82000994202D8080000F073F8023000018459C0
:10E83000002C0BD12900184806F0A6FA002430005D
:10E8400000F0F2F8200070BD1C00F1E72268A36818
:10E85000AA42F9D3E1688B60A368002B00D0D9608D
:10E86000501B0F280CD961194D60A218536808601D
:10E87000DB0FDB07034325603000536000F058F8DE
:10E88000802362681B06134363600834002CD6D1D2
:10E89000D0E7C046FFFF3F00C3620611F7B5019005
:10E8A000002934D008394B680C005E000B687608EC
:10E8B000CA184E60576800931500002F10DBD0680F
:10E8C000936817688360D5199268002A00D0D060D9
:10E8D000009BDF196B682760DB0FDB073B436B6036
:10E8E000A61B7368002B0FDBF168B3688B60002BED
:10E8F00000D0D9603368216859186B683160DB0F2C
:10E90000DB070B4331006B60019800F011F8F7BD95
:10E91000064A03001220934203D800201B09012B52
:10E9200000D8704701305B08F9E7C046FFFF3F00A1
:10E9300070B5050008680C00FFF7EAFF020102301D
:10E94000000118324359AA18002B05D01968002974
:10E9500002D02068814206D39460E260A360002B5D
:10E9600000D0DC6070BD1A009B68EDE70B00D0B5ED
:10E970000F24802608278A180F33C168A343A243B7
:10E98000D41A36060919103CC1600361083A9C602C
:10E99000D91934431F605E604F6042611760546054
:10E9A000FFF7C6FFD0BDF8B507000D001600002127
:10E9B000982204001837C1605200380006F04CFB62
:10E9C00022003932FF323B001033BB60FF611F0071
:10E9D0009A42F8D1320029002000FFF7C7FFF8BDA6
:10E9E0004369F7B59C4600231F001E00046901938C
:10E9F000A44509D8C2680A60019A4F6008328E6047
:10EA00000020CA600B61FEBD62682568002A04DA36
:10EA1000019A521901926419EAE701375B19AE4273
:10EA2000F9D22E00F7E700007FB501A9FFF7D8FF64
:10EA3000044B049A19688A4200DD1A60186807B00E
:10EA400000BDC04650490020014B18687047C046C1
:10EA500050490020F0B507000E00150089B003A949
:10EA600008481C00FFF7BCFF039B3B60069B33601C
:10EA70000193079B2B60FFF7E7FF2060002009B0A0
:10EA8000F0BDC046906F002070B5051F04000E0059
:10EA9000EDB2632916D1002106F0A6F90B2D0AD993
:10EAA0002300123B0C2B06D90233012B05D8002181
:10EAB000200006F0E1F9002070BD0121200006F0E1
:10EAC000B3FCF8E70B2D09D90300123B0C2B05D939
:10EAD00002330021012B06D806F0CEF931002000C8
:10EAE00006F07AF9E7E706F09FFCF7E702B4714613
:10EAF00049084900095C49008E4402BC7047C04681
:10EB000003B47146490840004900095E49008E443B
:10EB100003BC704703B47146490840004900095AD4
:10EB200049008E4403BC704780B584B000AFF860E4
:10EB3000B9607A607A68B968FB68180006F094F8E2
:10EB400003001800BD4604B080BD80B588B000AF9A
:10EB5000F860B9607A6000237B61FB68FB61BB6889
:10EB6000BB6112E0FB691B781A00BB691B78D31AE2
:10EB70007B617B69002B0CD1FB690133FB61BB69B5
:10EB80000133BB617B68013B7B607B68002BE9D173
:10EB900000E0C0467B691800BD4608B080BD00009B
:10EBA00037B50400C58A807900F0D8FF210001F054
:10EBB0004BF90D4B2A331B789B060AD5607D06F076
:10EBC0002BF8002805D0437B033B012B02D906F02C
:10EBD00093FA37BD06F090FA012001A90D80488014
:10EBE00005F0C2FCF5E7C0460871002010B5072209
:10EBF000FFF79AFF10BD000010B5C37A0400002B88
:10EC000002D10133437210BD0300A8331B68002BEF
:10EC100018D05A7AD20715D55B899B0610D50423E4
:10EC20006372A27A637A9A42EDD9074B074A0221AE
:10EC3000074805F091FF0521200006F055F9E2E7AD
:10EC40000323EDE70223EBE78E670611546A0611F2
:10EC5000B565061170B5050005F050FC041E05D120
:10EC60000648002D04D0402101F0F5F9200070BDC8
:10EC70004121494201F0FBF9F8E7C04678710020D4
:10EC800010B50400034801F0D9F9012320411840D0
:10EC900010BDC04678710020F0B583784278614F8E
:10ECA0001B0289B0134305005F493800039301F04C
:10ECB000DEF9C30304D500225C49022006F05CFBA8
:10ECC0005B49380001F0D3F983050DD52B783C2B37
:10ECD0000AD15849380001F0CAF9412138004942A7
:10ECE00001F0C5F901F062F82B78002B0ED002215B
:10ECF000002005F079FF041E3CD02B78002103731F
:10ED000006F0BAFB200006F0F7F933E006AE2C1D42
:10ED100021003000FFF76AFF3378023BDBB2012BA2
:10ED20002AD829000920337002AB0622C0181131FD
:10ED3000FFF7FAFE012302AA13720221300005F048
:10ED400053FFEB780400012B0AD1412138004942DE
:10ED500001F08DF9002C14D1300006F09DF804006C
:10ED6000002C0ED1039B344A00930221334B3448CC
:10ED700005F0F2FE09B0F0BD210004A8FFF736FF50
:10ED8000DBE72000039B310023808030FFF72EFF5C
:10ED90002B7EEA7D1B021343220096321380AB7E4A
:10EDA0006A7E1B02134322009C3213802B7FEA7E73
:10EDB0001B02134322009E321380EE78E670012E70
:10EDC0001BD120001F4F04A93B7A87302372FFF725
:10EDD0000DFF07212000237A8E305943C919FFF710
:10EDE00005FF0820FFF74CFF002806D080377B681E
:10EDF0005B0602D53000FFF72DFF0321200006F04F
:10EE00003BFB637B032B00D07CE7EB78002B05D02A
:10EE10000C4B78331B781B0700D473E7208805F070
:10EE20009FFB6FE778710020FFFFFEFFF989FF1F4E
:10EE3000FFFDFFFFFFFEFFFF086A0611F9660611DE
:10EE4000B565061108710020020010B5811C26323C
:10EE50004078002305F0ADFB10BD10B506F004FAB4
:10EE6000041E04D006F040F9200006F045F910BD5C
:10EE7000F7B507000D0001F03BF80600380006F07A
:10EE8000F3F9041E0AD100971A4B1B4A02211B48B2
:10EE900005F062FE300001F02FF8F7BD300001F000
:10EEA0002BF8002D16D001F023F86669002E05D04E
:10EEB0003368A2696361964200D1A361013D01F00C
:10EEC0001BF8ADB2002E09D10A4B0D4A02210B48A6
:10EED00005F042FE200006F00FF9DEE720003100C9
:10EEE0001C3000F0ABFF200005F0DEFE00F0E6FF76
:10EEF000D7E7C046C0660611F4670611B56506116E
:10EF00001468061173B583680400DE789A785D781A
:10EF1000360216431A782D0215432B051B0DC382AA
:10EF2000FF2308304373042100F016FFA389B34286
:10EF30000BD000930196124B124A0221124805F0A1
:10EF40000BFE200000F0B2FE73BDE08A06F08CF9E3
:10EF5000061E08D1E38A0D4A00930221084B0A4895
:10EF600005F0FAFDEDE706F037FB2A0B607521008E
:10EF7000300001F089F8300006F0BEF8E4E7C04642
:10EF8000DC66061108690611B565061130690611BF
:10EF900030B5028844880023A24219D8052A17D91F
:10EFA000C8221201944213D8F4218288FF318A4288
:10EFB0000ED8C188074D08000A3880B2A84207D889
:10EFC0000132624389000123914200DC0023DBB25D
:10EFD000180030BD760C00000300F7B5263300930F
:10EFE000871C00230500009A4078390004F0D4FC07
:10EFF000394C2300B0331B78002B04D02200B132EF
:10F0000012789A4204D9B134237801332370F7BDC2
:10F010000221002005F0E8FD061E0CD080212F48BB
:10F02000490201F018F804236A7A300013436B7226
:10F0300006F062F8EBE70620FFF722FE01900028B9
:10F0400002D03000FFF706FE2300B1331B78002BFF
:10F0500012D126002300B136B03332781B789A42A1
:10F060001DD105F0ACFA002815D01D4B1D4A022118
:10F070001D4805F071FD04E0002005F0A3FA00280A
:10F08000E7D0012005F09EFA019B002BBFD00120A4
:10F09000FFF7E0FDBBE7337801333370F1E76878C1
:10F0A0000023009A390005F084FA002802D00C4BA6
:10F0B0000E4ADCE7337847340133337023785B073B
:10F0C000DFD568780122390005F07FFA0028D8D012
:10F0D000034B074ACBE7C046087100207871002037
:10F0E0007A6706112F680611B56506115368061177
:10F0F00077680611F0B5871C85B0050039004078A7
:10F1000004F064FC354C2300B0331B78002B05D091
:10F110002200B132127801339A4205DDB1342378EE
:10F12000013B237005B0F0BD0221002005F05CFD1D
:10F13000061E0CD080212A48490200F08CFF0823CB
:10F140006A7A300013436B7205F0D6FFEAE70620B7
:10F15000FFF796FD0390002802D03000FFF77AFDFC
:10F16000002005F02FFA021E14D000901D4B1E4AFD
:10F1700002211E4805F0F0FCB1342378002B02D0A8
:10F18000012005F01FFA039B002BCBD00120FFF7D5
:10F1900061FDC7E726002100B136B0313378097828
:10F1A000994209D20220013B33706B891049834395
:10F1B0006B8106F0E1F8DFE76878390005F0FCF9CB
:10F1C000002806D0074B0B4A0221084805F0C4FC72
:10F1D000D2E73378013B3370CEE7C0460871002098
:10F1E000787100208467061196680611B5650611CE
:10F1F0004986FF1FC76806110422437A10B51342DF
:10F2000004D093434372FFF7E7FE10BD0822134278
:10F21000FBD093434372FFF76DFFF6E7F8B50E009E
:10F220002121104C07004942200000F020FF002F50
:10F2300008D1310040220C48FFF776FC1021200055
:10F2400000F009FF0025094B1C68AF4200D13500D2
:10F25000002C01D12000F8BD23682800984764687D
:10F26000F6E7C046787100201C5300205C53002054
:10F2700010B5074C2268002A07D0434243415B4245
:10F2800019400800904700232360002010BDC046AD
:10F2900070520020F0B5846895B022780700132AD8
:10F2A0000CD8012393408C221203134206D0BD4B8D
:10F2B000BD4A0221BD4805F04FFCFEE73D00083580
:10F2C0000221280000F048FD2378082B56D006D8EC
:10F2D000052B1FD0380000F0E9FC15B0F0BD302B35
:10F2E00075D03E2BF6D1BC680121280000F034FD1A
:10F2F000207801380B28EDD8FFF702FC8700ECFFDF
:10F30000EF001901E2016A01AC0197029D02ED00D4
:10F31000ECFFD401BE6833780593002BDAD1B578C1
:10F3200073782D021D43280005F09EFF041E14D1A2
:10F3300000959F4B9F4A02219C4805F00DFC082038
:10F34000FFF79EFC0028C5D00620FFF799FC002897
:10F35000C0D10130FFF77EFCBCE7F3780599037359
:10F3600006F08AF8059B20002380A378002B02D0AA
:10F3700005F0C2FEAEE705F0BFFEE0E7BE68B57877
:10F3800073782D021D43280005F06EFF041E07D17F
:10F39000894B0095874A0221844805F0DDFB99E7F7
:10F3A00033788278002B05D0002A01D1437A83720A
:10F3B0002000DDE7F378C372002A1ED1002B02D0B3
:10F3C000200005F041FF2000FFF716FC15E0BE68A5
:10F3D000B57873782D021D43280005F045FF041E03
:10F3E00002D10095754BD5E73178002902D006F09F
:10F3F00083F86FE78378002BE2D02000317806F0A5
:10F400007BF8200005F0F8FFD2E72122BC680CADA4
:10F41000237804A82B70A37861781B0212180B4381
:10F4200013701B0A53703722E3781218EB70237B9A
:10F43000E17A1B020B4313701B0A53703922A37B22
:10F44000617B1B0212180B4313701B0A53703B2283
:10F45000237CE17B1B0212180B4313701B0A5370B1
:10F46000637C0DAE211D30006B77FFF7BFFB2B20B7
:10F4700004ABC0180622002105F0EEFDE378012B55
:10F480001ED131004E4B187A05F0DEFD0622002811
:10F4900019D0441CB44216D0252104ABC91831231D
:10F4A00004A81B181800FFF73FFB21003000FFF7EE
:10F4B0009DFB2B7902332B712800FFF7EDFB09E749
:10F4C00031000020E0E7312304A81B1800211800B8
:10F4D00005F0C2FDF0E7B868EFE7BC68A67863788E
:10F4E00036021E43300005F0BFFE051E03D1354B2A
:10F4F0000096354A4FE72378002B16D12379E2781E
:10F500001B021343020096321380A37962791B0217
:10F51000134302009C321380237AE2791B021343C7
:10F5200002009E32138005F0C7FE280020E7BD6868
:10F53000AE786B7836021E43300005F095FE041E4F
:10F5400002D10096214BD4E72B78002B04D1E91C83
:10F550000822A030FFF7E8FA194B78331A782023F5
:10F560001A4200D191E02200A03212781A4200D152
:10F570008BE00CAE08AD3100280004F0AFFF00288E
:10F5800000D082E0328829880023E05E04F0B0FFDA
:10F59000002800D079E08021201D490000F05BFDAB
:10F5A00006E7C046E267061156690611B565061101
:10F5B000E4660611896906119F670611B267061194
:10F5C0000871002062670611B36906110E67061103
:10F5D000BB680CAD5C781A7824021443DA78997809
:10F5E00012020A432A805A79197912020A436A8060
:10F5F000DA79997912020A43AA801A7A5B7A200092
:10F600001B021343EB8005F02FFE061E0BD1009466
:10F610008C4B8D4A02218D4805F09EFA0221200074
:10F6200004F0C4FF56E6290005F02EFA002805D1A3
:10F630001E21200004F0BAFF300099E60020AB88BC
:10F640006A88298802900190E8880090200004F0E0
:10F65000AAFFF1E7BB68DE789A785D783602164338
:10F660001A782D021543280005F0FEFD041E02D174
:10F670000095774B3DE7774B04308A3376491E80FF
:10F6800000F0F5FCC30500D492E6E17820004B427F
:10F690005941724B49421940714BB030C91805F0BD
:10F6A000D3FB85E6BB689C785A782402144320007B
:10F6B00005F0DAFD002800D05AE60094694B18E7FF
:10F6C000BC68637822781B0213431800069305F088
:10F6D000CBFD0590002803D1069B0093624B08E701
:10F6E000E278A37812021A432379E1791B041A43C2
:10F6F000637909021B061343A2791143227A12048B
:10F700001143627A12060A43134315D1E37AA27AAF
:10F710001B02134310D108A9059805F075FB0028BA
:10F720000AD0102208A90CA8FFF7FEF90CA9069828
:10F7300004F02DFF05981BE6059DA8352B68002BCE
:10F7400011D1059E059B8036197A3200202006F0E3
:10F750004BF82860002806D1059B3200197A013049
:10F7600006F042F82860059BA8331E680793002E18
:10F770004CD071898B062DD5E278A37812021A43FA
:10F780002379E0791B041A43637900021B061343B3
:10F79000A2791043227A12041043627A12060243BD
:10F7A000134317D1E57AA37A2D021D4312D13100FC
:10F7B000327A16310CA8FFF7B7F9079B1B68187A45
:10F7C0000F28B3D810220CAB121A2900181805F014
:10F7D00043FCABE7CB0719D53000A11C08223C3015
:10F7E000FFF7B3F9002811D12100300002220A31BD
:10F7F0004430FFF7AAF9051E08D13100327A4631AC
:10F800000CA8FFF791F9059BA833D7E76078237818
:10F810000002184304F0BFFE00F0D0FA124B134A66
:10F8200002210A4805F098F984E7BB68591C18784A
:10F83000FFF7F4FC4EE5BB68591C1878FFF718FD7C
:10F8400048E5C04650670611B3690611B565061153
:10F850002667061108710020FFFEFFFF78ECFFFF0E
:10F860008813000039670611D3670611DB6906119A
:10F87000034B10B5E4331B681B69984710BDC046A5
:10F880000871002013B5037D0400012B05D0032B64
:10F8900006D1FFF737FB002016BDFFF7FBFCFAE7A8
:10F8A0000093064A064B0221064805F055F9200050
:10F8B00000F0FCF916204042EEE7C046F068061161
:10F8C000EC670611B5650611094AE4321368002B8E
:10F8D00008D1C168002908D00169002905D010604D
:10F8E0001800704772204042FBE71620FBE7C04635
:10F8F0000871002070B505000748012D00D00748A9
:10F9000000F09EF9041E04D00121083000F0B8F97F
:10F910002575200070BDC046B8310020C8300020D9
:10F9200070B5037D0400022B12D10521083000F0D0
:10F930000BFA124A536801335360114BA289A16834
:10F94000986805F0A9FC0500200000F0AFF912E06E
:10F95000002B08D10121083000F0F6F9074AD368DE
:10F960000133D360E9E7074B074A02210748012525
:10F9700005F0F2F86D42280070BDC0461452002018
:10F98000202C0020786506119D650611B5650611CD
:10F9900010B5094C0021606805F066FB0023A060EB
:10F9A000984207D1054B064A0221064805F0D4F8D3
:10F9B00001235B42180010BD202C00208065061139
:10F9C00088650611B5650611F7B5051E21D0002919
:10F9D0001FD00378042B1CD102291ADD4378009331
:10F9E0008378023301938B4213DA009B204C3E2B29
:10F9F00012D1C678023E73425E41F6B20021012068
:10FA0000FFF778FF071E1BD1002E15D06369013365
:10FA10006361012040420CE0009B0E3B012B09D8A2
:10FA2000002005F021FF002804D1A369013801332B
:10FA3000A361FEBD0026E1E7A3690133A361E8E706
:10FA40000126019A0675A919083000F06AF92369A0
:10FA50009B192361009B132B05D89E408C231B030D
:10FA600000201E42E5D13800FFF70CFF0020E0E740
:10FA700014520020F8B5041E14D0002912D00378C7
:10FA8000022B0FD104290DDDC77804378F4209DA24
:10FA900000210320FFF72EFF0B4E051E05D1B36892
:10FAA0000133B360012040420DE00323611C037564
:10FAB0003A00083000F035F933682800013333602C
:10FAC000FFF7E0FE0020F8BD1452002010B5034BF4
:10FAD00058600348FFF7F8FE10BDC046202C0020F8
:10FAE0000C2C002070B50C1F23687546013B236069
:10FAF000002B0AD100F0FCF906002A00034821007F
:10FB0000FEF7CCFE300000F0F7F970BD906F0020DA
:10FB10003C2370B5827974465A430E4B0E009B18F5
:10FB20005B6B0A685B681B68934200D91300336003
:10FB300000F0DEF931682200050004310648FEF7C6
:10FB400065FE0400280000F0D7F9201E01D0012333
:10FB500008C070BDC8300020906F00203C2358437F
:10FB6000014BC0187047C046C8300020F7B50500EB
:10FB70000191160000F0B8F9009000F0B9F9EB8D92
:10FB80000700002B43D0AA8D9A422DD900212800CE
:10FB900000F05EF9041E27D0380000F0ADF9019B9B
:10FBA000002B3ED0731C012B07D900F09DF9009B60
:10FBB000C01AB04200D93000361A3C25A3791E4F36
:10FBC0006B43FB185B6B32001B6801A91B682000AC
:10FBD0009847061E206125D1A07921006843C019ED
:10FBE00000F032F934001AE0EC8D3800631EEB852A
:10FBF00000F082F9AB8D1B1B18245C43AB6B1C1906
:10FC00000D4BED1A0D4BAD105D43A571C7E700F02C
:10FC100073F93100280000F01BF9041EBFD1200049
:10FC2000FEBD2361002301222360A280A381019AEB
:10FC30002369E281A360F2E7C8300020EFEEEEEE28
:10FC400010B5436B0A005B681968FFF78FFF10BDA2
:10FC5000F8B5070000F0FCF8051E05D004000126E9
:10FC60006379334002D123602800F8BD00213800B9
:10FC700000F0EEF863792060B34363710400EFE7AE
:10FC8000836859180160704770B5002808D00029B2
:10FC900006D00B0001251C68002C02D100F0CEF824
:10FCA00070BD5A792A435A712300F4E7F7B504006E
:10FCB0003C26002C27D02368019323796779013BE8
:10FCC000DBB22371002B1ED12169114D00290CD00C
:10FCD00002331F4207D1A37920007343EB185B6BFB
:10FCE0001B689B689847002323610023A079A360C9
:10FCF000704328182360036B002B05D02000984721
:10FD0000019C002FD5D1F7BD210000F09DF8F7E749
:10FD1000C830002083880268D2185B1883801000E6
:10FD2000704710B504688388E4189B18838020000E
:10FD3000FEF7FAFE200010BD036882885B1A521895
:10FD4000036082801800704703688288013B01329B
:10FD5000036082801970704783885B1A8380036810
:10FD600059180160080070478288C3889B1A02688E
:10FD70008068101A181A70470B4B70B55B68050045
:10FD80000E001A1F1C1E00D01C68101D002800D178
:10FD900070BD1368002B02D0310028009847221F45
:10FDA000002CF2D02468F0E79856002010B500210E
:10FDB0000148FFF7E1FF10BD0600000510B5002166
:10FDC0000148FFF7D9FF10BD1900000510B500224A
:10FDD00009490400FEF718F9002805D0074B084A26
:10FDE0000221084804F0B8FE0023E36123622300E7
:10FDF00024336362A36210BDF1650611BE6506116E
:10FE0000F5650611B565061170B504001500FEF71D
:10FE1000ADFC00232B60236A002B0CD12562E56129
:10FE2000FEF7A8FC2000FEF701F920000421243091
:10FE300000F0DCF870BD1D602562F1E710B50A0026
:10FE40000021FFF7E1FF10BD10B5FFF7F7FF10BD70
:10FE500070B5050008004B1C19D0C917FEF7D8FB78
:10FE600002000B002800FEF7E7F80024A0420CD1A6
:10FE7000FEF77CFCEC69002C05D023682A6AEB6154
:10FE8000944200D12B62FEF775FC200070BD012268
:10FE90005242D317E6E710B504004B1C09D0080006
:10FEA0000021FEF7B5FB02000B002000FEF7C4F8AE
:10FEB00010BD01225242D317F7E7000010B5002809
:10FEC00008D1064B064A0221064804F045FE1620DA
:10FED000404210BDFEF7AAF80020FAE7CB650611F4
:10FEE0000E660611B565061110B5FEF78DFB10BD47
:10FEF00010B5FEF73BFC10BD10B5FEF73BFC10BD86
:10FF0000F0B504000026216462648664FA2087B09C
:10FF10000D00800000211700FEF77AFB002300226D
:10FF20000090019102920393059604972A000349D9
:10FF30002000FEF7B3FA07B0F0BDC0468F6006118F
:10FF400037B50400A1640D0005F006FBE064200055
:10FF5000FEF7E4FA002805D0134B144A0221144896
:10FF600004F0FAFD28000021FEF752FB02000B000E
:10FF700000200021009001912000FEF7DDFA00280A
:10FF800005D0094B0B4A0221094804F0E5FD200089
:10FF9000FEF776FA002805D0034B074A02210448F1
:10FFA00004F0DAFD37BDC046D66506111F6606119E
:10FFB000B56506113666061151660611836C10B5DB
:10FFC0000400002B0BD0FEF7A9FA002805D0044B43
:10FFD000044A0221044804F0BFFD0023A36410BDBD
:10FFE000E46506111F660611B5650611036898429F
:10FFF0000DD058681A680260506000229A605A7BDF
:020000041105E4
:10000000100901430F20090102400A435A73704747
:1000100070B50500FFF76CFF2C68631C2B60FFF7C1
:100020006BFF200070BD70B50500FFF761FF2C6805
:10003000631E2B60FFF760FF200070BD00687047F3
:1000400070B504000E00FFF753FF25682660FFF728
:1000500053FF280070BD70B506000C00FFF748FF85
:1000600035682C433460FFF747FF280070BD70B53A
:1000700006000C00FFF73CFF35682C403460FFF7AA
:100080003BFF280070BD000073B50D000400110097
:10009000012A1AD0022A5CD1AA685678137836024F
:1000A0001E43C389002B07D0304B314A314804F03E
:1000B00053FD200005F040FAAB89F31A04339BB2DC
:1000C000E381002B33D0256173BDC389002B0CD194
:1000D000264B294A0221274804F03EFD200005F066
:1000E0002BFA2800FFF7E2FDEEE7AE89B34202D219
:1000F0001E4B224AEEE700690830FFF735FE8642C4
:1001000002D91A4B1E4AE5E72069AA89A968083076
:10011000FFF707FEE389AA8928009B1AE381FFF70E
:10012000C5FDE389002BCFD12569E3812361AA684E
:10013000537811781B020B43AA89191D914210D0E4
:10014000019200930F4A094B02210A4804F004FD72
:10015000C7E70092054B0C4A0221064804F0FCFC5C
:10016000BCE72900200000F011F8ADE77E6A061117
:10017000A56A0611B5650611C66A0611E86A061178
:10018000006B06114D6B06112B6B061170B58B8938
:1001900006000C00032B09D80F4B104A022110480F
:1001A00004F0DAFC2000FFF781FD70BD20008B68B1
:1001B0000830DD789A782D0215430421FFF7CCFD35
:1001C0002900300004F0F0FE0028EBD04368210045
:1001D0001B699847E6E7C046D86B0611E66B061127
:1001E000B5650611264B274A10B51A608023264AAA
:1001F0001B0411680B431360244A254B1A60254BDE
:100200001B68186A05F018F8234B244A1A60244B1F
:10021000244A1A60A022244B52001A60234B1878FB
:10022000C0B204F0F1FF2249022005F02DF8214967
:10023000032005F029F8FF2005F03EFA012005F023
:1002400083F8FA20400004F0A7FE582004F0ACFF29
:10025000194805F009FA012005F0AEF9072004F06D
:10026000F3FBFF2215490B6893431A0088231343BD
:1002700010220B60124B1A600C3A1A6010BDC04677
:10028000080000409021E90148F0004020B81F50CC
:1002900040F00040386F0020000003400180063D20
:1002A000BC00034034080000A4000340E312FF1F19
:1002B0007102000040420F00307500005CF0004009
:1002C00000E100E010B50E4C05231B221F210D4854
:1002D000FEF79FF920000C4B07221021FEF799F939
:1002E0000622012311002000FEF793F90123074A9B
:1002F00011680B4313602268054B1343236010BD44
:100300001CF0004014F00040FB03000024F000400B
:1003100004003E00F0B593B004F0CEFE04F084FE7D
:100320003A4A0121582004F01FFC11248027013C87
:10033000E4B2002C67D00126354B364D01932B6873
:100340000620B3432B6004F077FF334A3348136829
:100350003B4313602B6833432B608025AD0003685B
:100360002B4204D1019B591E0191002BF7DC002385
:100370000199994208DB7E20294B1B681168DB0B31
:10038000034081431943116011685B08B943116050
:10039000372BCCD8042BCAD902AD4022002128002B
:1003A00004F05AFE0026102004F046FF1D4BB20058
:1003B0001B6801369B049B0CAB50082EF3D107231E
:1003C0002A000021106856680131B04201D9166038
:1003D000506004329942F5D3013B002BF0D11A0052
:1003E000114899006958461A814201D90F4E8E1959
:1003F000642E9CD801335218042BF2D10C4B920876
:10040000D218C62A93D813B0F0BDC046F812FF1F09
:10041000983A00005CF0004018F0004068F000409E
:1004200060F0004064F00040420F0000BEF0FFFFAB
:1004300021F1FFFF144B10B51B68144A986B144B45
:10044000062805D8FEF752FB11110415191D1100DD
:100450001021116004221A60FFF734FFFFF7C2FE7B
:1004600005F0FAF9FFF756FF10BD202111600522B3
:10047000F1E7302111600022EDE7402111600622F2
:10048000E9E76021F6E7C046386F00202010FF1F23
:100490002410FF1F00220D4BDA741A7D0132D2B2F4
:1004A0001A75022A09D180211A8A4900520092B293
:1004B0008A4208D81A8200221A75054B94331A68AA
:1004C00001321A6070471982F5E7C046421DFF1FCE
:1004D000D03BFF1FF0B50800082489B00D00204074
:1004E00009D0322004F028FD04F02EFE332004F061
:1004F00023FD200058E080242401214012D04B4AE3
:100500004B4BD1781B780490568F36090396168F83
:100510000296D28E52080192464A0092020003F0DF
:1005200099FBE6E70224280020400AD0414A404BCC
:100530003C201B78009204910391029101910122C9
:10054000EDE704242900214013D0384A384B160027
:1005500030363678D1781B780496568FE64003966D
:10056000168F0296D28E52080192324A00920122D0
:10057000D5E7402425420AD02E4A2D4B3B201B783C
:10058000009204910391029101910122C7E72B0689
:100590000DD5294B1A88002A05D08021274B490008
:1005A000187804F011FF8020684009B0F0BD802069
:1005B00040000542F8D180202E00C0000640F3D153
:1005C0008024E40125420BD01E221D4F07A93B7851
:1005D0006A4401200E80138003F0FAFF3E7088E722
:1005E000AB0413D5174C2378002B0CD0052B0AD065
:1005F00004F06AFB002804D004F0B6FD02230028B2
:1006000000D10423237080208001CDE78024640181
:1006100000202542C9D00B4B1B78834200D168E7EC
:10062000094B987C04F008FC63E7C0466C1DFF1F73
:100630004412FF1F4512FF1F2412FF1F1C12FF1F31
:100640001E12FF1F2312FF1F421DFF1F10B50400C3
:10065000C07803F03DFB200004F0B6FF0A4A13788F
:10066000002B09D0002380211370084A8901938050
:10067000074B187804F068FC064B1A680223D16A0D
:100680000B43D36210BDC0462312FF1F2C1DFF1F5A
:100690001C12FF1F386F00200B4B1A780B4B1B6886
:1006A000002A03D10A4A1268DA647047196FD86CBD
:1006B000884200D9D964012AF7D1064A13682D333C
:1006C000FF331360F1E7C0465212FF1F386F00205E
:1006D0009412FF1F6012FF1FF7B502000300040011
:1006E0003C3212783D331A70C188008904F084FDD1
:1006F0002300019092331F78012F37D126009436C2
:1007000032882189E08804F0FFFF00282ED031884C
:10071000208904F071FD032820D9264B264D187836
:10072000342358432B181A002E32177032882100B8
:100730009A8522003E3213786431435526300522D3
:10074000401904F091FA342321001A4A3F311078FD
:10075000252258430130401904F086FA1749200039
:1007600004F03AFE2300002292331A703426114F0F
:10077000114D3B787343EB181A002E321278012A80
:1007800010D1988DE18804F037FD80231B02984238
:1007900008D93B7800225E43AD192B002E331A7026
:1007A000E3886B860199200004F0A6FD3D3420709B
:1007B000F7BDC0464D12FF1F247200202C12FF1FF0
:1007C000F8B504F0E1FB634C002814D1E36E002B74
:1007D00011D1614B614A9A58002A0CD1E72252018B
:1007E0009B5C002B07D12378002B04D1631CDB7F9B
:1007F000002B00D08EE000236384E388628C20000D
:100800009B180133238104F0DFFF012804D100236A
:100810006384E38801332381230084331F78012F0D
:1008200000D094E0250086352A882189E08804F0EC
:100830006BFF002800D18AE026002B8848492381DD
:1008400020008E3604F038FB3388621CE3840023DA
:10085000D377E2896384238927719B18A381E18878
:10086000288804F0C9FC2200E38E8A325843050030
:10087000108822008C3211882D188B4209D1230058
:1008800090331A88638F9A4203D1228F33889A4219
:100890000AD02300220090331B888E321B09128855
:1008A0004908E07803F036FA2200230088321278F3
:1008B00032331A7023008C331B882000E386230018
:1008C0008E331B882387230090331B88638704F0B3
:1008D0007BFC200004F0C0FA2300002284331A704D
:1008E000E369618C1F4EAB4202D133888B4206D044
:1008F000230030331A7828001B4B04F045F9638C31
:10090000E56120003380FFF7E7FE200004F0D4F912
:100910000020F8BD22007A321278002A00D06CE75D
:10092000220084321278002A00D066E72200923238
:100930001278002A00D060E72132FF32A25C002A40
:1009400000D05AE7012B00D057E7E38C54E7E58E3F
:10095000C6E7C0466C1DFF1FE81EFF1F981300006E
:10096000F41DFF1FB0560020801DFF1F73B504004B
:10097000230022007F331B787B32002B2FD010788E
:1009800002381528F9D8FEF7BBF81600F8FF310039
:100990004A0083008301F8FFE600F8FFAE00FA008A
:1009A000CB00F8FFF8FFF8FFF8FFF8FFF8FF310180
:1009B00046015B01700126007A363578012D10D191
:1009C000B74B16219B78002B00D004E12200823225
:1009D0001388013B9BB21380002B00D1FAE000206A
:1009E000FDE0200004F050FA3070F8E725007A3579
:1009F0002B78012B0ED1AA4BDB78002BE6D0200000
:100A000004F04AFB22002100E078B832B03103F054
:100A1000EDF9ADE7200004F0BFFB2870DFE726000A
:100A20007A363378012B15D19D4AD278002A07D027
:100A300022009632137023000022EC331A605A60B1
:100A40002300F6331B78012BC0D10621200004F0CF
:100A5000BBFA8DE72500E7352B78012B08D1200064
:100A600004F002F80128BAD10023F6342370BBE762
:100A70002300E8331B78002BB1D022002100200096
:100A8000C732A031D73004F0A7F801232B706FE7ED
:100A900026007A363578012D21D1814BDB78002B69
:100AA00094D0E38C2000638404F0F6FA23006A33C8
:100AB0001D709D727A36E078337880B2012B09D1AF
:100AC000002103F0D3F922000023F63233701380A3
:100AD00093704DE72A00002103F0B0F9F3E72000FE
:100AE00004F0A2FE80E725007A352B78012B09D18E
:100AF0002300F7331B78012B00D067E7200004F0B8
:100B0000CBFA35E7200004F0E7F8012800D066E7CB
:100B100023000022F7331A70613B1A70287027E710
:100B200025007A352B78012B0ED15D49CA78002A31
:100B300006D022000020963210702C3A1370937267
:100B40008B78002BDAD141E72300F53319782000A8
:100B500004F0EAF961E725007A352B78012B0AD1F8
:100B60004F4AD278002A00D130E72200FC321370BD
:100B7000E38C6384C2E7200004F026F94DE72600E9
:100B800022007A363578FF32012D29D19379012B55
:100B90000DD1D379012BB1D12000FE308389C089DA
:100BA000527AE1780090002003F000F9A6E72100D6
:100BB00082310B88013B9BB20B80002B00D00EE7EB
:100BC0002000FE308389C089527AE178009022208B
:100BD00003F0ECF82221200004F0E6F8012076BDB5
:100BE00001232000137204F01FF8FDE625007A357A
:100BF0002B78012B07D12A4AD278002A00D1E5E6CA
:100C0000284A53767AE7200004F0C6F828700020BE
:100C1000244B5876E3E725007A352B78012B0BD14E
:100C20001F4BDB78002B00D1D0E600221D4B1A763B
:100C3000E07804F0D1FD61E7200003F0B5FFECE6B9
:100C400025007A352B78012B07D1154AD278002A56
:100C500000D1BBE6144A137550E7200004F03CFABB
:100C600028700020104B1875B9E725007A352A78CE
:100C7000012A09D10A4BDB78002B00D1A6E600211E
:100C8000094BD9741A7539E7200004F035FDE7E700
:100C9000200004F051F8012800D12FE79FE6C0465C
:100CA0009C3CFF1F683CFF1F843CFF1FF7B52A4B8D
:100CB0002A4819789C235B004B431C182700E288C4
:100CC0008437013292B22281397801293BD1210047
:100CD00086310988914236D188331918200004F0F2
:100CE000EBF8E289238925009B182200A3818A3230
:100CF0001088E38E8C351B1801932B882600E38621
:100D0000230088331A78563B1A708E3633882000B9
:100D1000238704F0A1F800233B70230090331B8845
:100D200029881B093288E078490802F0F3FF019A0C
:100D30000B4B53430B4A10685268801A8008181AEC
:100D40000A3804F0F9FC200004F036FA200003F021
:100D5000B3FF0020FEBDC0464D12FF1F6C1DFF1FDC
:100D60007102000000100240F0B587B004F0DCFC16
:100D70000126002822D003F0EFFF842303215B002B
:100D800043434E4A0590D3184D4A4E4D9B181B883D
:100D90001A0A0B40039308D08B4216D0002A10D0B9
:100DA0002B0074331B78002B0BD100263D2128002B
:100DB00003F0FAFF444A136D01331365300007B0A6
:100DC000F0BD4149CB6E0133CB668424059B6400A2
:100DD0005C433E4BE418394B1C19D3B204932B00EF
:100DE00096331B78002B10D0049B0399043BDBB295
:100DF0000493049A2300280004F0EEF9061E04D19F
:100E00003D21280003F0D0FFD8E7039B2E4F032B92
:100E10001CD0FB6C049A0133FB647523EB56E87815
:100E200021000093039B03F055F98423059A5B008E
:100E30005343224AD318264A991800220A602049AF
:100E40005B181A8004F010FB0126B7E7BB6C013376
:100E5000BB6404F009FB1F4B1A481B78082B03D115
:100E6000210003F009FFEFE722780D2A03D81A4B7F
:100E7000D340DB0710D4030074331B78002B0BD155
:100E80000300F4331E78002E06D13D2103F08CFFC1
:100E90003B6D01333B6591E72100280004F034F9F4
:100EA0008423059A5B005343044AD318084A9918CF
:100EB00000220A6002495B181A80C5E7E81EFF1F7E
:100EC0005C0B00006C1DFF1FD03BFF1F5E0B000082
:100ED000580B00001D12FF1F4C20000010B50D4BD9
:100EE0001B681A780323824211D9EFF3108272B67D
:100EF000094B1B681B68002B04D040001B18188886
:100F00000143198082F3108803F050FA002318007F
:100F100010BDC0460C08FF1F1008FF1F030010B5CE
:100F2000FF339A7F5B7F002902D1074C6271A37166
:100F3000C07802F0D3FF054B1878002803D0044B8B
:100F40001988FFF7CBFF10BD843CFF1F9012FF1FD5
:100F50009212FF1F0B0073B51A780400901E013126
:100F6000152800D968E1FDF7D5FD9C006701160042
:100F70004000430054016701600067015800790098
:100F80005A00670167016701670167016701A400F3
:100F9000D700FE003B012500A0350822280004F000
:100FA000A3F906000821280004F046FB31002600C2
:100FB00098360422300004F097F90421300004F040
:100FC0003BFB2300220021009F33BF32973118786A
:100FD000013B107001328B42F9D122002000C73250
:100FE000D730290003F0F8FD73BDF93401230FE079
:100FF000230001226A331A709A728C331A70E078D7
:10100000F43423780021934204D102F02FFF00230F
:101010002370E9E702F012FFF9E7F734E6E75A78C0
:101020002300F5331A70FA34E0E70822684604F02A
:101030005BF9220001238248FC32C15CD1540133A8
:10104000092BFAD16B4601211B780B4203D1FD34E9
:1010500023788B43237001231370C5E72500FF35E8
:10106000AA79012A03D10C23AB74072115E02000D3
:10107000991C5B780B306B720222FF3004F034F95C
:10108000010020000D300222FF3004F02DF9012371
:10109000AB712B7A0C21002BA6D1200003F08CFD24
:1010A000A2E75A782300FF335A7401221A211A74D6
:1010B000F3E72200FC321378002B09D02300FD3324
:1010C0001B789B060CD423001422FF339A74CCE7C0
:1010D00001235B4DE85CD0540133092BFAD1EDE7D5
:1010E000584D2B7E002B00D07EE70222564804F09C
:1010F000FBF802220100554804F0F6F80222010034
:10110000534804F0F1F802220100524804F0ECF8D0
:10111000012315212B76C0E72300FD331B789B06A6
:1011200003D423001522FF33D0E7464D6B7E012BFD
:1011300000D059E70222444804F0D6F80222010008
:10114000424804F0D1F802220100414804F0CCF8F2
:10115000022201003F4804F0C7F8E07804F03CFBAD
:1011600000236B7640E72100FC310A78002A09D081
:1011700022000921FE32107808420BD123001622EA
:10118000FF33A3E701222E4DA85C88540132092ABF
:10119000FAD1EDE7304D297D012909D021009231A6
:1011A0000978012904D0210084310978012903D16B
:1011B0002A4B1121938370E7EA7C002A00D013E7C1
:1011C0005A786A729B78AB722B782B726B786B7340
:1011D000AB78AB73E07804F01FFA0123EB7403E7FC
:1011E0002200FE3211780922114203D123000E326F
:1011F000FF336BE7184D2A7D012A00D0F4E65A78B8
:101200006A739B78AB73E07804F006FA00232B75C1
:10121000EAE60C4D6B7E002B04D0E07804F0DCFA9B
:1012200000236B760C4D2B7D002B00D1DCE61A21C0
:101230002000FFF773FEE9E72300FF3346E7C046CF
:10124000A41EFF1F683CFF1F743CFF1F763CFF1F5E
:10125000703CFF1F723CFF1F843CFF1F0116000003
:10126000F7B50400230022007F331B787B32002B6C
:1012700039D010781A28FAD8FDF742FC3C006700F4
:101280001B007C00F9FFF9FFDA001F021B01480177
:10129000F50009015901F9FFF9FFF9FFF9FFFB0119
:1012A000F9FFF9FF8C01A801BD01F9FFD201F9FF97
:1012B000260226007A363578012D16D1BC4B9B7854
:1012C000002B07D0200003F0E7FE1621200003F0DA
:1012D0006BFDA2E0220082321388013B9BB2138097
:1012E000002B00D194E0002597E0200003F0CCFD16
:1012F0003070F8E725007A352A78012A20D1AC4BE6
:101300009B78002B14D0210088310B785B000B7088
:101310004B885B004B808B885B008B800B891B01AB
:101320000B81230084331A70200003F0B5FE99E787
:101330002300228986331B889A42D4D1282168E071
:10134000200004F089F82870CDE725007A352B7845
:10135000012B0BD1964A9278002A03D022009232B8
:101360001370E1E7230022899433E4E7200003F0BF
:10137000ABFDE8E7250026007A352B78F936012BFE
:101380004DD18B4BDB78002B03D02300002274332C
:101390001A703278012A0BD123000021EC33196036
:1013A0005960563B1A700631200003F00DFE59E7D4
:1013B0002300FA331D78012D14D1200003F06CFEB8
:1013C0002300002296331A702C3B1D709D728B33C4
:1013D000E078197880B2062902D102F02FFD41E7AA
:1013E0001A21FAE72300FF331B7C012B9CD023003A
:1013F00082331A88013A92B21A80002A00D072E72A
:1014000072331B78E0782221012B4BD102F02EFDA4
:101410002221200003F0C8FC01252800FEBD200089
:1014200004F0C2F828700025FA3435702570F4E70E
:10143000250026007A352B78F636012B0CD133782F
:10144000012BD4D1200003F027FE22000023F83224
:1014500033801380937005E7200004F0E5F92870CD
:1014600000253570D9E7250026007A352B78F73628
:10147000012B08D13378012BB9D1230000229633F8
:101480001A700B2190E7200003F016FBE7E7250018
:101490007A352B78012B08D1454BDB78002BA6D071
:1014A000032181E702F0CAFCB2E7200003F014FC3C
:1014B00049E7270026007A373D78FC36012D19D1FF
:1014C0003378012B06D12200E178FD32002002F0B2
:1014D00049FC29E7220082321388013B9BB213802A
:1014E000002B00D0FFE67B32E178222002F03AFCAC
:1014F0002221EBE601232F49CA5CF2540133092B68
:10150000FAD1200003F090FC3870A9E725007A3565
:101510002B78012B07D1264AD278002A00D1D9E6B0
:101520002200FC321CE7200003F04EFC0BE72600F3
:1015300022007A363578FF32012D25D19379012B9F
:101540000ED1D379012B00D0EEE62000FE30838946
:10155000C089527AE1780090002002F027FCE3E68F
:10156000210082310B88013B9BB20B80002B00D005
:10157000B9E62000FE308389C089527AE178009074
:10158000222002F013FCB3E701232000137203F0C2
:101590004BFBADE625007A352B78012B0ED1044AA2
:1015A000D278002A00D195E6034A5376BCE6C046BD
:1015B0009C3CFF1FA41EFF1F683CFF1F200003F080
:1015C000EBFB28700025454B5D7626E725007A3534
:1015D0002B78012B0BD1424BDB78002B00D179E625
:1015E00000223E4B1A76E07804F0F6F89CE62000E4
:1015F00003F0DAFAA7E625007A352B78012B07D11C
:10160000374AD278002A00D164E6364A13758BE651
:10161000200003F061FD28700025324B1D75FCE6AB
:1016200025007A352B78012B1FD12D4A9278002A7C
:1016300016D08E225200A15A2A4D00290CD1230027
:101640006A79FF335A77AA7920009A77FFF766FC08
:1016500000232B75EB7467E690225200A354F7E742
:101660002300FE3322899B8C66E6200004F01CF8E0
:1016700069E625007A352B78012B08D1184AD278F3
:10168000002A00D126E62200FF32D3764CE6154B25
:101690001B7D012B04D12321200003F0ADFA52E67B
:1016A000230092331B78012B05D0230084331B7851
:1016B000012B00D017E62A21EEE7200003F03CFBC7
:1016C000012800D130E60EE6054B9D78012D00D0B3
:1016D00009E62300FF33597CF8E5C046683CFF1F4C
:1016E0009C3CFF1F843CFF1F0023F7B52B4C0500DB
:1016F000A189A3761A293AD94823E289FF339A426D
:1017000035D926891A2E32D9608998422FD9A78ACD
:101710003B1CB74200D9331CA7889EB2B74202D007
:10172000A3800123A376E68A331C864200D9031CDA
:10173000E68898B2864202D0E3800123A376208A0D
:10174000031C884200D90B1C208899B2884202D021
:1017500023800123A376618A0B1C914200D9131CBC
:1017600061889AB2914202D063800123A37603F08C
:1017700023FBA37E002B07D0E088A3886288218802
:101780000090280002F08AFB054B1878002803D04F
:10179000044B1988FFF7A2FBF7BDC046683CFF1F4A
:1017A0008C12FF1F8E12FF1F70B50500EFF310861D
:1017B00072B6E96E154C002907D08B1D0A792800F6
:1017C000497903F0C1FA002805D02378002B11D104
:1017D00086F3108870BD28006C3003F035FF03F0ED
:1017E00063FB23780A4A0133116FDBB22370CB18F5
:1017F0001367DEE7074A12789A42E9D88021064B40
:10180000C9011878FFF76AFBE2E7C0461E12FF1F06
:10181000D03BFF1F1F12FF1F1C12FF1FF0B59C249F
:101820003E4B64001F783E4D7C43641926893D4B36
:10183000E6809A7985B094461A7A00926A461088B2
:101840009A7A01925A7A01990292DB7A22000393E2
:101850006346C3185B180299FE325B1803995B1844
:10186000918A5B189382D38A0199C018138BD08216
:101870000133138363460B4302990B4303991943C6
:101880009C235B00002902D1617800292CD0002123
:101890007B43EB18DA891971B6189E81224B9A7C2A
:1018A000012A03D120009974FFF738FB03F03CFFB5
:1018B00000260090009BB34203DD03F0CDFC00281E
:1018C00029D19C235B007B43ED18AB78002B1CD007
:1018D000200003F099F9012817D002212000FFF71A
:1018E00063FF03F0A1FE10E0009800280FD02171E3
:1018F0007B43EB189A89B242D8D11B790821002B7F
:1019000000D03E21200003F04FFA05B0F0BD518B0E
:1019100001315183ECE70136CCE7C0464D12FF1F81
:101920006C1DFF1F9C3CFF1F843CFF1FF7B59C21D3
:101930007D4B49001E787D4B71435C18A378002BCA
:1019400000D1CBE022897A48E280457A83792B4323
:10195000857AC07A2B430343744D04D16078671CA9
:10196000002800D19BE09C235B0073436F49CB1898
:10197000D98952189A8100221A715A1CD27F012AE1
:1019800001D1DA8C5A846B4B9A7C012A04D1002154
:1019900020009974FFF7C2FA654B5B78002B26D0C4
:1019A000654B1B68DB6A9B0706D59C2301225B0005
:1019B0007343EB180133DA779C235B007343EB1816
:1019C0001A007A321278002A11D11A008432127861
:1019D000002A0CD11A0092321278002A07D11A007C
:1019E0002132FF321278002A01D1DA8C5A849C27E6
:1019F0007F003B007343EB181979002901D00022C6
:101A00005A8403F091FE0190002800D076E09C23D8
:101A10005B007343EF180193BB78002B5ED020006E
:101A200003F0B2FD012859D002212000FFF7BCFECF
:101A3000019BEA5C00239A4202D0BB697A699B1839
:101A40009C2252005643AD19AB6103F0D5F9012831
:101A500044D003F011F8394B1C6884425FD2041B58
:101A6000314B1A789C235B005343304AD318344AD5
:101A7000DD691288334B013255435D432800FEF780
:101A80000BFE314B18687330FF300419AC4202D39F
:101A9000C820002C00DA281B03F04EFE1EE0234B6A
:101AA000CB5C002B1BD02100FE314B8B01334B83D1
:101AB00060849C235B007343EB189989914200D0AA
:101AC0006AE71B79214D002B01D0052A0ED0082191
:101AD000200003F069F92B6C01332B64F7BD2371EF
:101AE000FB7F012BE5D1E38C6384E2E73E212000FC
:101AF00003F05AF96B6C01336B64EFE73B0000278E
:101B00007343EB180133DF77019BBB4200DC7EE7B8
:101B100003F0A2FB002800D179E70137F4E70C4B72
:101B2000041BE4189CE7C0464D12FF1F6C1DFF1FED
:101B30009C3CFF1F843CFF1F386F00205C12FF1F7E
:101B4000B0560020710200006012FF1FD03BFF1F43
:101B500040420F00F8B503F057FC03F015FE862055
:101B6000400003F021FB254C00252100244B32319D
:101B70001D720B7820005B000B70A38E5B00A386A8
:101B8000E38E5B00E386638F1B01638703F094F9A8
:101B900005232000A38103F05FF99C22194EE58004
:101BA0002581337852005343174AE01807009B18E9
:101BB000802201213D37920181709A803D7003F0AF
:101BC0009BFB0822114B38701A7033783132FF3288
:101BD0005343E418A38E0E4858430E4B1B68A4339E
:101BE0001B68C0180C4BC01803F0A6FD80210B4BDE
:101BF00009011878FFF772F9F8BDC0466C1DFF1F88
:101C00005A1DFF1F4D12FF1F8C1EFF1F1D12FF1FAD
:101C100071020000386F00207A0500001C12FF1FBF
:101C200070B5EFF3108572B616480369DB0701D56E
:101C300003F032FD14480369DB0705D503F02CFDE2
:101C4000124A13680133136011480369DB0709D591
:101C500003F022FD0F4A13680133136002F08CFF7A
:101C600002F0A4FB0C4C2369DB0707D5200003F02E
:101C700013FD200003F050FA03F066FA85F3108894
:101C8000002070BD3C100240281002403C10FF1F95
:101C9000141002404010FF1F00100240F0B5002851
:101CA00010D0094A09495368094E9B08CC1A9D1E59
:101CB0009E1953689B08CB1AEF189C4200D8F7185E
:101CC000B842F6D2F0BDC0462810024042420F0092
:101CD000BEBDF0FFF0B58BB0EFF31083059372B685
:101CE0009C25644E644F73686D009B080293029AB2
:101CF000624B634C9B1A04933B786B43E318D88E7A
:101D0000604B58430A3803F017FD5F4A0696D36DBF
:101D10000133D3653B785D4A5D4364193D342378D4
:101D2000B8335B00D3185A8801325A80584B554A51
:101D30001B6807925C6D9B6D0393631E072B00D994
:101D40000424039B013B072B01D9042303939C2606
:101D500003F022FC4F4D76002878C0B203F05CF807
:101D60002878C0B203F000FD03F0CEFA02F0E4FEE2
:101D7000414F434D3B787343EB18D86A03F034FA74
:101D80003B787343EB18986A03F0A6F83B787343EB
:101D9000EB183D33187803F02FFC3B787343EB18B6
:101DA0003D33187803F020F93A78394B5643AE1991
:101DB000F08E344A1B6842431000374AD288801A9A
:101DC0001A00A833F83212681B68801A984200D9AA
:101DD000180003F049FC042002F036FF072002F04F
:101DE00033FE0E2106ABC918200003F005F9224985
:101DF000C2B208789C21490041436B4600206D180F
:101E00002535FF351B7B29780190013000901F306C
:101E100002F0AAFF069B194A5B689B08D31A049A32
:101E20009A4224D21D49029A8C466244D318184A19
:101E3000002012681100B8310968B43212685B18CA
:101E40009A4200D9D01AFFF729FF124B1878C0B276
:101E500003F012F903F068FA0122114B1A60059B96
:101E600083F31088122003F067F80BB0F0BD029ADC
:101E7000023ADBE7281002404D12FF1F42420F00DA
:101E80006C1DFF1F71020000D03BFF1F203DFF1F94
:101E9000386F0020E212FF1F683CFF1FBEBDF0FF3D
:101EA0005812FF1FF7B500249C2503F0ADFA724BC2
:101EB0006D001C8003F068FC704E714B30789C8084
:101EC0006843704C283004226F49001903F00CFA63
:101ED000337801006B432C331819032203F004FA02
