:020000041104E5
:10B00000789DFF1FC148FF1F0000000000000000E6
:10B010000000000000000000000000000000000030
:10B020000000000000000000000000000000000020
:10B030000000000000000000000000000000000010
:10B040000000000000000000000000000000000000
:10B0500000000000000000000000000000000000F0
:10B0600000000000000000000000000000000000E0
:10B0700000000000000000000000000000000000D0
:10B0800000000000000000000000000000000000C0
:10B0900000000000000000000000000000000000B0
:10B0A00000000000000000000000000000000000A0
:10B0B0000000000000000000000000000000000090
:10B0C000002080F314880A4885460A490A4A00206D
:10B0D000521A002A04D008600431043A002AFAD136
:10B0E000064880470648804706488047FEE700003C
:10B0F000789DFF1F7895FF1F90C5FF1F21FF051149
:10B10000A1150611C915061170B50C4C2368002B4A
:10B1100013D003F09FFA050004F03AFA60612000B2
:10B1200000F05CF90100200000F014FA002801D0C2
:10B1300004F0FEF9280003F091FA70BD9049FF1F5A
:10B14000034B10B59B6B002B00D0984710BDC04639
:10B150009049FF1F70B50A4D2B78012B0FD0094C79
:10B160003C220021200004F0C3FA074804F008FA4A
:10B17000200000F01BF9054BA36301232B7070BD69
:10B18000B8B0FF1F9049FF1FA849FF1F0949FF1FC3
:10B1900000000000000000000000000000000000AF
:10B1A000000000000000000000000000000000009F
:10B1B000000000000000000000000000000000008F
:10B1C00000000000000000000000000070470000C8
:10B1D0001A2210B511000123054803F08EF904F07E
:10B1E000AFF9044B0321186802F04AF810BDC046BD
:10B1F00014F0004040B3FF1F10B50400012004F01C
:10B20000A7F9114B11491A6848680023904201D2EE
:10B210004B68D31A0E4A136004F022FA0D4B0E4A03
:10B220001860031919000831914203D909331B0230
:10B230001B0AE41A094B00191860A423084A5B038F
:10B2400011680B43136010BDB012FF1F281002409D
:10B25000B412FF1F44B3FF1FFFFFFF002CF000409C
:10B2600024F00040F8B5424B04001B68DB6ADB07A2
:10B2700032D5404B404A1B6840489B049B0C93428C
:10B2800041D93F495918C72941D83E498B4200D975
:10B2900003683D4A3D4F15683D4E94463968B542B6
:10B2A0004ED83C4A9E18C4225200964200D90B0048
:10B2B0000360634601351D600368072041432E4A41
:10B2C000C918C9083960D908934247D92C4A9B1834
:10B2D0006343DB088B423ED80622002311002E4830
:10B2E00003F00BF92000FFF787FF002004F018F9A6
:10B2F00001232A4A11680B431360294B294A1A601B
:10B30000FFF766FFF8BD1C4AD11AC729C1D9264AE2
:10B310001F035E029D01914208D88022E9191201A3
:10B320008918891BDB00CB1A1B0BAEE780221901A1
:10B33000C91912018918891B1B02CB1A5B1BF3E781
:10B340000D0A6E189E4204D34D1B9D4201D8036026
:10B35000B2E70B00FBE75B1A013CBBE7064AD21AD7
:10B360006243D2088A42B7D9521A0134FAE7C0467A
:10B3700068C2FF1F64F00040420F0000D412FF1F9C
:10B38000BEF0FFFF06100000C812FF1FAC12FF1F27
:10B39000E703000082F1FFFF1CF00040A8F000402E
:10B3A000A412FF1FB6412103AF020000002110B517
:10B3B0000400080001F052FF054B18600223002032
:10B3C00023603033E360034B2361034B187010BDDF
:10B3D00040B3FF1F1027000038B3FF1FF7B50190DF
:10B3E000EFF3108372B64E4A4E4E10783360002849
:10B3F0004FD14D4F3A68002A03D083F3108830BFF5
:10B40000FEBD4A4D2B68DB6ADB0715D504F028F931
:10B41000474B1B6883420BD8C01A2B688C331B68C0
:10B42000834209D9336883F3108830BF0020E7E7EF
:10B43000C01A404BC018F0E704F012F92B683D4CDD
:10B44000DB6A201ADB0727D53B4A3C4913685C18A6
:10B45000C42149008C4201D9394B1B68040C80B2CD
:10B460005C43136043436402DB09E41804F0C8F84A
:10B47000FA239B005843002802D0844200D90400DC
:10B4800003F0D6FF2F4A304B12691860D2070ED551
:10B49000336883F31088C9E784004200C301A4180D
:10B4A0001C1BC3001818A408400A2418DEE7274A0A
:10B4B0001278002A02D12A6852691A601B68009328
:10B4C000019B586903F0BCFF214B1B78002BA9D0CE
:10B4D0003B68002BA6D1009AA24200D92200FA2391
:10B4E0009B005843904200D910002A68D3699169A3
:10B4F0005918814296D8C31A5069984200D9180049
:10B500004209430A9B18820B9B18C20A9B1A420CE1
:10B510009B1AC00C181AFFF7A5FE032070E7C0465F
:10B5200038B3FF1F3CB3FF1F5812FF1F68C2FF1F35
:10B53000A812FF1FFFFFFF00D412FF1F82F1FFFFC1
:10B54000AC12FF1F00100240D010FF1F1D12FF1F82
:10B55000DC8FFF1FF7B5081E00D1AFE000231122DA
:10B560001521654802F0C9FF644A654B12689A428A
:10B5700007D0002003F0F4FF0221624A13688B43D6
:10B58000136003F081FC03F04BFF5F4B1B6883F3F8
:10B5900010885E4B1878C0B203F06AFF10215C4D32
:10B5A0002B68DC6A0C4000D189E05A4B07225248D4
:10B5B00002F0A3FF012306224F48110002F09DFF75
:10B5C0000023554C0120A3600233A360534B23603A
:10B5D00003F0BEFF0323A36004F042F8040004F06C
:10B5E0001FF8019004F03CF84D4B186003F058FF31
:10B5F0004C4B1B68A3426AD2E31A2A68D16AC90776
:10B6000069D549491C0C09689BB24C4359436402F3
:10B61000C90964180320FC329368444A44491268FB
:10B620000E689B1A434A444D12689B183B4A9A186D
:10B63000034092089B192A600B60042B03D9013246
:10B6400003402A600B602B683C49E618300003F089
:10B65000DFFE3B4F39493B68C3183B603000009325
:10B6600003F056FF374E3368C818344930608842BB
:10B6700005D9009B01333B6003F04AFF316004F0C1
:10B6800057F803F0CDFF304B019A1B68A21A12182D
:10B690009A422DD2019A9B181B1B181A03F0F8FE30
:10B6A000022003F03DFF002003F05AFFFA21286832
:10B6B0008900201803F0ACFE04F042F8FEBD03231D
:10B6C000082209210C4802F018FF230073E71F4AE3
:10B6D000E31A9B1891E7DC0198000234241A580001
:10B6E000241AD8008033C318A4085B0AE41891E731
:10B6F000FA208000D2E7C0461CF00040A412FF1FD1
:10B70000B6412103100000403CB3FF1FE212FF1FAF
:10B7100068C2FF1FFB03000014100240C4090000B0
:10B72000A812FF1F44B3FF1FD412FF1FB812FF1F40
:10B73000C012FF1FB412FF1FBC12FF1F71020000D6
:10B740004010FF1FC412FF1FD010FF1FFFFFFF009C
:10B750002948016A81F30888416A81F30988FFE773
:10B760002548011C1030F0C8A046A946B246BB4689
:10B77000F0C9026882F30888426882F30988826807
:10B780009646C26882F30388026982F31088426990
:10B7900082F31388826982F31188C26982F3148864
:10B7A000012070471448F0C044464D4656465F4657
:10B7B000F0C0EFF308810160EFF309814160714649
:10B7C0008160EFF30381C160EFF310810161EFF35A
:10B7D00013814161EFF311818161EFF31481C16144
:10B7E0000548011C1030F0C8A046A946B246BB4629
:10B7F000F0C900207047000074C2FF1F0000000065
:10B800000000000000000000000000000000000038
:10B810000000000000000000000000000000000028
:10B820000000000000000000000000000000000018
:10B830000000000000000000000000000000000008
:10CC50000000000000000000002330B5934200DB1C
:10CC600030BD9C000D192D6801330551F6E7000019
:10CC70000421044B044A013B002B02D010680842F7
:10CC8000F9D0704781969800900008110022032186
:10CC9000054B1A60054B1A6032321A60044A116063
:10CCA00007221A607047C046880008118C000811DE
:10CCB0009000081110B5FFF7DBFF0022034B1A604C
:10CCC000034B06321A70FFF7D3FF10BD880008111E
:10CCD0000000081110B5FFF7CBFF0022034B1A60CC
:10CCE000034B04321A70FFF7C3FF10BD8800081110
:10CCF0000000081170B50124FFF7BAFF044B054D81
:10CD00001C6005232B70FFF7B3FF2878204070BD0F
:10CD1000880008110000081110B5044C013C002CDB
:10CD200003D0FFF7E7FF0028F8D110BD81969800E7
:10CD3000F0B5070093B01400402A00DD74E0002A2B
:10CD400048D0002318009A0002AD01335051102B37
:10CD5000F9D1002318259C4224DC032323405A1ECA
:10CD60009341A510ED18EFF3108672B6FFF7D4FFCC
:10CD7000FFF7A0FFFF2338041B0418403B0CDBB275
:10CD80001843FF231B021F400223002238430002E6
:10CD900018432649264B0A601860042C10DC029ABE
:10CDA0001A6011E0CA5CDE002E40B240981080008C
:10CDB00002AE865901333243019602AE8251CAE770
:10CDC000402C10D0954208DCFFF7A6FFFFF782FF4A
:10CDD00086F31088200013B0F0BD910002A8095816
:10CDE00001321960EEE7029A1A60039A1A60049AF7
:10CDF0001A60059A1A60069A1A60079A1A60089AC9
:10CE00001A60099A1A600A9A1A600B9A1A600C9AA8
:10CE10001A600D9A1A600E9A1A600F9A1A60109A88
:10CE200001921A60119ABBE70024D3E78800081129
:10CE30000000081170B50500EFF3108472B6FFF71B
:10CE400017FF04220B4B28041A60FF231B04184011
:10CE50002B0CDBB21843FF231B021D400323284386
:10CE60000002054D18432860FFF702FF286884F38D
:10CE7000108870BD880008110000081170B5050009
:10CE8000EFF3108472B6104B18421CD0FFF744FF2A
:10CE9000FFF710FF00220D4B28041A60FF231B042C
:10CEA00018402B0CDBB21843FF231B021D4020232C
:10CEB000284300021843064B1860FFF72DFFFFF7C9
:10CEC00009FF84F3108870BD00E0FF00880008119E
:10CED0000000081110B50024A0421BD188230E4C7D
:10CEE0005B0523600D4B012263608023A3608023D8
:10CEF0005B01E360802303205B002361E161013B70
:10CF0000A1182376CB7F62618343CB77044B1A70E1
:10CF1000FFF7BCFE200010BD0CB3FF1F000008117E
:10CF200030B3FF1F002805D00023C3611800024A58
:10CF3000137070470148FCE730B3FF1F840019816C
:10CF4000F7B51700002832D0002A30D0002B2ED0A1
:10CF500005688D422BD844688C4228D34A1ED218CB
:10CF6000954224D8944222D30130C27FD40720D4E2
:10CF7000124C2478002C1ED009020D0A02218A438B
:10CF8000C27703229C0813405A1E9341E4188C4038
:10CF90002E0063190193019BB34201D12000FEBD15
:10CFA0003000FFF747FF7B1B98510436F3E7044836
:10CFB000F5E70448F3E70448F1E7C04630B3FF1F44
:10CFC000840019818100198180001981F0B585B034
:10CFD0001E0001901700031E67D0002A65D0002EA6
:10CFE00063D00068884260D85A688A425DD34B1E7D
:10CFF0009B19984259D89A4257D3019B5D1C012333
:10D00000EA7F1A4253D12C480078002851D00320DF
:10D01000824313433F220C02114003914021EB77DE
:10D02000039B240ACB1A029335009E4205D8320096
:10D0300039002000FFF77CFE2EE039002000029A24
:10D04000FFF776FE029BE418FB180293039B270070
:10D050009B191E00403E0393402E02D832000299D5
:10D06000E7E7029B3800191BC9194022403EFFF731
:10D070005FFE40373F2EF4D8039E2000803E3F23C2
:10D080003400B2099C43511C029B4030890192013B
:10D0900020185918B21ACDD10121019B0133DA7F32
:10D0A0008A43DA77280005B0F0BD044DFAE7044D55
:10D0B000F8E7044DF6E7C04630B3FF1F840019813E
:10D0C0008100198180001981F8B5036805008B4241
:10D0D0001FD843688B421CD3461CF37F01271C00DA
:10D0E0003C4018D10E4A1278002A16D003229343EE
:10D0F0003B430902F377080AFFF7C0FEF37FBB4307
:10D10000F377EB69181E03D0200021009847200018
:10D11000F8BD0448FCE70448FAE70448F8E7C046CD
:10D1200030B3FF1F840019818100198180001981AB
:10D13000031E04D0034B1A78131E00D003001800FE
:10D140007047C04630B3FF1F10B501F035FA00F04C
:10D15000C1F801F04BFA10BD10B501F02DFA002016
:10D1600002F01EFA01F042FA10BD0000194A1A4BF3
:10D170005168196012685A60184A51689960D169FB
:10D18000D960116A1961526A5A61154A1168996128
:10D19000C02189005158D961C121890051581962B3
:10D1A000C221890051585962C3218900515899629E
:10D1B000C42189005158D962C52189005158196389
:10D1C000C621890051585963C721890052589A6372
:10D1D0007047C04610E000E0C0B2FF1F00ED00E065
:10D1E00000E100E0194B1A4A196801205160002142
:10D1F00091605968404211609968164A5160D96837
:10D20000D16119691162596951629969124A1160B3
:10D21000C02149005050D86949185050186A04314B
:10D220005050586A04315050986A04315050D86AAE
:10D2300004315050186B04315050586B0431505029
:10D24000996BC7239B00D1507047C046C0B2FF1FE7
:10D2500010E000E000ED00E000E100E00023984273
:10D2600005D1044B044AD9600449187011601800B4
:10D270007047C046FCB2FF1FF808FF1F514FFF1F49
:10D2800010B5052905D8080001F0A4FB0E1C1C10E0
:10D29000051C0D4810BD06220C480023110001F0AA
:10D2A0002CF9022002F0DCF80020F3E7FFF75EFF24
:10D2B000FEF778FA002802D1013002F0D1F8FFF72A
:10D2C00091FFF1E70248E5E7840014811CF000407B
:10D2D0008300148101220023054970B50C684D6854
:10D2E00012196B410A604B6001F0EAF870BDC0464C
:10D2F000B8C2FF1F024A034B9B1A034A5360704790
:10D300006000002000280120D48FFF1F7047704765
:10D3100070477047704710B500F005F810BD10B5A4
:10D32000FDF70EFF10BD7047F0B51E0085B00A9BDB
:10D3300004007343170003930520002E1FD0002B19
:10D340001FD023000025226101224033A160246008
:10D3500064606563A563266325731A7001F07AF92A
:10D3600001F07CF904232000637314302B00009635
:10D37000039A390000F057FA2800636AE36305B0A6
:10D38000F0BD0148FBE7C046BD020000F8B504004F
:10D390000F00150001F05EF9637B0600042B04D03A
:10D3A00001F05CF908252800F8BD236B9D4203D9E4
:10D3B00001F054F91D4DF6E7002D03D101F04EF9AF
:10D3C0000535F0E723689C421ED120002A00390071
:10D3D000143000F0CBF8051E06D0300001F03EF905
:10D3E0006A2DE0D1124DDEE7636BA26B01336363FC
:10D3F000934200D9A363636AE26B9A4200D9E36364
:10D40000300001F02BF9CEE70C3B1C002A0039005C
:10D41000D86B01F0E9FA2564200000F05FFB3000D2
:10D4200001F01CF9002500F04DFCBCE7BF02000034
:10D43000BE020000F0B585B00293050001920B9E7C
:10D4400001F008F9304B04001B78002B09D0019B38
:10D45000029A134305D001F001F92C4C200005B0CD
:10D46000F0BD6B7B042B04D0200001F0F7F80824FA
:10D47000F4E72F001437380000F026F90390002855
:10D480000CD132000A99380000F027F96B6B2000AC
:10D49000013B6B6301F0E2F8039CDFE7019B029A1A
:10D4A000134306D12000C824336001F0D7F864008C
:10D4B000D4E7174B1B780393002B06D000232000E2
:10D4C000336001F0CBF8C824C8E7124F0A9B3968D3
:10D4D000019ACB632800029B00F028FB200001F09A
:10D4E000BDF800F0EFFB01F0B5F80500386800F07A
:10D4F00099FB039B041E01D13B681B6C3360280021
:10D5000001F0ACF8AAE7C0463C5CFF1FEA0300004C
:10D51000E452FF1F5464FF1F70B5FFF7FCFE0124A7
:10D52000002501F097F806490A684B6812196B410B
:10D530000A604B6001F092F8FFF7F1FEF1E7C04698
:10D54000E852FF1F4269012A06D1002301698A427D
:10D550005B41DBB21800704700239A42FAD103699D
:10D56000806983429B415B42F4E70000F0B5040010
:10D5700085B003AF0191150000210322380002F0AD
:10D58000B7F82000FFF7DEFF002802D06A2005B0C0
:10D59000F0BD6369002B13D1E3686268934201D147
:10D5A0002368E360A2690199E06801F01DFAA369AC
:10D5B000E268D218E2602269D31A23610020E6E70C
:10D5C0002BBA7F2D59D801265B005B0E3B70226978
:10D5D000AB199A42DAD36168E3688B4201D12368C0
:10D5E000E360E068A368984266D30B1A0093B342E5
:10D5F00062D2002B0DD01A00390001F0F5F9009B22
:10D60000009AF61A2368E36023699B1A2361002EAF
:10D610000BD0009B3200F918E06801F0E5F92369AE
:10D620009B1B2361E3689E19E6606668E368B3426A
:10D6300001D12368E360E068A368984211D3361AE9
:10D64000B5420ED9002E0CD03200019901F0CCF970
:10D65000019BAD1B9B1901932368E36023699E1B0B
:10D6600026612A000199E06801F0BEF9E3685B19C0
:10D67000E36023695D1B2561A0E7114A954209D843
:10D6800080221902090E52420A431B0E3A707B7027
:10D6900002269CE70B4A0520954200D977E74022F5
:10D6A0001904090E52420A433A701A02120E1B0E56
:10D6B0007A70BB7003268AE700230093A9E7C0466F
:10D6C000FF3F0000FFFF3F004368026800699B1AAC
:10D6D000181A43425841C0B27047F0B5040087B0F1
:10D6E000019102920021032204A802F001F8200017
:10D6F000FFF7EAFF6B2300282ED16268A36800922F
:10D700006269002A16D1009A934201D12368A3606E
:10D71000A269A168019801F067F9A269A3689B1842
:10D72000A36023699B182361029B002B14D01A600D
:10D73000002311E0009A934201D12368A360A168FD
:10D740000A7853B2002B0ADA3F239A43802A5ED02C
:10D750003A3B0326C02A03D0180007B0F0BD0126CB
:10D76000009B5D1AAE4254D9002D08D027692A00CB
:10D7700004A801F039F92368EF19A3602761A368B1
:10D78000771B039304ABE8183A00039901F02CF9D6
:10D79000039B3200DD192369A560DF19002305937F
:10D7A00006AB27619F1B04A9380001F01DF9012E6B
:10D7B00003D03F223B7813403B70059B1FBA029B6E
:10D7C0001F60009B9D4201D12368A360A168E368AC
:10D7D000994210D9009B5D1ABD420CD22A000198D3
:10D7E00001F002F9019B7F1B5B1901932368A36081
:10D7F00023695D1925613A00A168019801F0F4F8E8
:10D80000A368DB19A3602369DF19276190E702266B
:10D81000A6E70025B3E7036842688360C360D31AB4
:10D8200003610020704710B54361029B01608918B5
:10D8300041608361FFF7EFFF002010BD030001226C
:10D840001860586081601A77802200209200186169
:10D8500058619A817047030010B568331C78503BBB
:10D8600020001A68002A00D110BD8A4202D14A69FC
:10D870001A60F6E713689A4201D05B331C78031CE8
:10D88000A04200D9231CD8B213001433E9E710B525
:10D890000400FFF7E0FF230067331B780100834299
:10D8A00002D0200001F00CFE10BD000070B5040095
:10D8B0000620002C09D000F0CDFE164B05001B7889
:10D8C000002B03D000F0CAFE134870BD627B022A11
:10D8D00003D000F0C3FE0820F7E7227F012A03D01F
:10D8E00000F0BCFE0920F0E720696373002802D035
:10D8F0002100FFF7CCFF2068844206D1280000F009
:10D90000ADFE00F0DFF90020DFE70C3800F042F94F
:10D91000F1E7C0463C5CFF1FEA03000010B5C36C92
:10D920005A7B022A0BD11A696730110067310978D6
:10D930000378994203D100211000FFF7A8FF10BD22
:10D94000F7B50193344B05001B8800920024042B8B
:10D9500009D000F07FFE314B06001B78A34204D0B3
:10D9600000F07CFE2E4C2000FEBD6B7B022B03D012
:10D9700000F074FE0824F6E72A4F2C693B68A342A6
:10D9800010D1AB695A1C07D1274801F0C1FE300005
:10D9900000F064FE244CE6E70133AB6100F05EFE6C
:10D9A000224CE0E7002C08D19A692B616A619D61E5
:10D9B0000123AB6100F052FED5E7009A01990A43BA
:10D9C00004D1C82400F04AFE6400CCE7184A12785B
:10D9D000002A03D000F042FEC824C4E76733197858
:10D9E000230067331B788B4202D9200001F068FDC9
:10D9F000009A019B3968280000F098F8300000F088
:10DA00002DFE00F05FF900F025FE0500386800F0FB
:10DA100009F904002800CDE7B85BFF1F3C5CFF1F3D
:10DA2000EA0300005464FF1F860300008503000022
:10DA3000E452FF1FF8B5244B05001B880020042B7F
:10DA400009D000F007FE214B07001B78002B03D004
:10DA500000F004FE1E48F8BD6B7B022B03D000F0E3
:10DA6000FDFD0820F7E71B4B18682B69984205D08D
:10DA7000380000F0F3FDE1208000ECE7AB695C1EAC
:10DA8000AC61002C04D0380000F0E8FD1248E2E759
:10DA90002900FFF7FCFE2E68B54205D12C61380045
:10DAA00000F0DCFD2000D6E70C3E300000F016F858
:10DAB000B3692E616B610123B5613800AB6100F081
:10DAC000CDFD00F0FFF8EDE7B85BFF1F3C5CFF1FEA
:10DAD000EA0300005464FF1F8503000070B50500D1
:10DAE00048352B780400022B05D0042B16D00120DA
:10DAF00001F00EFE09E0C3680269010013600A48E4
:10DB00005A6000F06FF901232B70200000F086FAB4
:10DB10002200002349321370E36470BDC3680269B8
:10DB200013605A600323EFE7E051FF1F70B50C004C
:10DB30000500E064511C01D1591C02D0200000F006
:10DB400041FA2300022248331A702100104800F0E5
:10DB500077F922002B7B0C32012B05D16B68E56035
:10DB600023611A606A6070BD21002B686731AB4287
:10DB700005D15968E36021610A605A60F3E7180033
:10DB80005B30067808788642F3D81B68EFE7C0461A
:10DB9000E051FF1F70B5050048352B780400022BBB
:10DBA00005D0042B17D0012001F0B2FD09E0C368B5
:10DBB0000269010013600B485A6000F013F9012359
:10DBC0002B70200000F02AFA2300032249331A7038
:10DBD0000023E36470BDC368026913605A600323C5
:10DBE000EEE7C046E051FF1F30B5C26C137B002B3F
:10DBF00015D10169C3680B60596001001368673172
:10DC00009A4205D01C005B3425780C78A54207D9D0
:10DC1000020059680C320161C3600A605A6030BD6D
:10DC20001B68EDE710B549300378032B03D8054A8C
:10DC30005B00985A10BDCA20400001F069FDCA205F
:10DC40004000F7E70A46061130B50C000B006734B8
:10DC500022780C3395002B50CB600B6103005111DF
:10DC60008900F8335B181F21914301228A4019680B
:10DC7000FF300A431A60237842789A4200D94370F1
:10DC800030BD000010B500F0E5FC0B4B1C78002CFB
:10DC900003D000F0E3FC094810BD094A1378C72BF4
:10DCA00003D900F0DBFCCA20F6E70133137000F063
:10DCB000D5FC2000F0E7C0463C5CFF1FEA030000F3
:10DCC000E452FF1F10B500F0C5FC0F4B04001B7899
:10DCD000002B03D0200000F0C1FC10BD0B4B1B78C3
:10DCE000002BF7D10A4A1300FF335B789B00995849
:10DCF000084B0C391960084B18688842EAD0FFF7C6
:10DD000008FB00F0AEFCE5E73C5CFF1FE452FF1FA0
:10DD1000E051FF1F385CFF1F5464FF1F10B500F077
:10DD200099FC0F4B1B78002B03D000F097FC0D489B
:10DD300010BD0D4B1C78002C03D100F08FFCC920C6
:10DD4000F6E7013CE4B21C70002C03D000F086FC26
:10DD5000C820EDE700F082FCFFF7B4FF2000E7E702
:10DD60003C5CFF1FEA030000E452FF1F03003E2259
:10DD7000FF335A700022073B04C09842FCD1704721
:10DD800070B50C0067342378094A9B009A58002A22
:10DD900002D1FFF759FF70BD0A001B580C325D68B5
:10DDA000CB600D612A605A6023789B001A50F2E71D
:10DDB000E051FF1F0B0010B567331B78084A9B002A
:10DDC0009A58002A02D1FFF73FFF10BD0A001B58E6
:10DDD0000C325868CB60086102605A60F5E7C046B3
:10DDE000E051FF1F70B50C0067342678124AB3006B
:10DDF0009D58124A126867321278B2420DD1002D36
:10DE000002D1FFF721FF70BD0A001B580C32586881
:10DE1000CB60086102605A60F5E7002DF1D00A007E
:10DE20001B580C325D68CB600D612A605A60237804
:10DE30009B001A50E7E7C046E051FF1F5464FF1FE4
:10DE40000B0070B567331C78A300C3181A681568F7
:10DE5000AA4209D008000C30824200D11D600A6934
:10DE6000CB6813605A6070BD1F2601250022010097
:10DE7000A643B5401A606311F8319B00CB181E68A9
:10DE8000FF30AE431E604378A342ECD10B68002BF9
:10DE900015D0190C01D11B041032190E01D11B022F
:10DEA0000832190F01D11B010432990F01D19B00D7
:10DEB0000232DB43DB0FD21804D44270D3E72032A6
:10DEC0000431E3E7012001F023FCCCE70300FF333A
:10DED0005B78034A9B001B5889000C3B8B507047B2
:10DEE000385CFF1F10B500F0B5FB134B134C1B68DB
:10DEF00067331B789B001B59002B02D100F0AEFB4F
:10DF000010BD1A001900593212780C39002AF5D0C8
:10DF10001A689A42F2D04A6D002A03D0013A4A6543
:10DF2000002AEBD15B331B789B00E2581268E25069
:10DF30008B6D4B65E2E7C0465464FF1FE051FF1F45
:10DF400070B504000E0000F085FB637B0500012B1B
:10DF500003D000F083FB082070BD2068844213D1F9
:10DF600023695A1C05D1280000F078FBC8208000E6
:10DF7000F2E7626901332361934200D963612800AB
:10DF800000F06CFB0020E7E7002E06D10C38FFF70D
:10DF9000A5FD05E00C38FFF7A1FD20688442F9D10A
:10DFA000280000F05BFBFFF78DFEEBE710B50021CA
:10DFB000FFF7C6FF10BD0000014B1B605B607047A0
:10DFC000485CFF1F1100F0B5194321D011490263CD
:10DFD00043630E684F6834003D00A4185D410E494C
:10DFE0008462C5628C460968614508D0CC680D69B9
:10DFF000A41BBD419D4202D8F5D19442F3D9030040
:10E000004A681C330262C16113604B6063468363DC
:10E01000F0BDC046305CFF1F485CFF1F836B002BC8
:10E0200005D0C369026A13605A6000238363704796
:10E03000F7B506000F0000F00DFB304C050022681C
:10E040006368B6185F412E4B266067601F682C4BD3
:10E050009F424ED0206861683E003B681C3E0193A1
:10E06000B26AF36A121A8B41002B42DC01D1002AFA
:10E070003FD13B002C3318780238042835D800F003
:10E08000A9FC0E3423032E0001233000BB85FFF7CB
:10E09000C5FF31001B48FFF7A5FE019FD7E7300001
:10E0A000FFF7BCFF3B00103B5A681B683100136050
:10E0B00014485A60FFF796FE134BBB853000FFF7FC
:10E0C0002DFC0023F364E8E73000FFF7A7FF3B00D7
:10E0D000103B5A681B6813605A600C4BEDE7032332
:10E0E0003000BB85FFF79AFFD7E7012001F010FB56
:10E0F000D3E7280000F0B2FAF7BDC046305CFF1F3E
:10E10000485CFF1FE051FF1F0102000003020000F6
:10E11000036A0D4AF0B59C460C4C416A13682668A8
:10E120006768934205D15A68426003601060586086
:10E13000F0BD9C69DD69A41BBD418D42F3D801D1BE
:10E140006445F0D81B68ECE7405CFF1F385BFF1F9D
:10E1500002000368481ED0B5052800D96AE000F027
:10E1600039FC0320364C69591A003C321278052AD2
:10E1700016D11C003D342278012A11D09E6ADF6A34
:10E180002E4A1E625F6210685168801979412C4ADC
:10E190009861D9619A601800FFF7BAFF01232370D4
:10E1A000D0BD1A003C321278052AF9D11A003D324E
:10E1B00011780029F4D09968002905D019685868A9
:10E1C000016048600021996000231370E8E79068BF
:10E1D000D16804000C43E3D01C003C342478052CA7
:10E1E000DED11C003D342478002CD9D1D96298624C
:10E1F0001169526919635A63D2E719003C310978F1
:10E200000529CDD119003D3109780029C8D11269FD
:10E210005A61C5E71A003C3211780529C0D11900AE
:10E220003D3109780029BBD13E331B78012BB7D192
:10E230001170B5E7012001F06BFAB1E7385BFF1F01
:10E24000405CFF1F10B501790400052907D103398F
:10E25000FFF77EFF04212000FFF77AFF0121200055
:10E26000FFF776FF10BD0000F0B58BB003AB04AF35
:10E270000193009701225242D3173848FFF7DAF88A
:10E28000040000F027F9002C25D1354B18605960A7
:10E290003800FFF7D7FF334E3468B442E6D000F0C1
:10E2A00019F9A269E369121A8B41002B02DC0ED125
:10E2B000002A0CD003A9019100972848FFF7BAF86B
:10E2C000040000F007F9C9235B009C4207D1244BEE
:10E2D000186059600BE0012001F01AFAD8E7002C11
:10E2E00034D11F4B186059603800FFF7ABFF34681A
:10E2F000B442D0D0A269E369194D28686968121A3E
:10E300008B41002BC7DC01D1002AC4D1236961698C
:10E3100020009847A368002B05D02368626813602B
:10E320005A600023A360226B636B1100194311D064
:10E33000286869682262636212184B41A660A26174
:10E34000E3612000FFF7E4FE2468D1E7012001F03B
:10E35000DFF9CCE723003D331970F5E7F05AFF1FD2
:10E36000385BFF1F405CFF1F7FB501236A460090AA
:10E370001371694618220248FFF708F807B000BD7C
:10E38000F05AFF1FF7B5089E099F0DAC24780300D3
:10E39000A44601246442E517A4197D410A98184F48
:10E3A00001900B98BD4229D801D1033426D8B84238
:10E3B00024D802D1019C023420D8D9601A6108996E
:10E3C000099A9962DA62019A00211A630C9A5863D9
:10E3D0005A61052200209A871A00186259629861D2
:10E3E000D96101213E3298601B605B60117062460A
:10E3F000824202D01800FFF7B7FFFEBD0520FCE700
:10E40000FFFFFF7F7FB502236A46009013716946C4
:10E4100018220248FEF7BAFF07B000BDF05AFF1FEE
:10E4200030B587B00A9C0B99551C01D15D1C12D0E8
:10E43000651C01D14D1C0ED0029203936A46032342
:10E440000090059113716946182204480494FEF760
:10E450009DFF07B030BD0520FBE7C046F05AFF1F07
:10E460007FB50F4B0F4A1B605B6014230E4900936E
:10E470000E480433FEF758FF012305930C4B00228E
:10E48000049380239B0003930A4B0B4902930023C0
:10E490000A4800920193052300F0F2FF07B000BD87
:10E4A000405CFF1F0050FF1F1C460611F05AFF1F63
:10E4B000697AFF1FF052FF1F28460611405BFF1FBD
:10E4C00010B5FEF727FF01200021FFF7B1FDFFF790
:10E4D00009FD10BD70B500F0BDF8044B1C685D6807
:10E4E00000F0BCF82900200070BDC046305CFF1F62
:10E4F00010B5FFF7EFFF10BD7047F0B50125934051
:10E50000012604686D428A4203D92C4023430360EC
:10E51000F0BD370097400132BD43D2B2F3E70000AF
:10E520007FB504220F4B1A80FEF7E4FE0E48FFF77A
:10E530001DFCFFF741FD012305930C4B00220493C2
:10E5400080239B0003930A4B0A49029300230A4845
:10E55000009201933D2300F093FFFFF781FF00201D
:10E5600007B000BDB85BFF1FE051FF1F196DFF1F13
:10E57000545CFF1F12460611C05BFF1F70B50A4DA9
:10E5800003242B88042B0DD100210848FFF79EFCA3
:10E59000074B1A68074B1A60FEF7B8FE2C8000F094
:10E5A00068F8023C200070BDB85BFF1FE051FF1F00
:10E5B000385CFF1F5464FF1F10B500F04BF80A4A87
:10E5C00004001378BB2B09D9FA20800001F0A0F8D1
:10E5D000200000F043F8FA20800010BD01331370D2
:10E5E00000F03CF80020F8E73C5CFF1F70B500F03D
:10E5F00031F8124D04002B78002B04D100F02EF8D6
:10E600000F4801F085F82B78013BDBB22B70002B13
:10E6100003D0200000F022F870BD0A4B19780029C1
:10E62000F7D10948FFF752FC084B1A68084B1B68E2
:10E630009A42EED000F019F8EBE7C0463C5CFF1FB1
:10E64000E9030000E452FF1FE051FF1F385CFF1F89
:10E650005464FF1FEFF3108072B6704780F3108888
:10E6600070471E481E49016070471C481C490160E4
:10E6700070471C4802681C490A430260002080F36E
:10E68000098816481649016062B6FEE772B6EFF3D4
:10E690000980002820D02438F0C044464D46564614
:10E6A0005F46F0C07446046020381049096808606D
:10E6B0000E480F490A680260106801461030F0C821
:10E6C000A046A946B246BB46F0C901688E46043052
:10E6D00080F3098862B67047EAE7000004ED00E0C5
:10E6E0000000001020ED00E00000C0C05464FF1FD7
:10E6F000385CFF1F70B506000C1E17D00F231731B2
:10E7000099431E4B0D001220994202D8080000F0D8
:10E7100073F8023000018459002C0BD129001848ED
:10E7200000F096FE0024300000F0F2F8200070BDEA
:10E730001C00F1E72268A368AA42F9D3E1688B6064
:10E74000A368002B00D0D960501B0F280CD9611989
:10E750004D60A21853680860DB0FDB070343256098
:10E760003000536000F058F8802362681B061343A2
:10E7700063600834002CD6D1D0E7C046FFFF3F00CD
:10E7800033460611F7B50190002934D008394B689B
:10E790000C005E000B687608CA184E60576800933C
:10E7A0001500002F10DBD068936817688360D519B7
:10E7B0009268002A00D0D060009BDF196B68276048
:10E7C000DB0FDB073B436B60A61B7368002B0FDB83
:10E7D000F168B3688B60002B00D0D9603368216882
:10E7E00059186B683160DB0FDB070B4331006B603E
:10E7F000019800F011F8F7BD064A03001220934279
:10E8000003D800201B09012B00D8704701305B089A
:10E81000F9E7C046FFFF3F0070B5050008680C002F
:10E82000FFF7EAFF02010230000118324359AA182B
:10E83000002B05D01968002902D02068814206D338
:10E840009460E260A360002B00D0DC6070BD1A0011
:10E850009B68EDE70B00D0B50F24802608278A18A7
:10E860000F33C168A343A243D41A36060919103CDA
:10E87000C1600361083A9C60D91934431F605E602F
:10E880004F60426117605460FFF7C6FFD0BDF8B516
:10E8900007000D0016000021982204001837C160FF
:10E8A0005200380000F024FF22003932FF323B00D2
:10E8B0001033BB60FF611F009A42F8D1320029007B
:10E8C0002000FFF7C7FFF8BD4369F7B59C4600235A
:10E8D0001F001E0004690193A44509D8C2680A609C
:10E8E000019A4F6008328E600020CA600B61FEBD45
:10E8F00062682568002A04DA019A521901926419A3
:10E90000EAE701375B19AE42F9D22E00F7E70000C3
:10E910007FB501A9FFF7D8FF044B049A19688A4212
:10E9200000DD1A60186807B000BDC04634B3FF1F91
:10E93000014B18687047C04634B3FF1FF0B507009D
:10E940000E00150089B003A908481C00FFF7BCFFA2
:10E95000039B3B60069B33600193079B2B60FFF793
:10E96000E7FF2060002009B0F0BDC046C0C2FF1F15
:10E9700070B5051F04000E00EDB2632916D1002109
:10E9800000F0BEFE0B2D0AD92300123B0C2B06D93A
:10E990000233012B05D80021200000F0A9FD002042
:10E9A00070BD0121200000F08BFEF8E70B2D09D986
:10E9B0000300123B0C2B05D902330021012B06D892
:10E9C00000F096FD3100200000F002FEE7E700F0C5
:10E9D00077FEF7E702B4714649084900095C49002F
:10E9E0008E4402BC7047C04680B584B000AFF8606A
:10E9F000B9607A607A68B968FB68180000F020FE98
:10EA000003001800BD4604B080BD80B588B000AFDB
:10EA1000F860B9607A6000237B61FB68FB61BB68CA
:10EA2000BB6112E0FB691B781A00BB691B78D31A23
:10EA30007B617B69002B0CD1FB690133FB61BB69F6
:10EA40000133BB617B68013B7B607B68002BE9D1B4
:10EA500000E0C0467B691800BD4608B080BD0000DC
:10EA600037B50400C58A807900F098F9210000F0DC
:10EA7000BDF90D4B2A331B789B060AD5607D00F04B
:10EA800027FD002805D0437B033B012B02D900F072
:10EA900007FE37BD00F004FE012001A90D8048806B
:10EAA00000F084FCF5E7C04618C4FF1F70B50500F0
:10EAB00000F04EFC041E05D10648002D04D0402174
:10EAC00000F0CAF9200070BD4121494200F0D0F9A0
:10EAD000F8E7C04688C4FF1F10B50400034800F0E3
:10EAE000B9F901232041184010BDC04688C4FF1F5A
:10EAF000020010B5811C26324078002300F05BFC38
:10EB000010BD00000300F7B526330093871C0023D7
:10EB10000500009A4078390000F00EFB394C2300C4
:10EB2000B0331B78002B04D02200B13212789A4205
:10EB300004D9B134237801332370F7BD02210020BA
:10EB400000F036FD061E0CD080212F48490200F04F
:10EB500083F904236A7A300013436B7200F0A0FD3E
:10EB6000EBE70620FFF7B8FF0190002802D0300045
:10EB7000FFF79CFF2300B1331B78002B12D1260036
:10EB80002300B136B03332781B789A421DD100F0A1
:10EB900018FC002815D01D4B1D4A02211D4800F00D
:10EBA000E7FC04E0002000F00FFC0028E7D0012083
:10EBB00000F00AFC019B002BBFD00120FFF776FF7D
:10EBC000BBE7337801333370F1E768780023009AAC
:10EBD000390000F0F0FB002802D00C4B0E4ADCE7B5
:10EBE000337847340133337023785B07DFD5687897
:10EBF0000122390000F0EBFB0028D8D0034B074A74
:10EC0000CBE7C04618C4FF1F88C4FF1F4049061148
:10EC100054490611624A0611784906119C490611A9
:10EC2000F0B5871C85B005003900407800F09EFAE9
:10EC3000354C2300B0331B78002B05D02200B132B5
:10EC4000127801339A4205DDB1342378013B2370F9
:10EC500005B0F0BD0221002000F0AAFC061E0CD079
:10EC600080212A48490200F0F7F808236A7A300028
:10EC700013436B7200F014FDEAE70620FFF72CFF48
:10EC80000390002802D03000FFF710FF002000F0B2
:10EC90009BFB021E14D000901D4B1E4A02211E48F1
:10ECA00000F066FCB1342378002B02D0012000F084
:10ECB0008BFB039B002BCBD00120FFF7F7FEC7E7B0
:10ECC00026002100B136B03133780978994209D253
:10ECD0000220013B33706B89104983436B8100F044
:10ECE00097FCDFE76878390000F068FB002806D061
:10ECF000074B0B4A0221084800F03AFCD2E7337870
:10ED0000013B3370CEE7C04618C4FF1F88C4FF1F05
:10ED10004A490611BB490611624A0611F182FF1FDA
:10ED2000EC49061170B50C1F23687546013B236042
:10ED3000002B0AD100F05EF806002A0003482100EB
:10ED4000FFF720FD300000F059F870BDC0C2FF1F72
:10ED50003C2370B5827974465A430E4B0E009B18C3
:10ED60005B6B0A685B681B68934200D913003360D1
:10ED700000F040F831682200050004310648FFF732
:10ED8000B9FC0400280000F039F8201E01D001234E
:10ED900008C070BD4894FF1FC0C2FF1F3C235843EA
:10EDA000014BC0187047C0464894FF1F70B504005F
:10EDB0001500FFF74FFC00232B60236A002B0CD1BA
:10EDC0002562E561FFF74AFC2000FFF7EFF820001D
:10EDD0000421243000F016F870BD1D602562F1E7B3
:10EDE00010B50A000021FFF7E1FF10BD10B5FFF7D5
:10EDF000F7FF10BD10B5FFF72DFC10BD10B5FFF7E4
:10EE00002DFC10BD036898420DD058681A68026046
:10EE1000506000229A605A7B100901430F200901BB
:10EE200002400A435A73704770B50500FFF7E2FFCE
:10EE30002C68631C2B60FFF7E1FF200070BD70B5EC
:10EE40000500FFF7D7FF2C68631E2B60FFF7D6FF86
:10EE5000200070BD0068704770B506000C00FFF719
:10EE6000C9FF35682C433460FFF7C8FF280070BD28
:10EE700070B506000C00FFF7BDFF35682C4034600C
:10EE8000FFF7BCFF280070BD264B274A10B51A605B
:10EE90008023264A1B0411680B431360244A254B28
:10EEA0001A60254B1B68186A00F052FB234B244A5A
:10EEB0001A60244B244A1A60A022244B52001A6084
:10EEC000234B1878C0B200F0F3FB2249022000F077
:10EED00007FB2149032000F003FBFF2000F0F8FBB3
:10EEE000012000F01DFCFA20400000F0C1FB58207A
:10EEF00000F0AEFB194800F09BFB012000F078FB0E
:10EF0000072000F0BDFBFF2215490B6893431A0050
:10EF10008823134310220B60124B1A600C3A1A60BC
:10EF200010BDC046080000409021E90148F00040B3
:10EF300020B81F5040F0004068C2FF1F000003408F
:10EF40000180063DBC00034034080000A4000340DB
:10EF5000E312FF1F7102000040420F0030750000F5
:10EF60005CF0004000E100E010B50E4C05231B22D0
:10EF70001F210D48FFF7C1FA20000C4B072210217A
:10EF8000FFF7BBFA0622012311002000FFF7B5FAB4
:10EF90000123074A11680B4313602268054B134392
:10EFA000236010BD1CF0004014F00040FB03000083
:10EFB00024F0004004003E00F0B593B000F090FB58
:10EFC00000F09EFA3A4A0121582000F071FA11240B
:10EFD0008027013CE4B2002C67D00126354B364D2A
:10EFE00001932B680620B3432B6000F0B1FA334A3B
:10EFF000334813683B4313602B6833432B608025F1
:10F00000AD0003682B4204D1019B591E0191002BD6
:10F01000F7DC00230199994208DB7E20294B1B680D
:10F020001168DB0B034081431943116011685B08D1
:10F03000B9431160372BCCD8042BCAD902AD40227A
:10F040000021280000F054FB0026102000F080FA78
:10F050001D4BB2001B6801369B049B0CAB50082E65
:10F06000F3D107232A000021106856680131B0420D
:10F0700001D91660506004329942F5D3013B002B50
:10F08000F0D11A00114899006958461A814201D9F5
:10F090000F4E8E19642E9CD801335218042BF2D1D6
:10F0A0000C4B9208D218C62A93D813B0F0BDC046B4
:10F0B000F812FF1F983A00005CF0004018F0004082
:10F0C00068F0004060F0004064F00040420F000033
:10F0D000BEF0FFFF21F1FFFF144B10B51B68144A6F
:10F0E000986B144B062805D8FFF774FC1111041512
:10F0F000191D11001021116004221A60FFF734FF5E
:10F10000FFF7C2FE00F0CCF9FFF756FF10BD20213B
:10F1100011600522F1E7302111600022EDE7402166
:10F1200011600622E9E76021F6E7C04668C2FF1FCA
:10F130002010FF1F2410FF1F10B51400074B0622DC
:10F140001870074800F07CFA10222100054800F0F2
:10F1500077FA0122044B00201A6010BD66C5FF1F1C
:10F1600067C5FF1F6DC5FF1FE4BFFF1F10B5172246
:10F170000021034800F08CFA0020024B186010BDFB
:10F1800066C5FF1FE4BFFF1FF0B50400FF3C661E0D
:10F19000B441C1B06F460426D51C023464193E70D8
:10F1A0007870FF280ED0B98019000E48BD70007825
:10F1B000F870B81D00F044FA2100684600F056F8D7
:10F1C00041B0F0BD901CB8701878F980F87058788C
:10F1D000387198787871032AEED9033AD91C02A8BD
:10F1E000E8E7C046DD8FFF1F10B513000A000100DD
:10F1F0000E20FFF7C9FF10BD73B5050014000028ED
:10F200001CD000291AD0002A18D01388002B15D042
:10F210000F4B1B78012B09D10E4E3088002801D1ED
:10F2200000F0CEF9AD006519AC4201D1002076BDE9
:10F230002388318804345B183380F5E76B46DA1D88
:10F240001223012104481370FFF7CEFFEEE7C046FA
:10F2500086C5FF1F88C5FF1F350C000010B502488A
:10F26000FEF7A4FE10BDC046DCC1FF1FF8B50500C7
:10F270000E00002813D0002911D003788FB2042B80
:10F2800010D143783E2B0DD1C378022B0AD11D48F3
:10F290004388994213DD1C4A536A01335362FFF7D6
:10F2A000DDFFF8BD194843889E42F4DC00F092F877
:10F2B000041E0DD1144A936801339360EFE700F008
:10F2C00089F8041E04D1104A536901335361E6E7FB
:10F2D00032002900E068FFF787FB6781FFF7BAF982
:10F2E00000220B4B22601B681A6B002A06D11C639C
:10F2F000DC62FFF7B3F9FFF7B1FFD0E714601C63DE
:10F30000F7E7C046E08FFF1FC8BBFF1FFC8FFF1F42
:10F31000D8C1FF1F10B500F083F90400094B18682D
:10F32000002800D110BD00F07BF9844205D8001BF5
:10F33000054B9842F2D90C20F4E7044B001BC0188F
:10F34000F6E7C0465812FF1FA086010040420F009A
:10F3500070B5060000F064F90500002E16D13000EB
:10F3600000F03EF90400212814D10D4E3378052B0E
:10F3700010D100F055F985420ED8401B094B984238
:10F3800008D83378052BF4D0002403E0FFF7C2FF40
:10F39000041EE4D0200070BD034B401BC018EDE7F5
:10F3A0002312FF1FA086010040420F0010B58A1CE7
:10F3B000FFF722FF10BD8620404270478620404262
:10F3C0007047862040427047862040427047862022
:10F3D0004042704770B50400051E17D0FFF73AF998
:10F3E000E568002D10D02B682269E360954200D1BA
:10F3F000236101232B7200232B606368A268013311
:10F400006360934200D9A360FFF728F9280070BD1C
:10F4100001B40248844601BC604700BF6902000095
:10F4200001B40248844601BC604700BFF5EF0511F6
:10F4300001B40248844601BC604700BF814401001A
:10F4400001B40248844601BC604700BF75FE051147
:10F4500001B40248844601BC604700BF2504061180
:10F4600001B40248844601BC604700BFA599000072
:10F4700001B40248844601BC604700BF512301002B
:10F4800001B40248844601BC604700BF410E06112A
:10F4900001B40248844601BC604700BFF156010038
:10F4A00001B40248844601BC604700BFA15001007E
:10F4B00001B40248844601BC604700BFF55001001A
:10F4C00001B40248844601BC604700BFF50F061135
:10F4D00001B40248844601BC604700BF9D33061159
:10F4E00001B40248844601BC604700BFC156010018
:10F4F00001B40248844601BC604700BF5D0B0611A1
:10F5000001B40248844601BC604700BFC5520100F7
:10F5100001B40248844601BC604700BF6902000094
:10F5200001B40248844601BC604700BF9D19010038
:10F5300001B40248844601BC604700BFB1FE05111A
:10F5400001B40248844601BC604700BF4DEF05117D
:10F5500001B40248844601BC604700BFD58000006A
:10F5600001B40248844601BC604700BF95560100C3
:10F5700001B40248844601BC604700BF41F905114F
:10F5800001B40248844601BC604700BF09FB051175
:10F5900001B40248844601BC604700BF7DFE0511EE
:10F5A00001B40248844601BC604700BF99080611B7
:10F5B00001B40248844601BC604700BF45330611D0
:10F5C00001B40248844601BC604700BF7541000099
:10F5D00001B40248844601BC604700BFE90A061135
:10F5E00001B40248844601BC604700BF8567000043
:10F5F00001B40248844601BC604700BF8D21010070
:10F6000001B40248844601BC604700BF693F010065
:10F6100001B40248844601BC604700BF0D370611A3
:10F6200001B40248844601BC604700BF8D4401001C
:10F6300001B40248844601BC604700BF7920010044
:10F6400001B40248844601BC604700BFC13C0100D0
:10F6500001B40248844601BC604700BF3921010063
:10F6600001B40248844601BC604700BF55900000C9
:10F6700001B40248844601BC604700BF4521010037
:10F6800001B40248844601BC604700BFE91D010087
:10F6900001B40248844601BC604700BFED3C010054
:10F6A00001B40248844601BC604700BF9133061193
:10F6B00001B40248844601BC604700BFCDCD0000C4
:10F6C00001B40248844601BC604700BF990A061194
:10F6D00001B40248844601BC604700BF495601009E
:10F6E00001B40248844601BC604700BF754901006F
:10F6F00001B40248844601BC604700BF1703000004
:10F7000001B40248844601BC604700BFC10A06112B
:10F7100001B40248844601BC604700BF310C0611A9
:10F7200001B40248844601BC604700BF5520010077
:10F7300001B40248844601BC604700BF3D3401006B
:10F7400001B40248844601BC604700BF79FE051140
:10F7500080000000000000006F440611000000005F
:10F7600000000000BDF505115DF705110000000067
:10F7700085F405116DF405112DF4051189F30511BA
:10F78000DDF5051199F3051181F305118FF30511CD
:10F7900000000000744406117544061100000000CA
:10F7A000F9F605115DF705113DF60511D7F60511BE
:10F7B000CBF60511B5F605119FF605115DF605119D
:10F7C00041F6051106000000C1FE05110008FF1FEB
:10F7D000FD0B061160000020000000000101000088
:10F7E0000F002E00000000000000000000000000DC
:10F7F00000000000E8BFFF1F90EDFF1F1000000198
:10F8000000000000000000000000000000000000F8
:10F81000D8C0FF1F60F0FF1F2090FF1F00000000F6
:10F82000000000000C93FF1F7493FF1FDC93FF1F69
:10F8300000000000000000000000000000000000C8
:10F8400000000000000000000000000000000000B8
:10F8500000000000000000000000000000000000A8
:10F860000000000000000000000000000000000098
:10F870000000000000000000000000000000000088
:10F880000000000000000000000000000000000078
:10F890000000000000000000000000000000000068
:10F8A0000000000000000000000000000000000058
:10F8B0000000000000000000000000000000000048
:10F8C0000000000000000000010000000000000037
:10F8D0000E33CDAB34126DE6ECDE05000B000000FC
:10F8E0000000000000000000000000000000000018
:10F8F0000000000000000000000000000000000008
:10F9000000000000000000000000000000000000F7
:10F9100000000000000000000000000000000000E7
:10FC700000000000040004006182FF1F204A0611FA
:10FC800020BCFF1F0000000000000000000000007A
:10FC90000000000000000000000000000000000064
:10FCA0000000000000000000000000000000000054
:10FCB0000800080000000000704A0611E8BDFF1FA0
:10FCC0000000000000000000000000000000000034
:10FCD0000000000000000000000000000000000024
:10FCE0000000000000000000000000000200020010
:10FCF00000000000784A0611A8BEFF1F00000000A7
:10FD000000000000000000000000000000000000F3
:10FD100000000000000000000000000000000000E3
:10FD200000000000000000000200020000000000CF
:10FD300030490611F0BBFF1F00000000000000006A
:10FD400000000000000000000000000000000000B3
:10FD500000000000000000000000000000000000A3
:10FD6000000000000300030000000000284A061104
:04FD700080BCFF1F35
:040000051104B00032
:00000001FF
