:020000041104E5
:10B00000B09DFF1FC148FF1F0000000000000000AE
:10B010000000000000000000000000000000000030
:10B020000000000000000000000000000000000020
:10B030000000000000000000000000000000000010
:10B040000000000000000000000000000000000000
:10B0500000000000000000000000000000000000F0
:10B0600000000000000000000000000000000000E0
:10B0700000000000000000000000000000000000D0
:10B0800000000000000000000000000000000000C0
:10B0900000000000000000000000000000000000B0
:10B0A00000000000000000000000000000000000A0
:10B0B0000000000000000000000000000000000090
:10B0C000002080F314880A4885460A490A4A00206D
:10B0D000521A002A04D008600431043A002AFAD136
:10B0E000064880470648804706488047FEE700003C
:10B0F000B09DFF1FB095FF1FB0CFFF1FA1FE051130
:10B10000211506114915061170B50C4C2368002B4A
:10B1100013D003F085FA050004F0F2FA6061200014
:10B1200000F05CF90100200000F014FA002801D0C2
:10B1300004F06EFA280003F077FA70BD9049FF1F03
:10B14000034B10B59B6B002B00D0984710BDC04639
:10B150009049FF1F70B50A4D2B78012B0FD0094C79
:10B160003C220021200004F05BF9074804F090F92C
:10B17000200000F01BF9054BA36301232B7070BD69
:10B18000F4B9FF1F9049FF1FA849FF1F0949FF1F7E
:10B1900000000000000000000000000000000000AF
:10B1A000000000000000000000000000000000009F
:10B1B000000000000000000000000000000000008F
:10B1C00000000000000000000000000070470000C8
:10B1D0001A2210B511000123054803F074F904F098
:10B1E000BFF9044B0321186802F04AF810BDC046AD
:10B1F00014F000407CBCFF1F10B50400012004F0D7
:10B200002FF9114B11491A6848680023904201D266
:10B210004B68D31A0E4A136004F092F90D4B0E4A94
:10B220001860031919000831914203D909331B0230
:10B230001B0AE41A094B00191860A423084A5B038F
:10B2400011680B43136010BDB012FF1F281002409D
:10B25000B412FF1F80BCFF1FFFFFFF002CF0004057
:10B2600024F00040F8B5424B04001B68DB6ADB07A2
:10B2700032D5404B404A1B6840489B049B0C93428C
:10B2800041D93F495918C72941D83E498B4200D975
:10B2900003683D4A3D4F15683D4E94463968B542B6
:10B2A0004ED83C4A9E18C4225200964200D90B0048
:10B2B0000360634601351D600368072041432E4A41
:10B2C000C918C9083960D908934247D92C4A9B1834
:10B2D0006343DB088B423ED80622002311002E4830
:10B2E00003F0F1F82000FFF787FF002004F0D8F901
:10B2F00001232A4A11680B431360294B294A1A601B
:10B30000FFF766FFF8BD1C4AD11AC729C1D9264AE2
:10B310001F035E029D01914208D88022E9191201A3
:10B320008918891BDB00CB1A1B0BAEE780221901A1
:10B33000C91912018918891B1B02CB1A5B1BF3E781
:10B340000D0A6E189E4204D34D1B9D4201D8036026
:10B35000B2E70B00FBE75B1A013CBBE7064AD21AD7
:10B360006243D2088A42B7D9521A0134FAE7C0467A
:10B3700088CCFF1F64F00040420F0000D412FF1F72
:10B38000BEF0FFFF06100000C812FF1FAC12FF1F27
:10B39000E703000082F1FFFF1CF00040A8F000402E
:10B3A000A412FF1FB6412103AF020000002110B517
:10B3B0000400080001F052FF054B18600223002032
:10B3C00023603033E360034B2361034B187010BDDF
:10B3D0007CBCFF1F1027000074BCFF1FF7B5019055
:10B3E000EFF3108372B64E4A4E4E10783360002849
:10B3F0004FD14D4F3A68002A03D083F3108830BFF5
:10B40000FEBD4A4D2B68DB6ADB0715D504F098F8C2
:10B41000474B1B6883420BD8C01A2B688C331B68C0
:10B42000834209D9336883F3108830BF0020E7E7EF
:10B43000C01A404BC018F0E704F082F82B683D4C6E
:10B44000DB6A201ADB0727D53B4A3C4913685C18A6
:10B45000C42149008C4201D9394B1B68040C80B2CD
:10B460005C43136043436402DB09E41804F0A0F872
:10B47000FA239B005843002802D0844200D90400DC
:10B4800004F0B6F82F4A304B12691860D2070ED577
:10B49000336883F31088C9E784004200C301A4180D
:10B4A0001C1BC3001818A408400A2418DEE7274A0A
:10B4B0001278002A02D12A6852691A601B68009328
:10B4C000019B586903F09CFF214B1B78002BA9D0EE
:10B4D0003B68002BA6D1009AA24200D92200FA2391
:10B4E0009B005843904200D910002A68D3699169A3
:10B4F0005918814296D8C31A5069984200D9180049
:10B500004209430A9B18820B9B18C20A9B1A420CE1
:10B510009B1AC00C181AFFF7A5FE032070E7C0465F
:10B5200074BCFF1F78BCFF1F5812FF1F88CCFF1F81
:10B53000A812FF1FFFFFFF00D412FF1F82F1FFFFC1
:10B54000AC12FF1F00100240D010FF1F1D12FF1F82
:10B550001890FF1FF7B5081E00D1AFE0002311229D
:10B560001521654802F0AFFF644A654B12689A42A4
:10B5700007D0002004F09CF80221624A13688B4334
:10B58000136003F067FC03F0CBFF5F4B1B6883F392
:10B5900010885E4B1878C0B204F012F810215C4D90
:10B5A0002B68DC6A0C4000D189E05A4B07225248D4
:10B5B00002F089FF012306224F48110002F083FFA9
:10B5C0000023554C0120A3600233A360534B23603A
:10B5D00003F046FF0323A36003F0B2FF040003F06F
:10B5E000C7FF019003F0ACFF4D4B186003F080FFE4
:10B5F0004C4B1B68A3426AD2E31A2A68D16AC90776
:10B6000069D549491C0C09689BB24C4359436402F3
:10B61000C90964180320FC329368444A44491268FB
:10B620000E689B1A434A444D12689B183B4A9A186D
:10B63000034092089B192A600B60042B03D9013246
:10B6400003402A600B602B683C49E618300003F089
:10B65000C7FE3B4F39493B68C3183B60300000933D
:10B6600003F0CEFF374E3368C81834493060884243
:10B6700005D9009B01333B6003F0C2FF316003F04A
:10B680000FFF03F075FF304B019A1B68A21A1218C6
:10B690009A422DD2019A9B181B1B181A03F0D8FF4F
:10B6A000022003F0FDFF002004F002F8FA212868D0
:10B6B0008900201803F094FE03F0C2FEFEBD0323B0
:10B6C000082209210C4802F0FEFE230073E71F4AFE
:10B6D000E31A9B1891E7DC0198000234241A580001
:10B6E000241AD8008033C318A4085B0AE41891E731
:10B6F000FA208000D2E7C0461CF00040A412FF1FD1
:10B70000B64121031000004078BCFF1FE212FF1F6A
:10B7100088CCFF1FFB03000014100240C409000086
:10B72000A812FF1F80BCFF1FD412FF1FB812FF1FFB
:10B73000C012FF1FB412FF1FBC12FF1F71020000D6
:10B740004010FF1FC412FF1FD010FF1FFFFFFF009C
:10B750002948016A81F30888416A81F30988FFE773
:10B760002548011C1030F0C8A046A946B246BB4689
:10B77000F0C9026882F30888426882F30988826807
:10B780009646C26882F30388026982F31088426990
:10B7900082F31388826982F31188C26982F3148864
:10B7A000012070471448F0C044464D4656465F4657
:10B7B000F0C0EFF308810160EFF309814160714649
:10B7C0008160EFF30381C160EFF310810161EFF35A
:10B7D00013814161EFF311818161EFF31481C16144
:10B7E0000548011C1030F0C8A046A946B246BB4629
:10B7F000F0C900207047000094CCFF1F000000003B
:10B800000000000000000000000000000000000038
:10B810000000000000000000000000000000000028
:10B820000000000000000000000000000000000018
:10B830000000000000000000000000000000000008
:10CC50000000000000000000002330B5934200DB1C
:10CC600030BD9C000D192D6801330551F6E7000019
:10CC70000421044B044A013B002B02D010680842F7
:10CC8000F9D0704781969800900008110022032186
:10CC9000054B1A60054B1A6032321A60044A116063
:10CCA00007221A607047C046880008118C000811DE
:10CCB0009000081110B5FFF7DBFF0022034B1A604C
:10CCC000034B06321A70FFF7D3FF10BD880008111E
:10CCD0000000081110B5FFF7CBFF0022034B1A60CC
:10CCE000034B04321A70FFF7C3FF10BD8800081110
:10CCF0000000081170B50124FFF7BAFF044B054D81
:10CD00001C6005232B70FFF7B3FF2878204070BD0F
:10CD1000880008110000081110B5044C013C002CDB
:10CD200003D0FFF7E7FF0028F8D110BD81969800E7
:10CD3000F0B5070093B01400402A00DD74E0002A2B
:10CD400048D0002318009A0002AD01335051102B37
:10CD5000F9D1002318259C4224DC032323405A1ECA
:10CD60009341A510ED18EFF3108672B6FFF7D4FFCC
:10CD7000FFF7A0FFFF2338041B0418403B0CDBB275
:10CD80001843FF231B021F400223002238430002E6
:10CD900018432649264B0A601860042C10DC029ABE
:10CDA0001A6011E0CA5CDE002E40B240981080008C
:10CDB00002AE865901333243019602AE8251CAE770
:10CDC000402C10D0954208DCFFF7A6FFFFF782FF4A
:10CDD00086F31088200013B0F0BD910002A8095816
:10CDE00001321960EEE7029A1A60039A1A60049AF7
:10CDF0001A60059A1A60069A1A60079A1A60089AC9
:10CE00001A60099A1A600A9A1A600B9A1A600C9AA8
:10CE10001A600D9A1A600E9A1A600F9A1A60109A88
:10CE200001921A60119ABBE70024D3E78800081129
:10CE30000000081170B50500EFF3108472B6FFF71B
:10CE400017FF04220B4B28041A60FF231B04184011
:10CE50002B0CDBB21843FF231B021D400323284386
:10CE60000002054D18432860FFF702FF286884F38D
:10CE7000108870BD880008110000081170B5050009
:10CE8000EFF3108472B6104B18421CD0FFF744FF2A
:10CE9000FFF710FF00220D4B28041A60FF231B042C
:10CEA00018402B0CDBB21843FF231B021D4020232C
:10CEB000284300021843064B1860FFF72DFFFFF7C9
:10CEC00009FF84F3108870BD00E0FF00880008119E
:10CED0000000081110B50024A0421BD188230E4C7D
:10CEE0005B0523600D4B012263608023A3608023D8
:10CEF0005B01E360802303205B002361E161013B70
:10CF0000A1182376CB7F62618343CB77044B1A70E1
:10CF1000FFF7BCFE200010BD48BCFF1F0000081139
:10CF20006CBCFF1F002805D00023C3611800024A13
:10CF3000137070470148FCE76CBCFF1F8400198127
:10CF4000F7B51700002832D0002A30D0002B2ED0A1
:10CF500005688D422BD844688C4228D34A1ED218CB
:10CF6000954224D8944222D30130C27FD40720D4E2
:10CF7000124C2478002C1ED009020D0A02218A438B
:10CF8000C27703229C0813405A1E9341E4188C4038
:10CF90002E0063190193019BB34201D12000FEBD15
:10CFA0003000FFF747FF7B1B98510436F3E7044836
:10CFB000F5E70448F3E70448F1E7C0466CBCFF1FFF
:10CFC000840019818100198180001981F0B585B034
:10CFD0001E0001901700031E67D0002A65D0002EA6
:10CFE00063D00068884260D85A688A425DD34B1E7D
:10CFF0009B19984259D89A4257D3019B5D1C012333
:10D00000EA7F1A4253D12C480078002851D00320DF
:10D01000824313433F220C02114003914021EB77DE
:10D02000039B240ACB1A029335009E4205D8320096
:10D0300039002000FFF77CFE2EE039002000029A24
:10D04000FFF776FE029BE418FB180293039B270070
:10D050009B191E00403E0393402E02D832000299D5
:10D06000E7E7029B3800191BC9194022403EFFF731
:10D070005FFE40373F2EF4D8039E2000803E3F23C2
:10D080003400B2099C43511C029B4030890192013B
:10D0900020185918B21ACDD10121019B0133DA7F32
:10D0A0008A43DA77280005B0F0BD044DFAE7044D55
:10D0B000F8E7044DF6E7C0466CBCFF1F84001981F9
:10D0C0008100198180001981F8B5036805008B4241
:10D0D0001FD843688B421CD3461CF37F01271C00DA
:10D0E0003C4018D10E4A1278002A16D003229343EE
:10D0F0003B430902F377080AFFF7C0FEF37FBB4307
:10D10000F377EB69181E03D0200021009847200018
:10D11000F8BD0448FCE70448FAE70448F8E7C046CD
:10D120006CBCFF1F84001981810019818000198166
:10D13000031E04D0034B1A78131E00D003001800FE
:10D140007047C0466CBCFF1F10B501F01BFA00F021
:10D15000C1F801F031FA10BD10B501F013FA00204A
:10D1600002F08EF901F028FA10BD0000194A1A4B9E
:10D170005168196012685A60184A51689960D169FB
:10D18000D960116A1961526A5A61154A1168996128
:10D19000C02189005158D961C121890051581962B3
:10D1A000C221890051585962C3218900515899629E
:10D1B000C42189005158D962C52189005158196389
:10D1C000C621890051585963C721890052589A6372
:10D1D0007047C04610E000E0FCBBFF1F00ED00E020
:10D1E00000E100E0194B1A4A196801205160002142
:10D1F00091605968404211609968164A5160D96837
:10D20000D16119691162596951629969124A1160B3
:10D21000C02149005050D86949185050186A04314B
:10D220005050586A04315050986A04315050D86AAE
:10D2300004315050186B04315050586B0431505029
:10D24000996BC7239B00D1507047C046FCBBFF1FA2
:10D2500010E000E000ED00E000E100E00023984273
:10D2600005D1044B044AD9600449187011601800B4
:10D270007047C04638BCFF1FF808FF1F514FFF1F03
:10D2800010B5052905D8080001F08AFB0E1C1C10FA
:10D29000051C0D4810BD06220C480023110001F0AA
:10D2A00012F9022002F0D4F80020F3E7FFF75EFF46
:10D2B000FEF778FA002802D1013002F0C9F8FFF732
:10D2C00091FFF1E70248E5E7840014811CF000407B
:10D2D0008300148101220023054970B50C684D6854
:10D2E00012196B410A604B6001F0D0F870BDC04666
:10D2F000D8CCFF1F024A034B9B1A034A5360704766
:10D30000800A0020002801201090FF1F70477047FE
:10D3100070477047704710B500F005F810BD10B5A4
:10D32000FDF70EFF10BD7047F7B51F00089B040006
:10D3300016000520002B20D0002F1FD023632300D0
:10D340000025226101224033A1602460646065638E
:10D35000A56325731A7001F063F901F065F90423E0
:10D3600020006373089B143000933A0001233100BE
:10D3700000F0BBFA2800636AE363FEBD0048FCE7E7
:10D38000BD020000F0B51E0085B00A9B0400734387
:10D39000170003930520002E1FD0002B1FD0230061
:10D3A0000025226101224033A1602460646065632E
:10D3B000A563266325731A7001F032F901F034F980
:10D3C00004232000637314302B000096039A390065
:10D3D00000F08BFA2800636AE36305B0F0BD0148F2
:10D3E000FBE7C046BD02000070B5040001F018F96B
:10D3F000154B05001B78002B03D001F015F91348DD
:10D4000070BD627B042A03D001F00EF90820F7E713
:10D41000220040321278012A03D001F005F90920D8
:10D42000EEE76373206884420AD12000143000F0D4
:10D4300054FA280001F0F8F800F0A6FC0020DFE71D
:10D440000C3800F009FCEDE73C5CFF1FEA0300002C
:10D45000F8B504000F00150001F0E2F8637B060048
:10D46000042B04D001F0E0F808252800F8BD236B58
:10D470009D4203D901F0D8F81D4DF6E7002D03D1E8
:10D4800001F0D2F80535F0E723689C421ED1200058
:10D490002A003900143000F0CBF8051E06D0300009
:10D4A00001F0C2F86A2DE0D1124DDEE7636BA26B8A
:10D4B00001336363934200D9A363636AE26B9A42C8
:10D4C00000D9E363300001F0AFF8CEE70C3B1C005D
:10D4D0002A003900D86B01F06DFA2564200000F0B5
:10D4E0005FFB300001F0A0F8002500F04DFCBCE728
:10D4F000BF020000BE020000F0B585B00293050037
:10D5000001920B9E01F08CF8304B04001B78002B2D
:10D5100009D0019B029A134305D001F085F82C4CE9
:10D52000200005B0F0BD6B7B042B04D0200001F07F
:10D530007BF80824F4E72F001437380000F026F9B0
:10D54000039000280CD132000A99380000F027F926
:10D550006B6B2000013B6B6301F066F8039CDFE717
:10D56000019B029A134306D12000C824336001F0C6
:10D570005BF86400D4E7174B1B780393002B06D0AD
:10D5800000232000336001F04FF8C824C8E7124F91
:10D590000A9B3968019ACB632800029B00F028FBA4
:10D5A000200001F041F800F0EFFB01F039F8050030
:10D5B000386800F099FB039B041E01D13B681B6C8B
:10D5C0003360280001F030F8AAE7C0463C5CFF1F3A
:10D5D000EA030000E452FF1F5464FF1F70B5FFF719
:10D5E0009AFE0124002501F01BF806490A684B68E1
:10D5F00012196B410A604B6001F016F8FFF78FFEBD
:10D60000F1E7C046E852FF1F4269012A06D1002314
:10D6100001698A425B41DBB21800704700239A42DD
:10D62000FAD10369806983429B415B42F4E70000C1
:10D63000F0B5040085B003AF01911500002103226D
:10D64000380001F0EDFE2000FFF7DEFF002802D0D9
:10D650006A2005B0F0BD6369002B13D1E3686268EE
:10D66000934201D12368E360A2690199E06801F067
:10D67000A1F9A369E268D218E2602269D31A236192
:10D680000020E6E72BBA7F2D59D801265B005B0E00
:10D690003B702269AB199A42DAD36168E3688B4226
:10D6A00001D12368E360E068A368984266D30B1A4F
:10D6B0000093B34262D2002B0DD01A00390001F062
:10D6C00079F9009B009AF61A2368E36023699B1A94
:10D6D0002361002E0BD0009B3200F918E06801F0A6
:10D6E00069F923699B1B2361E3689E19E6606668FC
:10D6F000E368B34201D12368E360E068A36898421D
:10D7000011D3361AB5420ED9002E0CD03200019931
:10D7100001F050F9019BAD1B9B1901932368E36055
:10D7200023699E1B26612A000199E06801F042F9F5
:10D73000E3685B19E36023695D1B2561A0E7114A7B
:10D74000954209D880221902090E52420A431B0E43
:10D750003A707B7002269CE70B4A0520954200D95F
:10D7600077E740221904090E52420A433A701A021E
:10D77000120E1B0E7A70BB7003268AE700230093FB
:10D78000A9E7C046FF3F0000FFFF3F004368026873
:10D7900000699B1A181A43425841C0B27047F0B54D
:10D7A000040087B0019102920021032204A801F035
:10D7B00037FE2000FFF7EAFF6B2300282ED16268B6
:10D7C000A36800926269002A16D1009A934201D19F
:10D7D0002368A360A269A168019801F0EBF8A2692F
:10D7E000A3689B18A36023699B182361029B002BED
:10D7F00014D01A60002311E0009A934201D12368EB
:10D80000A360A1680A7853B2002B0ADA3F239A4337
:10D81000802A5ED03A3B0326C02A03D0180007B006
:10D82000F0BD0126009B5D1AAE4254D9002D08D0F0
:10D8300027692A0004A801F0BDF82368EF19A36046
:10D840002761A368771B039304ABE8183A00039998
:10D8500001F0B0F8039B3200DD192369A560DF19E0
:10D860000023059306AB27619F1B04A9380001F034
:10D87000A1F8012E03D03F223B7813403B70059B5B
:10D880001FBA029B1F60009B9D4201D12368A360C9
:10D89000A168E368994210D9009B5D1ABD420CD281
:10D8A0002A00019801F086F8019B7F1B5B19019308
:10D8B0002368A36023695D1925613A00A168019876
:10D8C00001F078F8A368DB19A3602369DF192761E9
:10D8D00090E70226A6E70025B3E703684268836065
:10D8E000C360D31A03610020704710B54361029BE7
:10D8F0000160891841608361FFF7EFFF002010BDD0
:10D90000030001221860586081601A77802200208D
:10D910009200186158619A817047030010B568330E
:10D920001C78503B20001A68002A00D110BD8A42A2
:10D9300002D14A691A60F6E713689A4201D05B3354
:10D940001C78031CA04200D9231CD8B21300143346
:10D95000E9E710B50400FFF7E0FF230067331B7809
:10D960000100834202D0200001F0B2FD10BD000092
:10D9700070B504000620002C09D000F051FE164BB3
:10D9800005001B78002B03D000F04EFE134870BD3D
:10D99000627B022A03D000F047FE0820F7E7227FCF
:10D9A000012A03D000F040FE0920F0E720696373EC
:10D9B000002802D02100FFF7CCFF2068844206D166
:10D9C000280000F031FE00F0DFF90020DFE70C381E
:10D9D00000F042F9F1E7C0463C5CFF1FEA0300009B
:10D9E00010B5C36C5A7B022A0BD11A69673011003B
:10D9F000673109780378994203D100211000FFF7BD
:10DA0000A8FF10BDF7B50193344B05001B880092A9
:10DA10000024042B09D000F003FE314B06001B78D4
:10DA2000A34204D000F000FE2E4C2000FEBD6B7B14
:10DA3000022B03D000F0F8FD0824F6E72A4F2C69EA
:10DA40003B68A34210D1AB695A1C07D1274801F0AB
:10DA500037FE300000F0E8FD244CE6E70133AB610F
:10DA600000F0E2FD224CE0E7002C08D19A692B611E
:10DA70006A619D610123AB6100F0D6FDD5E7009A94
:10DA800001990A4304D1C82400F0CEFD6400CCE71C
:10DA9000184A1278002A03D000F0C6FDC824C4E753
:10DAA00067331978230067331B788B4202D9200033
:10DAB00001F00EFD009A019B3968280000F098F8EB
:10DAC000300000F0B1FD00F05FF900F0A9FD0500A5
:10DAD000386800F009F904002800CDE7B85BFF1FA3
:10DAE0003C5CFF1FEA0300005464FF1F8603000034
:10DAF00085030000E452FF1FF8B5244B05001B8886
:10DB00000020042B09D000F08BFD214B07001B786F
:10DB1000002B03D000F088FD1E48F8BD6B7B022B64
:10DB200003D000F081FD0820F7E71B4B18682B6934
:10DB3000984205D0380000F077FDE1208000ECE746
:10DB4000AB695C1EAC61002C04D0380000F06CFDA9
:10DB50001248E2E72900FFF7FCFE2E68B54205D126
:10DB60002C61380000F060FD2000D6E70C3E30004C
:10DB700000F016F8B3692E616B610123B5613800BE
:10DB8000AB6100F051FD00F0FFF8EDE7B85BFF1F5F
:10DB90003C5CFF1FEA0300005464FF1F8503000084
:10DBA00070B5050048352B780400022B05D0042BF6
:10DBB00016D0012001F084FD09E0C368026901006C
:10DBC00013600A485A6000F06FF901232B7020009F
:10DBD00000F086FA2200002349321370E36470BD1E
:10DBE000C368026913605A600323EFE7E051FF1F27
:10DBF00070B50C000500E064511C01D1591C02D025
:10DC0000200000F041FA2300022248331A7021005C
:10DC1000104800F077F922002B7B0C32012B05D144
:10DC20006B68E56023611A606A6070BD21002B6833
:10DC30006731AB4205D15968E36021610A605A60DF
:10DC4000F3E718005B30067808788642F3D81B6843
:10DC5000EFE7C046E051FF1F70B5050048352B784F
:10DC60000400022B05D0042B17D0012001F028FD61
:10DC700009E0C3680269010013600B485A6000F0B4
:10DC800013F901232B70200000F02AFA230003224D
:10DC900049331A700023E36470BDC36802691360DE
:10DCA0005A600323EEE7C046E051FF1F30B5C26C57
:10DCB000137B002B15D10169C3680B60596001000B
:10DCC000136867319A4205D01C005B3425780C78C4
:10DCD000A54207D9020059680C320161C3600A608D
:10DCE0005A6030BD1B68EDE710B549300378032B4F
:10DCF00003D8054A5B00985A10BDCA20400001F0C5
:10DD0000DFFCCA204000F7E7DA44061130B50C000A
:10DD10000B00673422780C3395002B50CB600B61DD
:10DD2000030051118900F8335B181F219143012230
:10DD30008A401968FF300A431A60237842789A4271
:10DD400000D9437030BD000010B500F069FC0B4BEA
:10DD50001C78002C03D000F067FC094810BD094A6C
:10DD60001378C72B03D900F05FFCCA20F6E7013314
:10DD7000137000F059FC2000F0E7C0463C5CFF1F28
:10DD8000EA030000E452FF1F10B500F049FC0F4BFE
:10DD900004001B78002B03D0200000F045FC10BDD0
:10DDA0000B4B1B78002BF7D10A4A1300FF335B782B
:10DDB0009B009958084B0C391960084B1868884229
:10DDC000EAD0FFF7A6FA00F032FCE5E73C5CFF1F63
:10DDD000E452FF1FE051FF1F385CFF1F5464FF1F18
:10DDE00010B500F01DFC0F4B1B78002B03D000F08A
:10DDF0001BFC0D4810BD0D4B1C78002C03D100F00E
:10DE000013FCC920F6E7013CE4B21C70002C03D0DF
:10DE100000F00AFCC820EDE700F006FCFFF7B4FFB5
:10DE20002000E7E73C5CFF1FEA030000E452FF1F0D
:10DE300003003E22FF335A700022073B04C0984281
:10DE4000FCD1704770B50C0067342378094A9B00F9
:10DE50009A58002A02D1FFF759FF70BD0A001B58DB
:10DE60000C325D68CB600D612A605A6023789B009C
:10DE70001A50F2E7E051FF1F0B0010B567331B7813
:10DE8000084A9B009A58002A02D1FFF73FFF10BDB5
:10DE90000A001B580C325868CB60086102605A6057
:10DEA000F5E7C046E051FF1F70B50C0067342678D7
:10DEB000124AB3009D58124A126867321278B24271
:10DEC0000DD1002D02D1FFF721FF70BD0A001B58B4
:10DED0000C325868CB60086102605A60F5E7002D8B
:10DEE000F1D00A001B580C325D68CB600D612A60CE
:10DEF0005A6023789B001A50E7E7C046E051FF1FA5
:10DF00005464FF1F0B0070B567331C78A300C3185F
:10DF10001A681568AA4209D008000C30824200D164
:10DF20001D600A69CB6813605A6070BD1F26012509
:10DF300000220100A643B5401A606311F8319B002E
:10DF4000CB181E68FF30AE431E604378A342ECD16D
:10DF50000B68002B15D0190C01D11B041032190EBF
:10DF600001D11B020832190F01D11B010432990F94
:10DF700001D19B000232DB43DB0FD21804D4427084
:10DF8000D3E720320431E3E7012001F099FBCCE72D
:10DF90000300FF335B78034A9B001B5889000C3B4E
:10DFA0008B507047385CFF1F10B500F039FB134BE6
:10DFB000134C1B6867331B789B001B59002B02D145
:10DFC00000F032FB10BD1A001900593212780C39DA
:10DFD000002AF5D01A689A42F2D04A6D002A03D07E
:10DFE000013A4A65002AEBD15B331B789B00E2586B
:10DFF0001268E2508B6D4B65E2E7C0465464FF1F28
:10E00000E051FF1F70B504000E0000F009FB637BB8
:10E010000500012B03D000F007FB082070BD20682D
:10E02000844213D123695A1C05D1280000F0FCFA60
:10E03000C8208000F2E7626901332361934200D96E
:10E040006361280000F0F0FA0020E7E7002E06D117
:10E050000C38FFF7A5FD05E00C38FFF7A1FD20689F
:10E060008442F9D1280000F0DFFAFFF78DFEEBE7DC
:10E0700010B50021FFF7C6FF10BD0000014B1B606B
:10E080005B607047485CFF1F1100F0B5194321D059
:10E090001149026343630E684F6834003D00A418C1
:10E0A0005D410E498462C5628C460968614508D0AD
:10E0B000CC680D69A41BBD419D4202D8F5D19442A4
:10E0C000F3D903004A681C330262C16113604B60DC
:10E0D00063468363F0BDC046305CFF1F485CFF1F92
:10E0E000836B002B05D0C369026A13605A6000235A
:10E0F00083637047F7B506000F0000F091FA304CCB
:10E10000050022686368B6185F412E4B2660676081
:10E110001F682C4B9F424ED0206861683E003B68D0
:10E120001C3E0193B26AF36A121A8B41002B42DC47
:10E1300001D1002A3FD13B002C3318780238042843
:10E1400035D800F02DFC0E3423032E0001233000BF
:10E15000BB85FFF7C5FF31001B48FFF7A5FE019FF8
:10E16000D7E73000FFF7BCFF3B00103B5A681B6845
:10E170003100136014485A60FFF796FE134BBB85BD
:10E180003000FFF72DFC0023F364E8E73000FFF7D1
:10E19000A7FF3B00103B5A681B6813605A600C4B8A
:10E1A000EDE703233000BB85FFF79AFFD7E7012097
:10E1B00001F086FAD3E7280000F036FAF7BDC04632
:10E1C000305CFF1F485CFF1FE051FF1F0102000091
:10E1D00003020000036A0D4AF0B59C460C4C416AEC
:10E1E000136826686768934205D15A6842600360E5
:10E1F00010605860F0BD9C69DD69A41BBD418D4273
:10E20000F3D801D16445F0D81B68ECE7405CFF1FF0
:10E21000385BFF1F02000368481ED0B5052800D9EF
:10E220006AE000F0BDFB0320364C69591A003C320D
:10E230001278052A16D11C003D342278012A11D00B
:10E240009E6ADF6A2E4A1E625F62106851688019FA
:10E2500079412C4A9861D9619A601800FFF7BAFF9A
:10E2600001232370D0BD1A003C321278052AF9D15F
:10E270001A003D3211780029F4D09968002905D0A0
:10E280001968586801604860002199600023137084
:10E29000E8E79068D16804000C43E3D01C003C34EC
:10E2A0002478052CDED11C003D342478002CD9D1F3
:10E2B000D96298621169526919635A63D2E71900E9
:10E2C0003C3109780529CDD119003D310978002963
:10E2D000C8D112695A61C5E71A003C321178052984
:10E2E000C0D119003D3109780029BBD13E331B78DC
:10E2F000012BB7D11170B5E7012001F0E1F9B1E7C9
:10E30000385BFF1F405CFF1F10B501790400052931
:10E3100007D10339FFF77EFF04212000FFF77AFFC2
:10E3200001212000FFF776FF10BD0000F0B58BB093
:10E3300003AB04AF0193009701225242D317384830
:10E34000FFF7DAF8040000F0ABF8002C25D1354BCC
:10E35000186059603800FFF7D7FF334E3468B44275
:10E36000E6D000F09DF8A269E369121A8B41002BF8
:10E3700002DC0ED1002A0CD003A901910097284895
:10E38000FFF7BAF8040000F08BF8C9235B009C4249
:10E3900007D1244B186059600BE0012001F090F97F
:10E3A000D8E7002C34D11F4B186059603800FFF7B4
:10E3B000ABFF3468B442D0D0A269E369194D286834
:10E3C0006968121A8B41002BC7DC01D1002AC4D125
:10E3D0002369616920009847A368002B05D0236852
:10E3E000626813605A600023A360226B636B1100A4
:10E3F000194311D0286869682262636212184B4180
:10E40000A660A261E3612000FFF7E4FE2468D1E783
:10E41000012001F055F9CCE723003D331970F5E7F1
:10E42000F05AFF1F385BFF1F405CFF1F7FB50F4B8B
:10E430000F4A1B605B6014230E4900930E4804339F
:10E44000FEF7A0FF012305930C4B002204938023C9
:10E450009B0003930A4B0B49029300230A48009246
:10E460000193052301F004F907B000BD405CFF1FD4
:10E470000050FF1FEC440611F05AFF1F2D7BFF1FB9
:10E48000F052FF1FF8440611405BFF1F10B5FEF766
:10E4900041FF01200021FFF72DFEFFF785FD10BD94
:10E4A00070B500F0BDF8044B1C685D6800F0BCF866
:10E4B0002900200070BDC046305CFF1F10B5FFF77B
:10E4C000EFFF10BD7047F0B50125934001260468A9
:10E4D0006D428A4203D92C4023430360F0BD3700CC
:10E4E00097400132BD43D2B2F3E700007FB504226A
:10E4F0000F4B1A80FEF7FEFE0E48FFF799FCFFF760
:10E50000BDFD012305930C4B0022049380239B0047
:10E5100003930A4B0A49029300230A48009201938D
:10E520003D2301F0A5F8FFF781FF002007B000BDF3
:10E53000B85BFF1FE051FF1FDD6DFF1F545CFF1F25
:10E54000E2440611C05BFF1F70B50A4D03242B88FF
:10E55000042B0DD100210848FFF71AFD074B1A685C
:10E56000074B1A60FEF7D2FE2C8000F068F8023CE0
:10E57000200070BDB85BFF1FE051FF1F385CFF1F1C
:10E580005464FF1F10B500F04BF80A4A04001378DA
:10E59000BB2B09D9FA20800001F092F8200000F08E
:10E5A00043F8FA20800010BD0133137000F03CF8EE
:10E5B0000020F8E73C5CFF1F70B500F031F8124D09
:10E5C00004002B78002B04D100F02EF80F4801F046
:10E5D00077F82B78013BDBB22B70002B03D02000A7
:10E5E00000F022F870BD0A4B19780029F7D10948CC
:10E5F000FFF7CEFC084B1A68084B1B689A42EED016
:10E6000000F019F8EBE7C0463C5CFF1FE90300008F
:10E61000E452FF1FE051FF1F385CFF1F5464FF1FCF
:10E62000EFF3108072B6704780F3108870471E4871
:10E630001E49016070471C481C49016070471C4816
:10E6400002681C490A430260002080F309881648CA
:10E650001649016062B6FEE772B6EFF30980002842
:10E6600020D02438F0C044464D4656465F46F0C0A0
:10E670007446046020381049096808600E480F4944
:10E680000A680260106801461030F0C8A046A9462A
:10E69000B246BB46F0C901688E46043080F3098853
:10E6A00062B67047EAE7000004ED00E000000010E9
:10E6B00020ED00E00000C0C05464FF1F385CFF1F65
:10E6C00070B506000C1E17D00F23173199431E4B4F
:10E6D0000D001220994202D8080000F073F80230B1
:10E6E00000018459002C0BD12900184800F0E0FEED
:10E6F0000024300000F0F2F8200070BD1C00F1E7AB
:10E700002268A368AA42F9D3E1688B60A368002B52
:10E7100000D0D960501B0F280CD961194D60A21888
:10E7200053680860DB0FDB0703432560300053604C
:10E7300000F058F8802362681B06134363600834B6
:10E74000002CD6D1D0E7C046FFFF3F00034506119D
:10E75000F7B50190002934D008394B680C005E00F1
:10E760000B687608CA184E60576800931500002F92
:10E7700010DBD068936817688360D5199268002A07
:10E7800000D0D060009BDF196B682760DB0FDB07D0
:10E790003B436B60A61B7368002B0FDBF168B3680B
:10E7A0008B60002B00D0D9603368216859186B68E2
:10E7B0003160DB0FDB070B4331006B60019800F029
:10E7C00011F8F7BD064A03001220934203D8002037
:10E7D0001B09012B00D8704701305B08F9E7C046E0
:10E7E000FFFF3F0070B5050008680C00FFF7EAFF67
:10E7F00002010230000118324359AA18002B05D03B
:10E800001968002902D02068814206D39460E26032
:10E81000A360002B00D0DC6070BD1A009B68EDE7A0
:10E820000B00D0B50F24802608278A180F33C16843
:10E83000A343A243D41A36060919103CC1600361F0
:10E84000083A9C60D91934431F605E604F60426192
:10E8500017605460FFF7C6FFD0BDF8B507000D0084
:10E8600016000021982204001837C16052003800B9
:10E8700000F0D6FD22003932FF323B001033BB607E
:10E88000FF611F009A42F8D1320029002000FFF7F3
:10E89000C7FFF8BD4369F7B59C4600231F001E0063
:10E8A00004690193A44509D8C2680A60019A4F60BF
:10E8B00008328E600020CA600B61FEBD6268256868
:10E8C000002A04DA019A521901926419EAE7013721
:10E8D0005B19AE42F9D22E00F7E700007FB501A91F
:10E8E000FFF7D8FF044B049A19688A4200DD1A60CA
:10E8F000186807B000BDC04670BCFF1F014B186808
:10E900007047C04670BCFF1FF0B507000E00150031
:10E9100089B003A908481C00FFF7BCFF039B3B60BC
:10E92000069B33600193079B2B60FFF7E7FF206096
:10E93000002009B0F0BDC046E0CCFF1F70B5051F38
:10E9400004000E00EDB2632916D1002100F098FEFC
:10E950000B2D0AD92300123B0C2B06D90233012BB5
:10E9600005D80021200000F0ABFD002070BD012182
:10E97000200000F00DFEF8E70B2D09D90300123B33
:10E980000C2B05D902330021012B06D800F098FD8D
:10E990003100200000F06CFDE7E700F0F9FDF7E73B
:10E9A00002B4714649084900095C49008E4402BC22
:10E9B0007047C04680B584B000AFF860B9607A6037
:10E9C0007A68B968FB68180000F0A2FD030018001F
:10E9D000BD4604B080BD80B588B000AFF860B960B6
:10E9E0007A6000237B61FB68FB61BB68BB6112E05E
:10E9F000FB691B781A00BB691B78D31A7B617B69A2
:10EA0000002B0CD1FB690133FB61BB690133BB6196
:10EA10007B68013B7B607B68002BE9D100E0C0464E
:10EA20007B691800BD4608B080BD000037B5040002
:10EA3000C58A807900F098F9210000F0BDF90D4BEE
:10EA40002A331B789B060AD5607D00F0E1FC002884
:10EA500005D0437B033B012B02D900F0C9FC37BD35
:10EA600000F0C6FC012001A90D80488000F084FC64
:10EA7000F5E7C04638CEFF1F70B5050000F04EFC2C
:10EA8000041E05D10648002D04D0402100F0CAF92B
:10EA9000200070BD4121494200F0D0F9F8E7C0469E
:10EAA000A8CEFF1F10B50400034800F0B9F90123F8
:10EAB0002041184010BDC046A8CEFF1F020010B56F
:10EAC000811C26324078002300F05BFC10BD000062
:10EAD0000300F7B526330093871C00230500009A36
:10EAE0004078390000F00EFB394C2300B0331B781E
:10EAF000002B04D02200B13212789A4204D9B134EA
:10EB0000237801332370F7BD0221002000F010FDAF
:10EB1000061E0CD080212F48490200F083F90423FF
:10EB20006A7A300013436B7200F062FCEBE7062058
:10EB3000FFF7B8FF0190002802D03000FFF79CFFDC
:10EB40002300B1331B78002B12D126002300B136ED
:10EB5000B03332781B789A421DD100F018FC00289F
:10EB600015D01D4B1D4A02211D4800F0C1FD04E0D7
:10EB7000002000F00FFC0028E7D0012000F00AFC84
:10EB8000019B002BBFD00120FFF776FFBBE7337856
:10EB900001333370F1E768780023009A390000F000
:10EBA000F0FB002802D00C4B0E4ADCE733784734E8
:10EBB0000133337023785B07DFD568780122390091
:10EBC00000F0EBFB0028D8D0034B074ACBE7C04648
:10EBD00038CEFF1FA8CEFF1F10480611244806118B
:10EBE00032490611484806116C480611F0B5871CD9
:10EBF00085B005003900407800F09EFA354C2300BE
:10EC0000B0331B78002B05D02200B13212780133CB
:10EC10009A4205DDB1342378013B237005B0F0BD85
:10EC20000221002000F084FC061E0CD080212A481E
:10EC3000490200F0F7F808236A7A300013436B7238
:10EC400000F0D6FBEAE70620FFF72CFF0390002830
:10EC500002D03000FFF710FF002000F09BFB021EE7
:10EC600014D000901D4B1E4A02211E4800F040FDAA
:10EC7000B1342378002B02D0012000F08BFB039BE2
:10EC8000002BCBD00120FFF7F7FEC7E726002100BD
:10EC9000B136B03133780978994209D20220013B6C
:10ECA00033706B89104983436B8100F091FCDFE77F
:10ECB0006878390000F068FB002806D0074B0B4A43
:10ECC0000221084800F014FDD2E73378013B33708D
:10ECD000CEE7C04638CEFF1FA8CEFF1F1A48061148
:10ECE0008B48061132490611BD82FF1FBC48061130
:10ECF00070B50C1F23687546013B2360002B0AD1B9
:10ED000000F05EF806002A0003482100FFF720FD0E
:10ED1000300000F059F870BDE0CCFF1F3C2370B507
:10ED2000827974465A430E4B0E009B185B6B0A683F
:10ED30005B681B68934200D91300336000F040F811
:10ED400031682200050004310648FFF7B9FC0400D1
:10ED5000280000F039F8201E01D0012308C070BD42
:10ED60008094FF1FE0CCFF1F3C235843014BC01889
:10ED70007047C0468094FF1F70B504001500FFF770
:10ED80004FFC00232B60236A002B0CD12562E56128
:10ED9000FFF74AFC2000FFF76BF920000421243024
:10EDA00000F016F870BD1D602562F1E710B50A008D
:10EDB0000021FFF7E1FF10BD10B5FFF7F7FF10BD11
:10EDC00010B5FFF72DFC10BD10B5FFF72DFC10BDE1
:10EDD000036898420DD058681A680260506000229B
:10EDE0009A605A7B100901430F20090102400A432F
:10EDF0005A73704770B50500FFF7E2FF2C68631C7B
:10EE00002B60FFF7E1FF200070BD70B50500FFF734
:10EE1000D7FF2C68631E2B60FFF7D6FF200070BD64
:10EE20000068704770B506000C00FFF7C9FF356831
:10EE30002C433460FFF7C8FF280070BD70B5060092
:10EE40000C00FFF7BDFF35682C403460FFF7BCFFB6
:10EE5000280070BD264B274A10B51A608023264A29
:10EE60001B0411680B431360244A254B1A60254B81
:10EE70001B68186A00F0F4FA234B244A1A60244BEA
:10EE8000244A1A60A022244B52001A60234B18789F
:10EE9000C0B200F0D5FB2249022000F0A1FB2149BD
:10EEA000032000F09DFBFF2000F07AFB012000F022
:10EEB000BFFAFA20400000F00BFC582000F0E8FBFD
:10EEC000194800F01DFB012000F00AFC072000F0AB
:10EED0001FFCFF2215490B6893431A008823134334
:10EEE00010220B60124B1A600C3A1A6010BDC0461B
:10EEF000080000409021E90148F0004020B81F5070
:10EF000040F0004088CCFF1F000003400180063D18
:10EF1000BC00034034080000A4000340E312FF1FBC
:10EF20007102000040420F00307500005CF00040AC
:10EF300000E100E010B50E4C05231B221F210D48F7
:10EF4000FFF7C1FA20000C4B07221021FFF7BBFA94
:10EF50000622012311002000FFF7B5FA0123074A1A
:10EF600011680B4313602268054B1343236010BDE7
:10EF70001CF0004014F00040FB03000024F00040AF
:10EF800004003E00F0B593B000F04AFB00F068FBCF
:10EF90003A4A0121582000F0F3FA11248027013C5D
:10EFA000E4B2002C67D00126354B364D01932B6817
:10EFB0000620B3432B6000F053FA334A33481368FA
:10EFC0003B4313602B6833432B608025AD000368FF
:10EFD0002B4204D1019B591E0191002BF7DC002329
:10EFE0000199994208DB7E20294B1B681168DB0BD5
:10EFF000034081431943116011685B08B9431160F4
:10F00000372BCCD8042BCAD902AD402200212800CE
:10F0100000F006FA0026102000F022FA1D4BB20084
:10F020001B6801369B049B0CAB50082EF3D10723C1
:10F030002A000021106856680131B04201D91660DB
:10F04000506004329942F5D3013B002BF0D11A00F5
:10F05000114899006958461A814201D90F4E8E19FC
:10F06000642E9CD801335218042BF2D10C4B920819
:10F07000D218C62A93D813B0F0BDC046F812FF1FAD
:10F08000983A00005CF0004018F0004068F0004042
:10F0900060F0004064F00040420F0000BEF0FFFF4F
:10F0A00021F1FFFF144B10B51B68144A986B144BE9
:10F0B000062805D8FFF774FC11110415191D11005D
:10F0C0001021116004221A60FFF734FFFFF7C2FE1F
:10F0D00000F00EFAFFF756FF10BD20211160052247
:10F0E000F1E7302111600022EDE740211160062296
:10F0F000E9E76021F6E7C04688CCFF1F2010FF1F1C
:10F100002410FF1F10B51400074B06221870074883
:10F1100000F0FEF910222100054800F0F9F9012263
:10F12000044B00201A6010BD86CFFF1F87CFFF1F42
:10F130008DCFFF1F24C9FF1F10B5172200210348E0
:10F1400000F076FA0020024B186010BD86CFFF1F3A
:10F1500024C9FF1FF0B50400FF3C661EB441C1B0D6
:10F160006F460426D51C023464193E707870FF285F
:10F170000ED0B98019000E48BD700078F870B81D27
:10F1800000F0C6F92100684600F056F841B0F0BD25
:10F19000901CB8701878F980F870587838719878A1
:10F1A0007871032AEED9033AD91C02A8E8E7C046D1
:10F1B0001990FF1F10B513000A0001000E20FFF781
:10F1C000C9FF10BD73B50500140000281CD000292C
:10F1D0001AD0002A18D01388002B15D00F4B1B789B
:10F1E000012B09D10E4E3088002801D100F078F9AA
:10F1F000AD006519AC4201D1002076BD238831886D
:10F2000004345B183380F5E76B46DA1D12230121C5
:10F2100004481370FFF7CEFFEEE7C046A6CFFF1FEE
:10F22000A8CFFF1F350C000010B50248FEF720FFE5
:10F2300010BDC0461CCBFF1FF8B505000E0000280E
:10F2400013D0002911D003788FB2042B10D143784A
:10F250003E2B0DD1C378022B0AD11D484388994219
:10F2600013DD1C4A536A01335362FFF7DDFFF8BD1B
:10F27000194843889E42F4DC00F092F8041E0DD138
:10F28000144A936801339360EFE700F089F8041E95
:10F2900004D1104A536901335361E6E73200290073
:10F2A000E068FFF787FB6781FFF7BAF900220B4B95
:10F2B00022601B681A6B002A06D11C63DC62FFF710
:10F2C000B3F9FFF7B1FFD0E714601C63F7E7C0465E
:10F2D0001C90FF1F08C5FF1F3890FF1F18CBFF1F92
:10F2E00010B500F045F90400094B1868002800D15A
:10F2F00010BD00F03DF9844205D8001B054B984233
:10F30000F2D90C20F4E7044B001BC018F6E7C04606
:10F310005812FF1FA086010040420F0070B5060082
:10F3200000F026F90500002E16D1300000F010F98B
:10F330000400212814D10D4E3378052B10D100F094
:10F3400017F985420ED8401B094B984208D83378EC
:10F35000052BF4D0002403E0FFF7C2FF041EE4D025
:10F36000200070BD034B401BC018EDE72312FF1FA8
:10F37000A086010040420F0010B58A1CFFF722FF53
:10F3800010BD86204042704786204042704786204C
:10F390004042704786204042704786204042704776
:10F3A00070B50400051E17D0FFF73AF9E568002D87
:10F3B00010D02B682269E360954200D123610123BC
:10F3C0002B7200232B606368A26801336360934251
:10F3D00000D9A360FFF728F9280070BD00000000E5
:10F3E00001B40248844601BC604700BF69020000C6
:10F3F00001B40248844601BC604700BFD132061107
:10F4000001B40248844601BC604700BFF5FD051108
:10F4100001B40248844601BC604700BFDD320611DA
:10F4200001B40248844601BC604700BF17030000D6
:10F4300001B40248844601BC604700BF552001006A
:10F4400001B40248844601BC604700BFF9FD0511C4
:10F4500001B40248844601BC604700BFA599000082
:10F4600001B40248844601BC604700BFD58000005B
:10F4700001B40248844601BC604700BF690A061116
:10F4800001B40248844601BC604700BF1908061158
:10F4900001B40248844601BC604700BFD1FA05119F
:10F4A00001B40248844601BC604700BF3D340100FE
:10F4B00001B40248844601BC604700BFA5030611A1
:10F4C00001B40248844601BC604700BFDD0A061152
:10F4D00001B40248844601BC604700BF750F0611A5
:10F4E00001B40248844601BC604700BF754100007A
:10F4F00001B40248844601BC604700BFA15001002E
:10F5000001B40248844601BC604700BF7920010075
:10F5100001B40248844601BC604700BFC13C010001
:10F5200001B40248844601BC604700BFF5EF0511F5
:10F5300001B40248844601BC604700BF8532061111
:10F5400001B40248844601BC604700BF55900000EA
:10F5500001B40248844601BC604700BF85670000D3
:10F5600001B40248844601BC604700BF4DEF05115D
:10F5700001B40248844601BC604700BF8D440100CD
:10F5800001B40248844601BC604700BFF550010049
:10F5900001B40248844601BC604700BF190A061145
:10F5A00001B40248844601BC604700BF49560100CF
:10F5B00001B40248844601BC604700BF693F0100B6
:10F5C00001B40248844601BC604700BF51230100DA
:10F5D00001B40248844601BC604700BF4D360611A5
:10F5E00001B40248844601BC604700BFC156010017
:10F5F00001B40248844601BC604700BF8144010059
:10F6000001B40248844601BC604700BF69020000A3
:10F6100001B40248844601BC604700BF31FE0511B9
:10F6200001B40248844601BC604700BF754901002F
:10F6300001B40248844601BC604700BFED3C0100B4
:10F6400001B40248844601BC604700BFCDCD000034
:10F6500001B40248844601BC604700BFF156010076
:10F6600001B40248844601BC604700BFC552010096
:10F6700001B40248844601BC604700BFC10D0611B9
:10F6800001B40248844601BC604700BF410A06112C
:10F6900001B40248844601BC604700BF3921010023
:10F6A00001B40248844601BC604700BF9D190100B7
:10F6B00001B40248844601BC604700BF9556010072
:10F6C00001B40248844601BC604700BFB10B06117B
:10F6D00001B40248844601BC604700BF45210100D7
:10F6E00001B40248844601BC604700BF8D2101007F
:10F6F00001B40248844601BC604700BF09F9051106
:10F7000001B40248844601BC604700BFFDFD0511FD
:10F7100001B40248844601BC604700BFE91D0100F6
:10F7200074657374206973206D65737361676520F8
:10F73000300074657374206973206D65737361673D
:10F740006520310074657374206973206D6573736F
:10F7500061676520320074657374206973206D657C
:10F760007373616765203300746573742069732057
:10F770006D6573736167652034007468697320690F
:10F780007320616E206572726F720000800000004D
:10F79000000000003E4306110000000000000000D1
:10F7A00085F5051125F70511000000004DF4051140
:10F7B00035F40511F5F3051151F30511A5F5051102
:10F7C00061F3051149F3051157F30511000000001D
:10F7D000434306114443061100000000C1F6051121
:10F7E00025F7051105F605119FF6051193F605118C
:10F7F0007DF6051167F6051125F6051109F60511C7
:10F800000600000041FE05110008FF1F7D0B0611D8
:10F81000800A002000000000010100000F002E00FF
:10F8200000000000000000000000000000000000D8
:10F8300028C9FF1FB0F7FF1F1000000100000000E3
:10F8400000000000000000000000000018CAFF1FB8
:10F8500080FAFF1F5890FF1F000000004493FF1F15
:10F86000AC93FF1F1494FF1F000000000000000075
:10F870000000000000000000000000000000000088
:10F880000000000000000000000000000000000078
:10F890000000000000000000000000000000000068
:10F8A0000000000000000000000000000000000058
:10F8B0000000000000000000000000000000000048
:10F8C0000000000000000000000000000000000038
:10F8D0000000000000000000000000000000000028
:10F8E0000000000000000000000000000000000018
:10F8F0000000000000000000000000000000000008
:10F9000001000000000000000E33CDAB34126DE6A4
:10F91000ECDE05000B00000000000000000000000D
:10F9200000000000000000000000000000000000D7
:10F9300000000000000000000000000000000000C7
:10F9400000000000000000000000000000000000B7
:10F9500000000000000000000000000000000000A7
:10FCA000000000000000000000000000040004004C
:10FCB0002D82FF1FF048061160C5FF1F00000000E5
:10FCC0000000000000000000000000000000000034
:10FCD0000000000000000000000000000000000024
:10FCE0000000000000000000080008000000000004
:10FCF0004049061128C7FF1F000000000000000057
:10FD000000000000000000000000000000000000F3
:10FD100000000000000000000000000000000000E3
:10FD20000000000002000200000000004849061127
:10FD3000E8C7FF1F000000000000000000000000F6
:10FD400000000000000000000000000000000000B3
:10FD500000000000000000000000000000000000A3
:10FD600002000200000000000048061130C5FF1F1D
:10FD70000000000000000000000000000000000083
:10FD80000000000000000000000000000000000073
:10FD9000000000000000000000000000030003005D
:0CFDA00000000000F8480611C0C5FF1F5D
:040000051104B00032
:00000001FF
