:020000041105E4
:10D000008446101C62468C46191C634600E0C046EC
:10D010001FB501F035F8002801D40021C8421FBD1A
:10D0200010B500F089FF4042013010BD10B501F08D
:10D0300027F8002801DB002010BD012010BDC046EC
:10D0400010B501F01DF8002801DD002010BD012001
:10D0500010BDC04610B500F0AFFF002801DC002075
:10D0600010BD012010BDC04610B500F0A5FF00287E
:10D0700001DA002010BD012010BDC046002B11D1E7
:10D08000002A0FD1002900D1002802D00021C94375
:10D09000081C07B4024802A14018029003BDC04614
:10D0A000CD1D000003B4684601B5029800F006F8F3
:10D0B000019B9E4602B00CBC7047C046F0B5574677
:10D0C0004E464546DE46E0B5040083B00D0092466C
:10D0D00099468B4230D82DD04946504601F0E6FEA5
:10D0E00029000600200001F0E1FE331A9846203B9B
:10D0F0009B4633D45A465346934042461F005346FC
:10D1000093401E00AF423AD8AF4200D17BE05B466D
:10D11000A41BBD41002B00DA78E00022002300921E
:10D12000019301235A4693400193012342469340C1
:10D13000009328E08242CFD900220023009201937D
:10D140000C9B002B01D01C605D600098019903B01E
:10D150003CBC90469946A246AB46F0BD42462023D1
:10D160009B1A5246DA40414613004A468A4017004D
:10D1700042461F43534693401E00AF42C4D900228B
:10D180000023009201934346002BD9D0FB079C4615
:10D19000614672080A437B0846460EE0AB4201D165
:10D1A000A2420CD8A41A9D41012024196D410021EE
:10D1B000013E24184D41002E06D0AB42EED9013E6F
:10D1C00024196D41002EF8D1009801995B46001991
:10D1D0006941002B25DB2B005A464446D3402A00E8
:10D1E000E2401C005B461500002B2BDB26005F464F
:10D1F000BE40330026004746BE403200801A9941A7
:10D20000009001919CE7A342B9D880E742462023D1
:10D2100000219B1A0022009101920122DA40019222
:10D2200083E7424620239B1A2A0046469A40230061
:10D23000F340444613432A00E2401C005B461500BD
:10D24000002BD3DA2023424626009B1ADE402F0013
:10D25000B4464646B74066463B003343CAE7C0463D
:10D26000F8B54746CE460E034D00760ACC0F410F67
:10D2700031438946190380B5490A570F5E000F43B1
:10D280006D0DC000760DDB0FB846D2009C4200D178
:10D29000A3E0AF1B002F00DC83E0002E00D1C0E034
:10D2A000B94B9D4200D14FE1802341461B041943F5
:10D2B0008846382F00DD2DE11F2F00DDE7E1202318
:10D2C00011004646DB1B9E40F9409A400E43414602
:10D2D000531E9A41F9404B465B1A99463243871ACE
:10D2E000B84280414B464142591A0B0200D4D6E065
:10D2F00049024E0A002E00D1FFE0300001F0B8FDD7
:10D300000300083B20223900D21A9E40D1409F40A2
:10D310000E439D4200DDE9E05D1B6B1C1F2B00DD11
:10D32000A6E12021C91A3D0030008F408840DD4031
:10D33000791E8F4131002843D940002507437B07E0
:10D3400009D00F233B40042B05D03B1DBB42BF41FE
:10D350007F42C9191F000B0200D477E26A1C8A4B76
:10D3600055056D0D9A4200D1A2E0884AFF080A4097
:10D370005007384384465202120B00211203130B4C
:10D380000A0D12051A43824B2D0513402B435B00F7
:10D39000E4075B082343604619000CBC904699469D
:10D3A000F8BD002F4BD17B4E691C314200D0B7E055
:10D3B0004646494616430143B446002D00D0EEE1EF
:10D3C000002900D1AFE1002E00D0F0E14B46C008AB
:10D3D0005F070743BC46D908D1E0AB1B002B6CDDCF
:10D3E000002E3ED068498D4200D1B9E180213E0037
:10D3F00009040E43B046382B00DD1DE11F2B00DC75
:10D4000062E1190046462039CE40202B04D040214D
:10D41000CB1A414699400A4317007A1E9741374379
:10D420000FE14346134300D19FE07B1E002B00D148
:10D430008CE155498F4200D186E01F0039E7771B08
:10D44000002D00D0D0E04946014300D158E1791EBB
:10D45000002900D100E24C4CA74200D149E20F0064
:10D46000CBE03900114300D181E1591E002900D1E0
:10D4700039E1454EB34200D172E10B00BBE7424BAC
:10D480009E4200D119E2821882428041494635000D
:10D49000414440420918CF075208174349087B0707
:10D4A00000D04EE74807FF080743BC46C90863E0C1
:10D4B0001500002300229C465FE7002B6CD1354B02
:10D4C0006E1C1E42DBD14B460343002D00D020E1F1
:10D4D000002B00D1CBE13B00134300D0CEE14B4603
:10D4E000C0085F0738438446D90848E02749ED1A49
:10D4F00031407B0700D024E7D4E7380001F0B8FCC6
:10D50000030018331F2B00DCFCE63E000838864081
:10D510000027FEE6434613431A00571EBA41DEE6D3
:10D5200049464646871A8E1BB84289414942761AB7
:10D53000310200D529E13B0033439C4600D0D9E6B7
:10D540000021002400251AE04B46C0085F0707436E
:10D55000BC46D90863460B4300D1EFE18022120399
:10D560000A431203120B084D07E74B46C0085A073F
:10D57000024394463D00D908034B9D42EAD00A037A
:10D580006D05120B6D0DF8E6FF070000FFFF7FFF32
:10D59000FFFF0F80FE070000731B002D00D185E008
:10D5A000D8498E4200D179E180214D4609040D43CE
:10D5B000A946382B00DD0EE11F2B00DDA6E120215E
:10D5C000C91A05004F4688408F40411E8841494690
:10D5D000DD40D9402F4307438844BF18974292410A
:10D5E00051424144350031E0C6498E4200D1A5E0A8
:10D5F00080214C4609040C43A146382F00DDBEE0D3
:10D600001F2F00DDEDE020210500C91B4C4688409E
:10D610008C40FD40411E884149462C432043F9403F
:10D620004446611A8846171ABA429241414652420C
:10D63000891A1C00350058E6434613431F007A1E22
:10D6400097413F1887428041414249440B0200D430
:10D6500025E7AC4B01359D4200D12AE7AA4A7B0859
:10D660000A4001210F401F43D3071F43510866E6BC
:10D6700030001F3DE840202B03D04021CB1A9E40B4
:10D6800037437B1E9F4100210743002507E73B00EE
:10D690004646203BDE40202F04D040234146DB1B82
:10D6A00099400A43571EBA41324318E6494601439E
:10D6B00000D1FAE0591E002900D137E1914DAB426B
:10D6C00000D1EBE00B0074E72021C91A1600474691
:10D6D0008A408F40511E8A414146DE40D94037433F
:10D6E00017438944ADE78718494687429B41414427
:10D6F0005B42C91801250B0200D4D0E60225ADE734
:10D700004146D208480710438446C9081C003D0022
:10D7100032E7002B00D0D5E03B00D2087F0717434B
:10D72000BC46D90816E7002E00D18CE04146D2084D
:10D730004F073A439446C9081C0020E74146D208E7
:10D740004F071743BC46C9081C0003E7871A4B461E
:10D750004246B8428041991A4042091A0125C4E55F
:10D760004B46C0085F0738438446D908F2E64A466C
:10D77000C008570738438446D1081D00FCE64946D7
:10D7800001430800471EB8414DE7171A4146484675
:10D79000BA42B641091A76428E1B1C00AAE500293E
:10D7A0002ED1002ECAD1802100240903D6E6494695
:10D7B0004646871A8E1BB84289414942711A0E02A9
:10D7C0003CD5171A41464846BA429241091A52427C
:10D7D000891A1C00B3E54B4603431F00781E87419E
:10D7E000FBE639004C462039CC40202F04D04021A4
:10D7F0004D46C91B8D402843411E8841204312E7F6
:10D800004946C0084D072843C908002E44D080254A
:10D810002D03294208D04646F7082F4204D11C00A8
:10D820003900D20870071043CA00430F1A43C000E2
:10D830005707C0080743BC46D1088BE63B000B43A3
:10D840009C4600D02BE60021002498E64B07FF08F9
:10D850001F43BC46C9088FE6171A41464846BA42DC
:10D860009241091A5242891A1C0001253DE53B00EC
:10D87000D2087F071743BC46D90880E68718494677
:10D8800087429B4141445B42C9180B0200D406E623
:10D890001D4B0125194002E684465BE64346D2084B
:10D8A0005F073A439446D90854E63900D2087F0707
:10D8B0001743BC46C9081D005EE600233500002260
:10D8C0009C465AE54B465F07D9084346C0081343B8
:10D8D0003843002BE0D080231B031942A4D04546D7
:10D8E000ED081D42A0D14346D20858071043290035
:10D8F0009AE74146D2084F073A439446C9081C00AC
:10D9000028E6C046FF070000FFFF7FFF19004D46D5
:10D910002039CD40202B04D04021CB1A49469940D4
:10D9200008430700781E87412F4356E6871849466B
:10D9300097429B4141445B42C918DBE60023024DFC
:10D940009C461A0019E5C046FF070000F0B557468F
:10D950004E464546DE46E0B50F0381461E000400F4
:10D960003B0B480085B092469846400DCD0F0028ED
:10D9700000D1B6E08B4B984200D1D2E04346670F0E
:10D98000DB001F4380231B041F43874B00979B46EC
:10D9900000239846E4008344019333031B0B99460C
:10D9A000730052465B0DF60F002B00D178E07D49E5
:10D9B0008B421AD0510F4A467B48D200114384460D
:10D9C0008022584612046344C31A114352469B46B0
:10D9D0000020D2002B0073409A4643460F2B00D9FB
:10D9E000F4E0724F9B00FB589F464B46514619434B
:10D9F0006F4B9C46E344002900D0B5E04246022329
:10DA00001A43904602200022E4E7350014000091FA
:10DA10000190019B022B00D112E2032B00D175E291
:10DA2000012B1DD0AA46634E5E44002E00DCE0E1CF
:10DA3000630700D015E2E408009AD30105D58026DB
:10DA40005D4BF6001A4000925E445C4B9E4223DC24
:10DA5000009A7605530757021C433F0B730D03E0F2
:10DA6000AA4600230027002400213F033E0B0F0D90
:10DA70003F0537431E05524B20001F4053463E438F
:10DA80007600DB0776081E43310005B03CBC9046AB
:10DA90009946A246AB46F0BD424B00270024E3E77F
:10DAA0004946114359D04B46002B00D190E14846DE
:10DAB00001F0DEF902000B3A08235B429C468444E5
:10DAC0006346494699401D239B1A5246DA406346F5
:10DAD000114352469A403B4B58449B468344002096
:10DAE00078E71F00274300972FD04346002B00D133
:10DAF0005EE1404601F0BCF902000B3A1D23010033
:10DB00009B1A47464A464C4608398F40DA408C40BB
:10DB1000174300972C4B1B1A9B46002398460193F2
:10DB20003BE74F4643461F43009706D108239846DC
:10DB3000063B0024834601932FE7434600930C23C2
:10DB40009846093B8346019327E704239846002320
:10DB50009B460133002401931FE7424601231A43E9
:10DB600090460120002235E74146032319438846A9
:10DB7000032049462EE7002380279A463F030024CE
:10DB8000084B71E7802300981B03184200D1EAE09C
:10DB9000194200D0E7E00B431F033F0BB2461400CD
:10DBA000004B61E7FF07000001FCFFFF1842061170
:10DBB00001F8FFFFFF030000FFFFFFFEFE0700006C
:10DBC000FFFF0F80F30300000DFCFFFF009B994255
:10DBD00000D2E6E000D1E1E001235B429C46250053
:10DBE00000260098E344130E09020B4399461302E2
:10DBF00098464B461C0C1B041B0C2100019306F09D
:10DC0000FBF9019A0B044243290C070019438A428D
:10DC100007D94944013F894503D88A4201D9871E63
:10DC20004944881A210006F0E7F909048C462904C2
:10DC30006546019A090C4243030029438A4204D9EC
:10DC40004944013B894500D805E13F041F43891A37
:10DC500043463A00380C00971F0C13044246120446
:10DC6000150C2A001B0C5A4302977B43039545432E
:10DC70007843170CBC465B1963449D4203D9802549
:10DC80006D02AC4660441D0C281815041B042D0CB5
:10DC90005D19814272D36FD0751B091AAE42804163
:10DCA000A14E4042081A5E44814500D100E12100A6
:10DCB00006F0A2F90200019B07005A430B04290C4D
:10DCC00019438A4208D94944013F894504D88A4208
:10DCD00002D9831E1F004944881A210006F08CF9DE
:10DCE000019A0C0442432904090C030021438A428F
:10DCF00007D94944013B894503D88A4201D9831E8B
:10DD00004944039D3C041C432B00891A2204120C35
:10DD10005343029F200C45437A4378431F0CBC4673
:10DD200052196244954203D980256D02AC46604485
:10DD3000150C1B0412041B0C2818D218814206D3A0
:10DD400002D001231C4370E6002A00D16DE649444D
:10DD5000631E494500D296E0814200D2ADE000D179
:10DD6000DDE01C00EDE78026009F360337433F03CC
:10DD70003F0BAA466D4B77E6AE428DD2009B4644E0
:10DD80005A1E46459B415B424B44C91889455CD2AB
:10DD9000884200D982E07ED000927DE7A24200D97D
:10DDA0001AE7009B6508DF0758083D43E6071AE7B6
:10DDB000484601F05DF803001A00153220301C2A95
:10DDC00000DC9BE64F46083B9F4000240097A1E6FD
:10DDD000504601F04DF803001A00153220301C2A7D
:10DDE00000DC69E65146083B9940002273E60124B5
:10DDF00064420121891B382900DD32E61F2966DCD7
:10DE0000009D22002B004A48CA4058448340844069
:10DE10001343621E9441CD4023432F005A0709D07B
:10DE20000F221A40042A05D01A1D9A429B415B42D8
:10DE3000FF1813003A0262D501230027002413E6DD
:10DE4000AA463A4B002700240EE68945A4D1B045E6
:10DE50009ED9009220E78A4200D8F6E6831E494404
:10DE6000F3E60F232340042B00D1E4E505235B42B6
:10DE7000A3429B4104345B42E408009A94469C44CC
:10DE800063460093D8E51C00814200D059E7424523
:10DE900000D056E7C9E5B54200D87DE7009B46446F
:10DEA000023B009346459B415B424B44C918F3E655
:10DEB000002E9CDD00240123DFE743465D0045453D
:10DEC0009B415B424B44023CC918A846DCE71F2239
:10DED0005242961B009A1300F340202903D01548A4
:10DEE000584482401443621E944123430724002770
:10DEF0001C4007D00F2200271A40042A94D17C0727
:10DF00007F023F0BDB081C430023ADE58023009F0D
:10DF10001B031F433F033F0BAA46044BA4E5904558
:10DF2000CBD31C00B3E7C046FF030000FF0700008F
:10DF30001E0400003E040000F0B54E464546DE4695
:10DF400057461C03E0B5240B1A4E0F034D00A146A3
:10DF50005C00DB0F84463F0B6D0DC90F9046640DCE
:10DF60009B46B5421AD0B44210D00126A5420ED12C
:10DF70004F450CD10126C44509D1594518D0002D73
:10DF800005D138430600701E864100E001263000AE
:10DF90003CBC90469946A246AB46F0BD3B000126EC
:10DFA0000343F4D1AC42F2D14B461343EFD1E1E746
:10DFB0000026ECE7FF070000F0B54F464646D64680
:10DFC0004D00C0B50E03C90F8A462C491F035C00E3
:10DFD0008046360B6D0D91463F0B640DDB0F8D4275
:10DFE0001ED08C4216D0002D1ED130438446002C0A
:10DFF00001D13A4323D06246002A1AD09A4529D04B
:10E00000514602200139084001381CBC904699460F
:10E01000A246F0BD39001143E5D002204042F4E7AA
:10E020003043FAD1AC420FD0002C0FD13A43E7D0A5
:10E030000CE00122013B934318000130E5E7634601
:10E040000020002BE1D0DBE73A43E6D19A45D7D157
:10E05000A542D5DCA54205DBBE42D1D808D00020C0
:10E06000BE42D2D250460123013898430130CCE75A
:10E07000C845C5D80020C845C7D2F3E7FF07000050
:10E08000F0B54F464646D6464D00C0B50E03C90F03
:10E090008A462C491F035C008046360B6D0D914665
:10E0A0003F0B640DDB0F8D421ED08C420CD0002D37
:10E0B0001ED130438446002C0BD13A4309D163462C
:10E0C0000020002B2FD009E039001143EFD00220AF
:10E0D00029E06246002A21D09A4511D051460220FB
:10E0E0000139084001381EE03043F0D1AC421FD066
:10E0F000002C01D13A43F1D09A45EFD1A542EDDC95
:10E10000A54205DBBE42E9D816D00020BE420AD2A5
:10E110005046012301389843013004E00122013BBD
:10E120009343180001301CBC90469946A246F0BDAE
:10E130003A43E1D00220F6E7C845CFD80020C845D1
:10E14000F1D2E5E7FF070000F0B557464E464546D9
:10E15000DE46E0B50C0381461F000500230B480096
:10E1600087B092469846400DCE0F002800D17CE043
:10E170007D4B984200D196E043466C0FDB001C4378
:10E1800080237A4A1B041C43944603006344019392
:10E19000002398469B46ED003B031B0B99467A00F3
:10E1A000FB0F5146520D029300D187E06E4B9A420D
:10E1B00022D06E484B0F84460198624484464946FB
:10E1C00094446246C9000B43802101920022090455
:10E1D0000B4351469446C9003200029842400198D0
:10E1E0000130039040460F2800D9C7E080008046E8
:10E1F00047465F48C05987464A4653465A481343E4
:10E200008446019A62440192002B00D08CE00222E5
:10E2100041461143884694460021DDE7029A1C00DE
:10E220000D00E3465B46022B6BD0032B00D1FFE1D0
:10E23000012B00D065E100260024002500212403E5
:10E24000230B0C0D24051C434A4B36052340334356
:10E250005B00D2075B0813432800190007B03CBCE1
:10E2600090469946A246AB46F0BD1C002C4353D0C5
:10E270004346002B00D181E1404600F0F9FD020049
:10E280000B3A1D2301009B1A44464A464D46083965
:10E290008C40DA408D401443374B1B1A0193002306
:10E2A00098469B4678E74C4643461C432DD10823AD
:10E2B0009846063B002501909B466DE74B460122A0
:10E2C0000B43A5D04B46002B00D147E1484600F058
:10E2D000CFFD02000B3A1D27BA1A57460100D7405E
:10E2E000524608394B468A408B4011003B43019A05
:10E2F000214F101ABC46020062440192002294464B
:10E300006AE7194E0024002598E70C2344469846F6
:10E31000093B01909B463FE7042398460023019365
:10E32000013300259B4637E7032342461A439046B4
:10E3300003224B4694464FE7320073E780240022C5
:10E3400024030025084E79E780221203144200D1ED
:10E35000FCE0134200D0F9E01A431403240B029AA4
:10E360000D00014E6AE7C046FF07000001FCFFFFF9
:10E3700058420611FFFF0F800DFCFFFF2F0C2D04EC
:10E380002D0C28000E0C0904090C48438046080097
:10E3900078438146300078430290280070438446D9
:10E3A0004046000C8246CC44D444E14507D902984B
:10E3B0008246802040028146CA4450460290604610
:10E3C000000C834660460004844640460004000C6E
:10E3D0008046604640440490180C804628001B0488
:10E3E0001B0C5843844618007843814640467843C6
:10E3F00082464046454360464D44070C7D19A94579
:10E4000003D9802040028146CA4460462F0CBA449A
:10E4100007043F0C2D04ED19AB445846270C240487
:10E42000240C0590200048437943894639008446EE
:10E43000000C8346714366434E445E44B14503D9A4
:10E440008020400281464944300C814660460004E9
:10E45000000C844620005843494481464046784396
:10E460003604664484464046444348467B43070C92
:10E47000E4183C19A34203D980235B029846C444A4
:10E480000598029B804648460004000C43448146A0
:10E49000AB42AD419B19B342B64127044F446D4294
:10E4A00057447819804676428B46B146C344D944D6
:10E4B0005745BF41A845AD418B458941B145B6415E
:10E4C0006D427F422F43240C4942764231433C192E
:10E4D000641849466444C90D64020C4304995D0202
:10E4E0000D43691E8D41DB0D1D434B465B021D43F1
:10E4F000E3017AD501216B080D401D43E3071D435D
:10E5000064084F4B0399CE18002E46DD6B0709D0E7
:10E510000F212940042905D02B1DAB42AD416D428E
:10E5200064191D00E30105D5464B03991C40802367
:10E53000DB00CE1844498E4200DDE2E66307ED08B9
:10E54000640276051D43240B760D77E680231B03BA
:10E550001C4324033200240B3C4E6FE6504600F06F
:10E5600087FC03001A00153220301C2A00DCB2E6BA
:10E570005246083B9A4000211300B8E6484600F096
:10E5800077FC03001A00153220301C2A00DC78E6E4
:10E590004C46083B9C4000257EE60121891B38291A
:10E5A00000DD48E61F2923DC294B2E009C46039BF7
:10E5B000CE4063441800230085408340681E854197
:10E5C00033432B43CC40590709D00F21194004296C
:10E5D00005D0191D99429B415B42E4180B002102B2
:10E5E0001FD501260024002528E6019B039388E718
:10E5F0001F235B429E1B2300F340202905D01549B1
:10E600008C46039961448C402543691E8D412B4300
:10E61000072500241D4007D00F210024194004299C
:10E62000D7D165076402240BDB081D43002605E6ED
:10E6300080231B031C432403240B044EFEE5C04629
:10E64000FF030000FFFFFFFEFE070000FF070000C2
:10E650001E0400003E040000F0B5574645464E46F5
:10E66000DE46E0B50F037F0A450F3D43AC465D0033
:10E670004E00CC0F690D8A461F03CC49550F83B05D
:10E68000C0007F0AD200760D8046DB0F2F43019237
:10E690008A4500D1C0E05546751BA9460125AB4609
:10E6A0005D466B409B469C4200D190E04D46002D5C
:10E6B00000DCBBE05346002B00D1D5E08E4200D1F8
:10E6C000B5E180231B041F434B46382B00DD8BE153
:10E6D0001F2B00DD36E2494620233D005B1A110066
:10E6E0009A409D40531E9A414B46A8464D46DF40F6
:10E6F0006346E9404546DB1B9C460D431543451BDD
:10E70000A842804163464142591A0B0200D40DE1F0
:10E7100049024B0A98464346002B00D157E1404638
:10E7200000F0A6FB0300083B202229004746D21A2E
:10E730009F40D1409D400F439E4200DD40E19E1B23
:10E74000731C1F2B00DDD2E120222800D21A3900D1
:10E7500095409140D8406A1E954101430D433900D0
:10E760000026D9406B0709D00F232B40042B05D07E
:10E770002B1DAB42AD416D4249191D000B0200D467
:10E78000D7E0721C894B5605760D9A4200D1DFE026
:10E79000874FED080F407807284382467A02120B14
:10E7A00000211203130B0A0D12051A43814B360583
:10E7B000134033435B00E4075B08234350461900D2
:10E7C00003B03CBC90469946A246AB46F0BD4D46D0
:10E7D000002D5CDD5346002B00D18BE08E4200D132
:10E7E00016E280231B041F434B46382B00DD8EE1CD
:10E7F0001F2B00DCC0E13900203BD9404B46202BC9
:10E8000005D040234D465B1B9F403A430192019D3A
:10E810006F1EBD410D437EE167493D0089461543AA
:10E82000B144002D2ED09B469C4230D04946002951
:10E830004AD1624D711C294200D0E1E03D006146A1
:10E8400015430143AA46002E00D0EFE1002900D174
:10E85000C5E1002D00D000E26346C0085B07184305
:10E8600063468246D9086DE03B00134300D1C0E007
:10E870004B46013B002B00D1C1E1894500D1D6E0D8
:10E88000994621E701256B409B469C42CED14946E3
:10E89000002900D0D2E0711C8A46554647490D42F6
:10E8A00035D161460143002E00D08AE1002900D114
:10E8B0000CE23B00134300D00EE26346C0085A0747
:10E8C00002439246D9083DE05146891B89465C4681
:10E8D000002E00D0E4E06346034300D16BE10B005F
:10E8E000013B002B00D1E8E1304DA94200D1DEE12F
:10E8F0009946DEE03B0013437BD04B46013B002BA7
:10E9000000D14CE1894500D182E199466CE7274B63
:10E910009A4500D1EDE1821882428941564667440A
:10E9200049427918CD075208154349086B0700D0B2
:10E930001AE74B07ED081D43AA46B146C9081B4B11
:10E94000994527D04B460A035E05120B760D27E743
:10E950001600002300229A4622E76346C0085E079D
:10E960003043D9088246002D14D080252D0329423A
:10E9700007D0FE082E4204D15C463100D208780749
:10E980001043CA00410F1143C0004A07C00810439A
:10E990008246C90853460B4300D1EEE180221203A0
:10E9A0000A431203120B014EFAE6C046FF070000AD
:10E9B000FFFF7FFFFFFF0F8001F8FFFFFE07000052
:10E9C000D149F61A39406B0700D0CDE6B1E72800EF
:10E9D00000F04EFA030018331F2B00DCA4E60838C1
:10E9E00085402F000025A7E63A4315006A1E954191
:10E9F00085E66346C0085A0702439246D9089EE757
:10EA00006146851ACB1BA8428941494288461900B4
:10EA10004346C91A0B0088461B0200D513E10B00C0
:10EA20002B439A4600D076E6002100248AE763460D
:10EA3000C0085A0702439246D908ABE753469B1BCE
:10EA40009946002E00D08EE06346034300D1B2E029
:10EA50004B46013B002B00D170E1AC4DA94500D1E4
:10EA600025E199464B46382B00DD08E11F2B00DDE0
:10EA70004EE1494620234E465B1A65460100984008
:10EA80009D40F140431E98410D4305436046F040D0
:10EA90003F18AD18954289414942C91956463FE091
:10EAA0009A4B9A4500D1A4E0802361461B04194388
:10EAB0008C464B46382B00DDB2E01F2B00DDE4E036
:10EAC000494620234E465B1A6546010098409D400A
:10EAD000F140431E98410D4305436046F0403F1A04
:10EAE000551BAA4289414942791A56460DE63A0019
:10EAF0001F3EF2401600202B03D04022D31A9F4025
:10EB00003D436B1E9D410021354300260EE73A43ED
:10EB100015006A1E95412D1885428041414261448D
:10EB20000B0200D402E7794B01369E4200D110E778
:10EB30000122754F6B08394015401D43CB071D431B
:10EB400049080FE63900203BD9404B46202B05D021
:10EB500040234D465B1B9F403A430192019D6F1E2F
:10EB6000BD410D43CBE5694B9A4542D080236146B8
:10EB70001B0419438C4675E7494620233D005B1A68
:10EB80009D4011009A40A8464D46531E9A414B465F
:10EB9000E9404546DF400D431543BC44BBE78518BB
:10EBA0008542894167444942791801260B0200D405
:10EBB000BCE60226BCE7D2087B071A439246F90856
:10EBC000BDE6002915D063463D005E07D908154310
:10EBD000C008002D00D0B8E030438246DAE6002DB0
:10EBE00000D121E77907D2080A439246F9085C462A
:10EBF000A8E67807D20810438246F908CAE6851AC3
:10EC00006346A8428041DF1B4042391A01267CE559
:10EC10006346C0085B07184363468246D908B9E6D5
:10EC2000634603431D00681E854159E7002900D053
:10EC300093E6002D00D17DE07907D2080A43924681
:10EC4000F9085C46A6E6151A6346AA429241FF1AE5
:10EC50005242BB1A98465C465DE56346851AD91B4D
:10EC6000A8429B415B42C91A0B0247D5151A63465D
:10EC7000AA429241FF1A5242B91A5C4672E56346B3
:10EC800003431D00681E854103E76646203BDE40C6
:10EC90004B46202B06D0494640235B1A61469940DB
:10ECA000084380464546691E8D41354318E7D20822
:10ECB0007B071A439246F9086CE6151A6346AA4286
:10ECC0009241FF1A5242B91A01261EE57807D2086E
:10ECD00010438246F90835E6851885428941674424
:10ECE000494279180B0200D420E6074B012619404F
:10ECF0001CE60023564600229A4651E52B000B43A2
:10ED00009A4600D190E611E6FFFF7FFFFF07000063
:10ED10006646203BDE404B46202B06D0494640232A
:10ED20005B1A61469940084380464546691E8D41FD
:10ED30003543AEE68021002409032FE6851895426D
:10ED400092416744514279182FE70643802000031F
:10ED5000014208D0FD08054205D1D2087F073A4399
:10ED600016005C462900CA00710F1143F6004A07DD
:10ED7000F60832439246C9080CE60023014E9A4633
:10ED80001A000DE5FF07000030B5144D0A034B00D3
:10ED9000120B5B0DC90F0024AB4204DD104CA342E3
:10EDA00003DD104BCC18200030BD802464032243C7
:10EDB0000D4CE41A1F2C08DD0C48C31ADA4013006E
:10EDC0005C420029EFD11C00EDE7094DE040AC4664
:10EDD00063449A4013000343F2E7C046FE03000079
:10EDE0001D040000FFFFFF7F330400001304000038
:10EDF000EDFBFFFF70B5002818D0C317C5185D40A4
:10EE0000C40F280000F034F8164B1B1A5B055E0D8A
:10EE10000A2820DC03002A0015339A4013000B2235
:10EE2000101A2A00C2401203120B03E0002400262D
:10EE300000220023002112031800130B0A0D0A4DB3
:10EE400012051A432A40330513435B00E4075B08AD
:10EE50002343190070BD2A000B3882401203120BA5
:10EE60000023E7E71E040000FFFF0F807047C04645
:10EE70001C2101231B04984201D3000C10391B0AEA
:10EE8000984201D3000A08391B09984201D30009AE
:10EE9000043902A2105C40187047C0460403020205
:10EEA00001010101000000000000000010B5002970
:10EEB00003D1FFF7DDFF203002E0081CFFF7D8FF89
:10EEC00010BDC046024670B50A4392072AD11E4DB6
:10EED000EE0104C808C9541B9443344017D0D0B283
:10EEE000D9B2401A2106014310D190B299B2401A0A
:10EEF000210401430AD110021902000A090A401A2A
:10EF00002102014302D1100E190E401A70BD9A421F
:10EF1000DFD010BA19BA884201D9012070BD002093
:10EF2000C04370BD02780B7801300131002A09D04E
:10EF30009A4207D102780B7801300131002A01D0C2
:10EF40009A42EFD0D01A70BD01010101F0B5002442
:10EF500085B003AB01AA02A968460094019402940B
:10EF6000039404F0A1FF029A1B4B102A31D10F3AEF
:10EF70001A70072005F0B0F8112301221748184C29
:10EF80000168114203D0013B2168002BF8D1012315
:10EF9000144A16681E40FCD18027134D134C2B6871
:10EFA00020003B432B6002220D4904F015FF200096
:10EFB0002B680830BB432B6001220D4904F00CFF85
:10EFC000200002220C30290004F006FF300005B0BA
:10EFD000F0BD1C70CDE7C046B09DFF1F144000403F
:10EFE000004000407C4000400C400040B49DFF1FAA
:10EFF00004400040F8B5194B1B78002B05D0A02227
:10F0000017499201174804F01FFF0821092005F055
:10F010004BF809210A2005F047F80123124A166827
:10F020001E40FCD18027114C114D236829003B4321
:10F03000236002220F4804F0CFFE29002368083124
:10F04000BB43236001220C4804F0C6FE29002000C7
:10F050000C31022204F0C0FE3000F8BDB09DFF1F4D
:10F06000B0CFFF1FE0CCFF1F7C4000400C400040B1
:10F07000B49DFF1F004000400440004010B508212F
:10F08000092005F011F809210A2005F00DF8E12109
:10F0900080224902002000F0AFF810BD1FB5FFF735
:10F0A000EDFF1F23029380231B010193084B0949A5
:10F0B0000093094A0023094800F0D6FC08490028BB
:10F0C00000D00849084801F06DF9002005B000BDE6
:10F0D000C89DFF1FA54206118DF1051138CBFF1FFA
:10F0E00098420611A0420611BC420611002310B539
:10F0F0008AB001932022002102A804F0F5FF3220FB
:10F1000000F048FE0A4C002101AB02AA200000F0EA
:10F110000FFE011E07D0074801F044F9200000F05F
:10F12000DBFD0AB010BD052000F034FEE2E7C0466A
:10F13000C8A5FF1FFC42061170B586B06D462A00B7
:10F140000E4B13CB13C213CB13C20024A300142203
:10F15000E9580B4800F0D2FD06000520013400F00C
:10F1600019FE002E05D02300064A0221064800F0B1
:10F17000CBFB052CEAD106B070BDC046C0410611DC
:10F18000C8A5FF1F284306113843061130B5802457
:10F1900020250F4B85B0E4000093029501940023D5
:10F1A0000C4A0D490D4800F05FFC0D4B0295009391
:10F1B000019400230B4A0C490C4800F055FCC8236D
:10F1C0000B491A000B4800F065FD05B030BDC04684
:10F1D000D4A6FF1F39F10511E542061118CCFF1F17
:10F1E000D4AAFF1FEDF00511EF420611A8CBFF1FB7
:10F1F0000CA6FF1FC8A5FF1F7FB50E0001000B481E
:10F20000150000F051FB0A4C206000280DD001A829
:10F2100000F038F801A92068019600F03BF80121C0
:10F22000206800F053F8034B1D807FBD3E4306115C
:10F23000D4AEFF1F8C8FFF1F1FB50C4C01902068B0
:10F24000002810D0019B0A2B05D10333012203A90A
:10F25000039300F057F8012201A9206800F052F84A
:10F26000002004B010BD01204042FAE7D4AEFF1FD9
:10F2700010B500F0A7FD002010BD10B500F0ACFDEA
:10F28000002010BDE1235B02036003234360013BC8
:10F290000372704770B50D000B49040000F021FBAC
:10F2A00000280DD1200000F046FA636A29005B6A4D
:10F2B000200098470500200000F044FA280070BDA7
:10F2C00001256D42FAE7C0463E43061170B50D00B8
:10F2D0000B49040000F005FB00280DD1200000F0D0
:10F2E0002AFA636A29005B6B20009847050020001A
:10F2F00000F028FA280070BD01256D42FAE7C046EB
:10F300003E43061170B504000D00161E15D00029ED
:10F3100013D00C4900F0E5FA002811D1200000F0CC
:10F320000AFA636A2900DB6A320020009847050068
:10F33000200000F007FA280070BD16256D42FAE79C
:10F340000125FBE73E430611C36A0020596470475C
:10F35000012040427047C36ADA6399637047000036
:10F36000F0B58BB007000E000492059300F00EFD7F
:10F3700006900791049DF86A8368002B28D00C3012
:10F380002A00310002F0BCF92B1A0393040036184E
:10F3900000F0FCFC02000B0006980799121A8B4142
:10F3A0000021994203DC19D10599914216D903999C
:10F3B000F86A002912D0059909AB8A1A00921C300C
:10F3C00001220B4900F020FC431C07D0039DD2E72B
:10F3D0002A003100043001F0DBF9D5E70123FA6A95
:10F3E000516B9943049B5163E418601B0BB0F0BD53
:10F3F0000F0F000037B50A794B790500C06A0192FA
:10F400008A790C00009209680022406801F074F9C2
:10F4100000280CDBEB6AE179586801F09FFA0023C1
:10F42000984202D10121EA6A116018003EBD05230D
:10F430005B42FAE710B50400C36A586801F04CF962
:10F44000E06A1C3000F0CEFB002010BD70B5040057
:10F45000C06A00211C3000F0A9FB002816D18022D0
:10F4600021780B4BE06AC902C918816012010C3087
:10F4700002F08CF820780749E56A01F0FBF8E36AAE
:10F480006860586843425841404270BD0120FBE724
:10F49000D8AEFF1F99F4051170B5364E8400A359FC
:10F4A00086B00D00002B04D10100334800F050F964
:10F4B000A0513459052D4BD00E2D15D0002D33D130
:10F4C0000221E36A5A6B0A4207D19D6B0A435A63D1
:10F4D000002D02D0DA6B2000A8470022E06A2749FD
:10F4E0001C3000F0BFFB1FE018220021684604F02A
:10F4F000FBFDE36A9A68002A18D01822694658680A
:10F5000001F046F9051E11DDE06A2A000C3069465B
:10F5100002F0A0F8A84209D0E26A936B002B03D056
:10F52000D26B04212000984706B070BD0121E36A28
:10F530005A6B0A4207D19D6B002D04D00A435A63CF
:10F540002000DA6BA847E06A00221C300C49C8E7AB
:10F55000E36A10225868694601F01AF9E36A9A686A
:10F56000002A02D000225A619A610122596B91430C
:10F570005963D9E7D8B6FF1F3E43061100000F0FAD
:10F580000F0F000070B50C003021150000F0A8F836
:10F5900048225543024A5219C262146470BDC046E3
:10F5A000DCB6FF1F7FB5C36A0500586C01280DD17A
:10F5B0000C008E18B44202D1002004B070BDEB6A7A
:10F5C0002178586801F042F80134F3E700200390F5
:10F5D000586801F0B9F80123E86A5B420093012200
:10F5E00003AB02491C3000F00FFBE5E700000F0FF2
:10F5F00010B502000021024800F0EEF810BDC04630
:10F60000908FFF1F0020704710B50C00036B1A6825
:10F6100058680A60D968801A616004F09DFCA06097
:10F62000002010BDF7B506000F0000240192019BD9
:10F630009C4201DB0020FEBD00F0C4FB336BF06A8E
:10F640001A68DB68B9186343C91804F09DFC05000B
:10F6500000F0C2FB002D01D10134E8E7002DE9DA0A
:10F6600005204042E7E710B5046BC06A2468091919
:10F6700004F05AFC0423C017984310BD10B5046B66
:10F68000C06A2468091904F0C7FC0423C017984312
:10F6900010BD10B5C06A04F0E7FB002010BD10B526
:10F6A00000210400007804F067FCE062002804D028
:10F6B00004F01AFC2063002010BD01204042FBE74B
:10F6C00010B5342100F00CF810BD000010B5020098
:10F6D0000021024800F080F810BDC046CC8FFF1F0B
:10F6E000F8B50024AC2919D82300AC210C4D0E002C
:10F6F0005E43AF59002F0DD10123341D641973519E
:10F7000060622270201D00F0E3F9002806D07751D6
:10F710003C0003E00133042BE9D100242000F8BDB4
:10F7200024B7FF1F10B50400043000F0EBF90023EC
:10F73000013C237010BD012110B50430494200F096
:10F74000F3F910BD10B5043000F012FA10BD00003E
:10F750007346F0B51D4E87B00390300005930491B9
:10F7600000F01CFA002802D1300000F0B1F90121AC
:10F7700000274942300000F0D7F9154C00230293CE
:10F780002368012B17D1A56A231D0293002D08D1F0
:10F79000104B2A001868059B290000932B0000F0ED
:10F7A0005DFB03996868FFF78DFB002803D123797F
:10F7B000049A934203D00137AC34042FDED13000D9
:10F7C00000F0D6F9029807B0F0BDC046D4B9FF1FCB
:10F7D00024B7FF1FACCFFF1F7346F0B587B004936B
:10F7E00004000E001500002802D00369002B08D188
:10F7F0002A4B1868049B009300231A00190000F09C
:10F800002DFB29006068FFF7A3FF002842D1236980
:10F810002A00310020009847071E3BD0057004F0F5
:10F82000C3FB1F4D83B22800029300F0B7F90028F4
:10F8300002D1280000F04CF901212800494200F0D3
:10F8400073F9029B174E013302931B0405930023A7
:10F8500003933368012B10D1B46A002C08D10F4BED
:10F8600022001868049B21000093230000F0F6FAA0
:10F870000E22A35E059A9342E3D0039BAC3601337C
:10F880000393042BE5D1280000F072F900207B6A75
:10F89000D88101E00120404207B0F0BDACCFFF1F8E
:10F8A000D4B9FF1F24B7FF1F70B5FFF751FF041E27
:10F8B0000ED0FFF740FF6588002D0BD1636A200052
:10F8C000DB699847002805D02000FFF73BFF2C009C
:10F8D000200070BD6388200001336380FFF732FF92
:10F8E000F6E710B500280BD0436A002B08D09868C3
:10F8F000002802D15868002802D0FFF7E3FA10BDB3
:10F9000001204042FBE700000CB4F0B504000020E9
:10F910001D4B89B01B780D0083422DD11B4B1B68FA
:10F920008B422EDB844221D004F0C6FB06000F0080
:10F9300004F0C2FBFA220590920000233000390047
:10F94000FDF79CFB0F00FA21114B06005B5D89005F
:10F9500005980193029404F06FFBFA239B004B433C
:10F96000320000930B483B0000F01CFD0FA90E98DD
:10F97000079103F019FB002009B0F0BC08BC02B0ED
:10F98000184701204042F7E73C5CFF1F0090FF1F33
:10F99000614306114A430611CB282DD01EDC0828EE
:10F9A0000EDC072828DA022841D003DC4342584104
:10F9B0000138704705281FD0062838D0012037E0CD
:10F9C000652805DC642817DA0B28F7D10B202FE017
:10F9D00066282CD06928F1D10C2029E0154B9842DB
:10F9E00011DC154B984207DA3223FF33984203D0DB
:10F9F00004DC053B9842E1D1162019E00F4BC018FA
:10FA00000128DBD8F8E70E4B9842DFD005DCCB3B72
:10FA10009842F1D00B4BC018C8E70B4B9842CDDB96
:10FA20000A4B9842E8DD0A4B9842CFD0C6E70E2039
:10FA30004042BEE7C1020000BF02000044FDFFFFDC
:10FA4000EB0300007BFCFFFF4C0400004E040000B1
:10FA50004F04000007B50021012000910B000A00AF
:10FA600000F0FCF907BD0000F0B587B0170075463F
:10FA70001A000C9E0D9C002806D0002F04D03F2CAD
:10FA800002DD0E9B3D2B0CD9104B1868002300950E
:10FA90001A00190000F0E2F916235B42180007B0C3
:10FAA000F0BD0523002EF9D00125A4080595039487
:10FAB000002500240E9B0497DBB20296009401956A
:10FAC00001F07EF9FFF768FF0300E7E7ACCFFF1F07
:10FAD00013B500280CD1094B02001C6873460100C5
:10FAE00000930300200000F0B9F91620404216BD33
:10FAF000034904F029FBFFF74FFFF8E7ACCFFF1FE6
:10FB00006743061107B5011E08D1064B0A001868A5
:10FB1000734600930B0000F0A1F907BD04F0ECFA66
:10FB2000FBE7C046ACCFFF1F13B5041E0BD10F4B34
:10FB300022001868734621000093230000F08EF91C
:10FB40001620404216BD4B1C08D101225242D31749
:10FB5000200004F0E9FAFFF71FFFF3E70800002197
:10FB600004F07AFA02000B00F2E7C046ACCFFF1FA8
:10FB700007B5011E0AD1084B0A00186873460093A6
:10FB80000B0000F06BF9162040420EBD04F07CFA29
:10FB9000FFF702FFF9E7C046ACCFFF1F031E03D0FB
:10FBA000437B023B584243411800704713B50A009B
:10FBB00000280CD1094B02001C6873460100009319
:10FBC0000300200000F04AF91620404216BD044907
:10FBD00000F0F8FFFFF7E0FEF8E7C046ACCFFF1FEC
:10FBE0006743061107B5011E08D1064B0A001868C5
:10FBF000734600930B0000F031F907BD00F0EEFFF3
:10FC0000FBE7C046ACCFFF1FF7B504000D001600A0
:10FC10001F0000280BD1124B2200186873462100E8
:10FC20000093230000F01AF916204042FEBD089B05
:10FC300001330DD101225242D317009201933B00B0
:10FC400032002900200000F0F9FFFFF7A5FEEDE7E4
:10FC50000898002104F000FA00900191EFE7C046F7
:10FC6000ACCFFF1F13B500280CD1094B02001C6854
:10FC70007346010000930300200000F0EFF8162007
:10FC8000404216BD01F04EF8FFF786FEF9E7C04688
:10FC9000ACCFFF1F13B57446002805D0002903D050
:10FCA000002A01D0002B0ADC094B186800230094BD
:10FCB0001A00190000F0D2F81620404216BD009339
:10FCC00013000A00034904F097F8FFF765FEF5E713
:10FCD000ACCFFF1F6743061107B5011E08D1064BC5
:10FCE0000A001868734600930B0000F0B7F807BDD0
:10FCF00004F04AFAFBE7C046ACCFFF1F07B57346D6
:10FD0000002803D0002901D0002A0AD1074A106830
:10FD1000009300231A00190000F0A0F816204042BA
:10FD20000EBD04F011F9FFF737FEF9E7ACCFFF1F66
:10FD3000F7B57746040015001E00002803D0002AFE
:10FD400001D0002B0AD1104B1868002300971A002D
:10FD5000190000F083F816204042FEBD4B1C0AD16A
:10FD6000009201225242D3170196200004F0E4F8D9
:10FD7000FFF712FEF1E70800002104F06DF901968B
:10FD800002000B000095F0E7ACCFFF1F10B504F0A8
:10FD900093F910BD10B5C11704F05EF901F09AF89F
:10FDA00010BD000010B504F01FF9024B024A1A60A2
:10FDB00010BDC0468CCCFF1F55FA051110B504F0DC
:10FDC00003F910BD034B10B51B88032B01D104F0C0
:10FDD000A3F910BDB85BFF1F034B10B51B88032BA5
:10FDE00001D104F0E1F910BDB85BFF1F10B500F0C0
:10FDF0007BF910BD00217047002170470A4A136843
:10FE000093420BD0094AD868196913685268914225
:10FE100002D806D1984204D9C01A70470120404246
:10FE2000FBE70020F9E7C046485CFF1F305CFF1F7E
:10FE300010B5C11704F048F904F066F910BD0000D0
:10FE400010B503F065F9029A0100034800F0AAFA20
:10FE5000FFF7CCFF10BDC0466B43061137B5044C0D
:10FE60002468002C02D0069D0095A04737BDC046EF
:10FE70000490FF1F10B500F055FE01F0D5F901F018
:10FE8000F9FA052004F028F9012000F0CBFA1A2233
:10FE900001231100014804F00FF810BD14F00040D8
:10FEA0000122154B5242191D10B5CA67C0214900E5
:10FEB0005A50124B04321A70114B124A1A60FFF753
:10FEC000D9FF72B6C021104A104B11485360036A23
:10FED00009061B021B0A0B430362002393600733CE
:10FEE00013600C4B0C4A1A600C4B0D4A1A600D4BF8
:10FEF0000D4A1A6010BDC04600E100E0E312FF1F8A
:10FF000088CCFF1F000CFF1F10E000E07FBB00004B
:10FF100000ED00E0700BFF1F29000611780BFF1F9A
:10FF2000597EFF1F7C0BFF1F4969FF1F10B504009E
:10FF3000284800F04AFA616A274800F046FAA16AA8
:10FF4000264800F042FAE16A254800F03EFA216BAB
:10FF5000244800F03AFA6168234800F036FAA168B4
:10FF6000224800F032FAE168214800F02EFA2169B7
:10FF7000204800F02AFA61691F4800F026FAA169BA
:10FF80001E4800F022FAE1691D4800F01EFA216ABD
:10FF90001C4800F01AFA616B1B4800F016FA216841
:10FFA0001A4800F012FAA16B194800F00EFAE16B42
:10FFB000184800F00AFA216C174800F006FA174BAF
:10FFC0001748196800F001FA164B1B68002B00D087
:10FFD0009847FEE78E430611A4430611B04306116D
:10FFE000BC430611C8430611D4430611E043061171
:10FFF000EC430611F843061104440611104406119F
:020000041106E3
:100000001C440611284406113444061140440611CC
:100010004C44061158440611644406112CED00E0CE
:10002000704406118CCCFF1F0C490198814204D00A
:10003000684608302438854602E0EFF3098024380A
:10004000011C443101600430F0C044464D46564620
:100050005F46F0C02438024908470000FDFFFFFF5B
:100060002DFF051130B50468039D8C4216DD002A72
:1000700004D00C244C43041964681460002B04D091
:100080000C224A43821892681A60002D04D00C2377
:100090004B43C018C3682B60080030BD01214942A2
:1000A000FAE7000007B5009313000A0001000248B8
:1000B000FFF7D8FF0EBDC04680440611054B1B78E4
:1000C000DBB2062B03D8044A9B00985870470348BC
:1000D000FCE7C046E312FF1F904406110048E80108
:1000E00010B5FFF7EBFF10BD72B60022014B1A608E
:1000F000FEE7C0460400004010B5002804D00368A5
:10010000197003685A1C0260080001F077FF10BDE7
:10011000F7B51400002200900191202694420ADDD8
:100120000199895C00290BD1A2420BDAA41A20267E
:100130009A0700D510360025DB0710D4250008E00B
:100140000132EDE70C00F2E731000098FFF7D4FF31
:10015000013D002DF8DCE543ED172540641B2F0021
:1001600003E00098FFF7C8FF0137019B5B1BD95DD7
:100170000029F6D12500002D04DCE043C017204003
:10018000C019FEBD31000098FFF7B6FF013DF2E750
:10019000F0B58BB00700119D1000129E1A430AD1D2
:1001A000302302AA138002A9139B32003800FFF704
:1001B000AFFF0BB0F0BD002D05D0109A0A2A20D158
:1001C000002B1EDA404200231F2402AAD377149B7F
:1001D000A4183A3B0193002815D1002D09D0002E18
:1001E0001CD0139B9B0719D52D213800FFF784FFE6
:1001F000013E139B320021003800FFF789FF4019B0
:10020000D7E70025DFE7109903F0F6FE092901D9A9
:10021000019BC918013C30312170DCE72D23013CE2
:1002200023700025E5E70000F0B507000E0014007C
:1002300000258BB03378002B07D1002F02D000228D
:100240003B681A7028000BB0F0BD252B00D0A1E050
:100250007278002AF1D0731C252A00D199E0002180
:1002600006912D2A02D12C3AB31C06921E00337837
:10027000302B15D00023079333781A00303AD1B2CF
:10028000092913D9732B18D1236845490434002B4D
:1002900000D01900069B079A3800FFF739FF1EE0CF
:1002A0000222069B013613430693E0E70A21079BCF
:1002B00001364B43D3180793DEE7642B12D1226833
:1002C0000434D3176121049106990391079902918F
:1002D00001210191093100913800FFF759FF2D18D4
:1002E0000136A7E76C2B0BD173786C2BF8D1B37860
:1002F000642B1FD15D3B07349C4302360CCCE1E7F5
:10030000782B0CD122680434D3176121049106990B
:10031000039107990291002101911031DBE7702BC5
:1003200010D138003021FFF7E7FE78213800FFF7C1
:10033000E3FEE7E7782B1BD1713B07349C43023681
:100340000CCCE2E7582B04D1226841210434D317A6
:10035000DCE7752B14D122680434D3176121049192
:100360000699039107990291002101910A31B2E7A0
:10037000752BB5D16E3B07349C4302360CCCEDE7B0
:10038000632BADD1236809A90B70002304344B7093
:1003900080E71E0031783800FFF7AEFE01359FE799
:1003A000AC4406110FB413B504AB10CB019303F0AA
:1003B000B3FE019A21000020FFF736FF03F0F4FEA0
:1003C000002016BC08BC04B018470FB407B504AA37
:1003D00002CA00200192FFF727FF002003B008BCEB
:1003E00004B01847022806D9012380228340D20591
:1003F00091680B4393607047022806D9012280213F
:100400008240C9058B6893438B607047012380222B
:100410008340D20511689943116011680B43136042
:100420007047000010B50400012818D105231B22D5
:100430001F211C4803F040FD1B4B072210211B48C5
:1004400003F03AFD062223001100184803F034FDA2
:10045000174B1A681123D16A0B43D36210BD0028D1
:10046000FCD10100102000F017FB2100112000F04A
:1004700013FB0323082209210C4803F01DFD06226B
:1004800023001100094803F017FD16231B221F212A
:10049000044803F011FD064B1A681123D16A9943F1
:1004A0000B00DAE714F00040FB0300001CF00040F2
:1004B00088CCFF1F114A10B50121140043690B427B
:1004C0000AD1C36F0B4007D10122C16F11420CD07A
:1004D000A34208D10A4810BD013A0368002AEDD1B1
:1004E00001204042F7E70133EFE7064A9B185842E4
:1004F0005841034B40421840EDE7C04640420F00D0
:1005000082000281C0BDF0FFF8B504680E00200033
:10051000FFF7D0FF051E27D1FFF7E2FD0A273100C4
:10052000784303F019FD06093900300003F064FD3B
:10053000042914D93900300003F00EFD0130802267
:10054000E36801001343E360FF23000A19401840E9
:1005500021606060E3689343E3602800F8BD3900E0
:10056000300003F0F9FCEAE7004DF6E7870002816E
:1005700070B504680D002000FFF79CFF002805D12E
:10058000012D12D0002D03D0022D06D00B4803E020
:100590000822E3689343E36070BD0823E2681343D5
:1005A000EF22E360E3681340F5E70823E2681343B2
:1005B000E3601023E2681343EDE7C046890002813F
:1005C00070B504680D002000FFF774FF002803D108
:1005D000002D03D0012D06D0054803E0FB22E3687F
:1005E0001340E36070BD0423E2681343F9E7C0469B
:1005F0008A00028170B504680D002000FFF75AFFE1
:10060000031E1ED1032D1CD8280003F07DFC020818
:100610001017FC21E2680A40E260180070BDFD215D
:10062000E2680A40E2600122E1680A43F4E7FE2141
:10063000E2680A40E260E1680222F6E7E16803222C
:10064000F3E7014BE9E7C0468800028102682020F9
:1006500010B5064B5469044202D00020116010BD51
:10066000013B002BF6D10248F9E7C04640420F009B
:1006700082000281F0B5002487B0019105AB04AA85
:1006800003A9070003940494FFF70CFDA0421DD1B9
:100690003C257D430F4E039B7419AB51049B0820EE
:1006A0006360019B6763A360FFF79CFE0820FFF770
:1006B000ADFE4122AB5960689A60A2633C3A5A6031
:1006C000059900F097F9606800F078F9200007B00C
:1006D000F0BDC046F8B9FF1F70B5040000254068A2
:1006E00000F078F9606800F08DF9A5600820FFF748
:1006F00083FE280070BD0000F7B51F0008AB1E7810
:1007000009AB1B78040015000193FFF7FDFE0028DC
:1007100014DB002D13D139002000FFF729FF00283A
:100720000CDB31002000FFF74BFF002806DB0199AE
:100730002000FFF75FFF002800DD2800FEBD014814
:10074000FCE7C0468600028170B50500002A16D07D
:100750000C008E18B4420CD12868FFF7ABFE041EC3
:100760000FD1AB68181E03D0686B2100984720009A
:1007700070BD21782800FFF769FF0134EAE70248DD
:10078000F6E70248F4E7C046840002818200028155
:1007900030B50368012400205D69254204D01D683E
:1007A0000D5401308242F7D830BDCA6873B50B00D2
:1007B000002A02D0496900290CD19A68002A02D087
:1007C0000E21904773BD6946012207311800FFF7DB
:1007D000DFFFF7E71D68082A00D9082200212C68EE
:1007E0005E6901313470DC690134DC615C690134BB
:1007F0005C618A42F3D1D969DA689142E2D31A6323
:100800000022DA615A619A62DA609B689342D9D019
:1008100001219847D6E700003C230200180070B57C
:100820000F2650434B4D44592918A06830400238D8
:100830000A282AD803F068FB0629762934292929B1
:1008400029296E005343EB18196900291DD0186A35
:1008500081420FD802256068A8436060D9620021F8
:1008600019629961596219619B688B420DD0100021
:1008700098470AE01B6ACB1A0F2B00D90F233C20A4
:100880000021504328188B4200D170BD826901318C
:10089000157801322560056A826101350562F2E74B
:1008A000012063692C496669064209D1D90613D52E
:1008B0003C205043281883680721002BD7D1E4E758
:1008C000013926680029EED13C205043281883685E
:1008D0000631002BCBD1D8E708210B4206D03C20B3
:1008E000504328188368002BC1D1CEE7590707D59C
:1008F0003C205043281883680921002BB7D1C4E756
:100900009B07C2D53C205043281883680521002B43
:10091000ADD1BAE75343EB18D868002806D05B691D
:10092000002B03D01000FFF740FFAEE73C20504300
:1009300028188368002B09D00E2198E7013B216815
:10094000002BA2D061691142F8D19EE7024B01222F
:10095000F8E7C046F8B9FF1F40420F0010B5036822
:1009600000291DD0032909D0114810BD0132D86FCC
:10097000204007D08A42F9D10E48F6E70022012430
:100980000D49F4E78A42F7D0222219690A431A6115
:10099000EBE70131D86F204005D09142F9D1EBE768
:1009A0000124054AF6E79142E6D01861DDE7C0462A
:1009B000830002818200028140420F00030605D4B9
:1009C0001F2318401E3B8340014A13607047C046F6
:1009D00000E100E0030609D41F2318401E3B8340BA
:1009E000034AD367BFF34F8FBFF36F8F7047C04683
:1009F00004E100E0024BE0301B688000C15070470A
:100A00000890FF1F0022034BE0301B688000C2509B
:100A10007047C0460890FF1F0122084B032807D8E3
:100A20008240002906D019680A431A6000207047E6
:100A30001238F5E7196891431960F7E71438004058
:100A40001F220123024093404009064A800080187B
:100A50000268002903D013430360002070479A43C3
:100A60000260FAE70C38004070B504000D00012167
:100A7000FFF7E6FF1821A308E4000C40E731A1408E
:100A8000A540044A9B009B181A6800208A4315431E
:100A90001D6070BD18380040F8B50E000A2107002F
:100AA00003F0AAFA012303251C004D430135EDB2E2
:100AB0006A1CAB40944038000A211C4303F04CFAF6
:100AC000E443AE40044BC0B28000C01803681C4031
:100AD000344304600020F8BD08F000400122030008
:100AE00070B515000B3B9D400C4C002911D01F2602
:100AF0000640B24043090A499B005B1819689143BC
:100B000019600021FFF7C8FF23681D4325600020FE
:100B100070BD2368AB432360F9E7C046003800404E
:100B20003C38004070B5114D07202C78002C1BD1AB
:100B3000E42221005200280003F0D6FA0123C42049
:100B4000FF212B700A4B80001C635C63094B1C6007
:100B50005C60094B1A588A43110080220A431A50DC
:100B60008022200052021A6070BDC04634BAFF1FB6
:100B700000800040A0F0004000E100E0084B10B50C
:100B80001B685A6C074BC318012B04D81100064888
:100B9000FFF708FCFEE701000448FFF703FCF9E754
:100BA0005464FF1F50FBFFFFB3440611C8440611F5
:100BB000034B10B51B68002B00D0984710BDC046F2
:100BC0000C90FF1F01230375C023DB000060406011
:100BD00081600261838100207047000070B50500CC
:100BE00003F08AF9134B06001B78002B03D003F0A7
:100BF000BBFA114870BD6A7B062A03D003F0B4FA31
:100C00000820F7E72A7D012A03D003F0ADFA092076
:100C1000F0E76B732868854208D1002430002C610E
:100C200003F0A2FA03F070FA2000E3E70C3803F0B7
:100C3000FBF9EFE73C5CFF1FEA030000F0B585B06D
:100C400001930A9B050002930B9B009116000393EE
:100C5000032A5BD803F050F92E4B04001B78002BBD
:100C600005D003F081FA2C4C200005B0F0BD6B7B61
:100C7000062B03D003F078FA0824F5E72B69009AD5
:100C80001A40B1070FD5009991420ED1019A136015
:100C9000F30703D52B69009A93432B61200003F0DF
:100CA00063FA0024E0E7002AF0D1029B039A134381
:100CB00005D12000C82403F057FA6400D4E7174B8D
:100CC0001B78002B04D0200003F04EFAC824CBE799
:100CD000134F029A396828000B0064331E70009B82
:100CE000CB65019B0B66039B03F0D6F9200003F054
:100CF0003BFA03F009FA03F0FFF80500386803F047
:100D0000BBF90400280003F02FFAADE79624A400F5
:100D1000AAE7C0463C5CFF1FEA030000E452FF1F45
:100D20005464FF1FF0B50225140085B007000E00C3
:100D30000292AC4341D103F0DFF87B7B0190062B9C
:100D400004D003F011FA082005B0F0BD029A3B6907
:100D50002A4206D01E403E61019803F005FA0020A9
:100D6000F2E71E433C683E610395A74205D1019816
:100D700003F0FAF903F0C8F9F1E725000C3D236808
:100D8000EA6D0293130058342178039833400142EE
:100D90000FD093420FD12B6E28001E6003F01CF978
:100DA00001222378134206D0EB6D3A699A433A61E7
:100DB00001E0002BEFD1029CD7E796208000C3E72B
:100DC000F0B585B01E000B9B0D9D03930FAB1B78F8
:100DD0000400019102920A9F0093002D00D16AE065
:100DE0003D2E00D969E003F087F8354B1B78002BC6
:100DF00004D003F0B9F9334805B0F0BD3D2E0AD157
:100E0000314B1A78002A04D003F0AEF99A20400042
:100E1000F2E701221A7003F0A7F9702200212000E6
:100E200003F062F9039B3B4300D1322722000123E8
:100E300000996532A76567651D3A5377002932D05E
:100E400013700C9BAA0063600021180003F04CF99A
:100E5000019B01226364230067331E705E700026CD
:100E6000A560013BDA702900029A1E700C980E9B57
:100E700000F06AF92060200003F06EF903F03CF8FE
:100E8000009B0500B34212D02100104803F054F932
:100E90000F4B1B88032B0AD1280003F065F903F0E0
:100EA00033F90020A8E7032111702375C9E7280052
:100EB00003F05AF9F5E79620A9E73220FF309BE7C7
:100EC0003C5CFF1FEA030000505CFF1FE051FF1F66
:100ED000B85BFF1FF8B5030006000D000B430524A7
:100EE000002B09D003F008F8174B07001B78002BE4
:100EF00004D003F039F9154C2000F8BD144B1B78D1
:100F0000002B03D003F030F9C824F5E70522114C7B
:100F10002368206848331A702B00320002F0D4FF97
:100F200021680D4803F028F9380003F01DF903F09B
:100F3000EBF802F0E1FF0500206803F09DF80400E3
:100F4000280003F011F9D7E73C5CFF1FEA0300001B
:100F5000E452FF1F5464FF1FE051FF1F10B502F061
:100F6000CBFF034B1C6803F0FFF8200010BDC04608
:100F70005464FF1FF7B504000D002600673637786C
:100F8000AF4201D10020FEBD230048331B78062B61
:100F90003BD8012214209A401300104019D1682236
:100FA0001A40019213D19B072FD51B4F2100380007
:100FB00003F0E2F8194B35701B6821003800A3429A
:100FC00002D102F061FFDDE703F0B6F8DAE7357031
:100FD000D9E73570200002F007FFE36C5A7B022A44
:100FE000D0D11C692300673301931B7832789A4271
:100FF000C3D39F42C6D10021200002F00DFF019B08
:1010000005001B788342B8D1BCE73420FF30FFF7DE
:10101000CFFD3420FF30B6E7E051FF1F5464FF1FBF
:10102000F7B5040002F068FF3C4B07001B78002B6B
:1010300003D003F099F83A48FEBD002C01D1394B9A
:101040001C68230067331B783D2B63D02300693372
:101050001B78012B04D0380003F086F80920EBE759
:10106000304B1B68A34208D12F4B1B78002B04D0B8
:10107000380003F079F8C820DEE7A569002D0BD110
:10108000250048352878013805283DD8072602F084
:101090003BFF152E2C2E29296B692E680193B54232
:1010A00009D00C3E300002F097FFB3692E616B61EE
:1010B000B561019DE2E700232B61FAE721001B489F
:1010C00003F05AF807232B700025616820000D718A
:1010D000043102F0B1FE380003F046F803F014F8D2
:1010E0002800A9E7200002F06FFE2E70ECE7200038
:1010F00002F06AFEE3682269200013605A60072349
:101100002B7002F0A9FEDFE7380003F02DF8342041
:10111000FF3091E7972040008EE7C0463C5CFF1F00
:10112000EA0300005464FF1FE452FF1FE051FF1F59
:1011300010B5FFF713FF69300378022B02D00020AF
:10114000FFF76EFF10BD000089004018072110B5A1
:1011500080248843011F64040C6004390B60030081
:1011600016490C3B19601649043B19601549043BAC
:1011700019601549043B19601449043B1960043B8C
:101180001A600322043B52421A60114A043B1A605F
:10119000104A043B1A60104A043B1A600F4A043B91
:1011A0001A600F4A043B1A600E4A043B1A600E4A4A
:1011B000043B1A600D4B4438036010BD3111061119
:1011C00012121212030303030202020201010101BF
:1011D0001111111110101010090909090808080847
:1011E00007070707060606060505050504040404A7
:1011F00010B5044C044B043C9C4200D210BD236843
:101200009847F7E70C4C06110C4C061110B5044C2E
:10121000044B9C4200D910BD08CC9847F8E7C04663
:101220000C4C0611084C0611814B824AF0B51A602D
:10123000814A824B802013600022140040009100FC
:10124000591801320C608242F9D1B7225200DA6299
:10125000653AFF3A1A657A4A117899637949D961F2
:10126000117802295CD10E31196277493C24596109
:1012700076493420996119008C310C6036213A2668
:10128000D9632E395D1858641964EE671D1D093E37
:10129000EE671D000A36BC352E601D00C035296082
:1012A0001D00C43528601D000B36CC352E601D0096
:1012B0000D3EC8352E601D00073ED0352E601D0046
:1012C000D43529601D00D83528601D00303EE0353A
:1012D0002E601E004225DC3635601E001E27E436D7
:1012E00037601E00E83631601E00EC3630601800B2
:1012F0000526F43006601800F03005601800183537
:101300009030056018009430016018009830046037
:101310004F481860107802280CD10831596011E04C
:101320001178032901D111319EE7117804299CD14C
:10133000143199E71078032801D10921EEE71078DC
:101340000428EBD0962149009960D9608C39196145
:101350001D00FA213F48FC358900986429605962D4
:101360003D493E4C99627321D9656B39DC645965FE
:101370009965696002255D669625AD009D66092523
:10138000DD66374D59671D6700259D67354DDD6763
:10139000354D2C601478022C34D11A000A319C325D
:1013A00011601A000731A03211601A00A8321060D3
:1013B000FA211A008900F83211601A006421A4325F
:1013C00011601A005F39AC3211601A000339B03273
:1013D00011601A00C631B43211601A000021B8320F
:1013E00011603822FC339A60204A5A64AF22D2003E
:1013F000DA61962292001A621D4A5A62F53AFF3A61
:101400009A62F0BD1478032C07D11A000A219C328D
:1014100011601A000631A032C6E71278042AC4D13E
:101420001A009C3211601A000A21A032BCE7C046A3
:101430001C10FF1F000CFF1F88CCFF1F000CFF1F9C
:10144000E312FF1F4605000080C3C901DC05000050
:10145000FC08000050C300006A180000F8110000EA
:10146000204E0000881300009412FF1F004000115E
:10147000C40900000A221D4B10B51A701C4B093A12
:101480001A70EC231B490B701B4B1B681A0CD2B251
:10149000A52A01D15BB20B7002F08EFD0422174B1E
:1014A000174C1A60174B184A01211360174A0A207B
:1014B0001360174A1360174B2360FFF7EDFA200003
:1014C0000D230F22122102F0F7FCC121FF20124B45
:1014D00089005A588243C0205A5080001A580F4938
:1014E00011408022D2030A431A5010BDE112FF1F9F
:1014F000E212FF1F0013FF1F204000111CF00040EC
:1015000014F00040B66DDB3608F000400CF00040EF
:1015100010F00040B6EDC3B000E100E0FFFF00FFB7
:1015200010B502F0D9FC02F06FFD10BD10B500201F
:10153000FEF75EF80020FEF7C9F810BD10B5FFF702
:10154000F5FFFDF7ABFD10BD7FB5FEF72BFC0123CA
:1015500005930A4B0022049380239B000393084BBE
:101560000849029300230848009201932023FFF7C3
:1015700027FCFEF723FC002007B000BD3D15061137
:1015800084BCFF1F1F45061188C4FF1F90B587B09C
:1015900002AF7446F860B9607A60FB68002B02D035
:1015A000BB68002B08D1114B18682300009300235F
:1015B00000220021FEF752FC7A68BB680021180067
:1015C00002F092FD7B68013B1A00FB685A60FB68E1
:1015D00000229A60FB680022DA60FB68BA681A6031
:1015E00000231800BD4605B090BDC046ACCFFF1F1C
:1015F00080B586B002AF724678607B68002B08D158
:10160000134B186813000093002300220021FEF7FB
:1016100025FC7B689B68FB607B68DB68BB60FA68C5
:10162000BB689A4201D100230EE0FA68BB689A4277
:1016300003D2BA68FB68D31A06E07B685A68B968B7
:10164000FB68CB1AD31801331800BD4604B080BD27
:10165000ACCFFF1F90B589B002AF7446F860B96097
:101660007A60FB68002B02D0BB68002B08D1234BAB
:10167000186823000093002300220021FEF7EEFBF0
:1016800000237B61FB685C68FB681800FFF7B0FF14
:101690000300E31A7A689A4208D9FB685C68FB6821
:1016A0001800FFF7A5FF0300E31A7B6000237B61AE
:1016B0001BE07B69BA68D218FB681968FB68DB68B5
:1016C000CB1812781A70FB68DB685A1CFB68DA606A
:1016D000FB68DA68FB685B6801339A4202D3FB68F7
:1016E0000022DA607B6901337B617B697A689A4208
:1016F000DFD87B691800BD4607B090BDACCFFF1F97
:1017000090B58BB002AF7446F860B9607A60FB6840
:10171000002B02D0BB68002B08D1264B1868230091
:101720000093002300220021FEF798FB0023BB61F9
:101730007B68002B02D101235B4237E0FB68180075
:10174000FFF756FF031E01D100232FE0FB681800AE
:10175000FFF74EFF03007B617A697B68934200D9F3
:101760001300BB610023FB611BE0FB681A68FB6888
:101770009B68D218FB69B968CB1812781A70FB689D
:101780009B685A1CFB689A60FB689A68FB685B68F8
:1017900001339A4202D3FB6800229A60FB6901334D
:1017A000FB61FA69BB699A42DFDBBB691800BD4681
:1017B00009B090BDACCFFF1F80B586B000AFF86018
:1017C000B9607A6000237B610AE07B697A68D2188D
:1017D0007B69F968CB1812781A707B6901337B61D9
:1017E0007B69022B03DC7A69BB689A42EDDB7A697C
:1017F000BB689A4207DA7B69FA68D31800221A702C
:101800007B6901337B617B691800BD4606B080BDF2
:10181000F0B59DB002AFB860F9607A603B60BB681C
:10182000FC683B617C613B697C69250D00231E00DF
:101830002B005B055B0DBD4A94466344BB64BB68EB
:10184000FC683B647C647B68FB63BB68FC681800D5
:10185000210000F091FA03003B663B6E002B0CD098
:1018600039683B6E002B01D0B14B00E0B14B78687A
:101870001A00FFF7A1FF03006FE2BB68FC681800C5
:10188000210000F09FFA031E07D03968AA4A7B683E
:101890001800FFF791FF03005FE2B86CFDF7AAFAAA
:1018A000A64AA74BFCF750FC03000C0018002100CF
:1018B000FDF76AFA030001337B6600220023B86853
:1018C000F968FBF7ADFB031E4ED08422BB181B68E2
:1018D000002B03D0BB181B68023300E001238421D6
:1018E0007A1813607B181A683B689A4202D87B18F2
:1018F0001B6800E0082384217A18136000233B66EC
:101900007B181B68002B17D03B697C69002C13DA0D
:101910007B682D221A703B6E01333B667B181B6877
:1019200001337A18136007E07A683B6ED3183022CF
:101930001A703B6E01333B663A6E8423FB181B68BA
:101940009A42F1D37B681B78302B01D1012300E050
:1019500002237A68D3182E221A707A683B6ED31845
:1019600000221A703B6EF8E100220023B868F96883
:10197000FBF75CFB031E0FD0BB68BB60FB688022DB
:1019800012065340FB607B682D221A703B68013BB6
:101990003B607B6801337B6000236A4CBB65FC6560
:1019A00000233B660CE0684A684BB86DF96DFCF7A4
:1019B000CBFB03000C00BB65FC653B6E01333B6653
:1019C0003A6E8423FB181B689A42ECD3BA6DFB6D08
:1019D000B868F968FBF744FC03000C00BB60FC60CE
:1019E00000225B4BB868F968FBF720FB031E08D0A8
:1019F0007B6830221A703B68013B3B607B68013397
:101A00007B607B6E002B00DC08E101237B650023FB
:101A1000504CBB65FC657B6E3B660DE080229205F9
:101A20004D4BB86DF96DFCF78FFB03000C00BB65E7
:101A3000FC653B6E0A3B3B663B6E0A2BEED80CE026
:101A40000022444BB86DF96DFCF77EFB03000C00DF
:101A5000BB65FC653B6E013B3B663B6E012BEFD8E3
:101A6000D2E0BA6DFB6DB868F968FBF76FFF030051
:101A70000C003B637C63386B796BFDF785F90200E2
:101A80002F217B181A707B6D002B04D07B181B78DC
:101A9000002B00D1AEE000237B652F23FB181B78C1
:101AA0003033DAB27B681A707B6801337B603B6845
:101AB000002B00D085E0BA6DFB6D386C796CFBF7BC
:101AC00045FF03000C0025001C003968FA6B8423D5
:101AD000FB181B6801938023FB181B6800930B0005
:101AE00020002900FFF794FE03003B650123FB64FF
:101AF0003B6D002B01D100232FE13B6D3A68D31AD7
:101B00003B603B6D7A68D3187B603B68002B05D047
:101B10007B6865221A707B6801337B603B68013B00
:101B20003B60FA239B003B6542E0C04601FCFFFF9F
:101B3000D8410611DC410611E4410611FF799F509E
:101B40001344D33F0000E03F9A9999999999B93F7E
:101B50000000F03F000024405FA002427A6E3B6D1F
:101B60009A4202DAFB6C002B1BD13B68002B0CD095
:101B7000396D786E02F048F90300DBB23033DAB227
:101B80007B681A707B6801337B603B68013B3B607C
:101B90000023FB647B6E396D180002F04DFA0B00D8
:101BA0007B663B6D0A21180002F02EF903003B65AD
:101BB0003B6D002BD2DC3B68002B00D0C4E000233F
:101BC000CBE02F23FB181B781800FDF713F9BA6D33
:101BD000FB6DFCF7B9FA03000C001A002300B8688B
:101BE000F968FCF739FD03000C00BB60FC603B6842
:101BF000013B3B6000225B4BB86DF96DFBF7A6FE25
:101C000003000C00BB65FC65574A584BB86DF96D75
:101C1000FBF720FA031E00D023E703E0544B554C9A
:101C2000BB65FC657A68FB6B9A420DD13B68002B63
:101C300001D1002391E03B68013B3B607B6830228F
:101C40001A707B6801337B608423FB181B68002BB0
:101C500009D17A68FB6BD31A01338022BA18126853
:101C60009A4200D872E03B68002B01D1002374E057
:101C70003B68013B3B607B682E221A707B68013316
:101C80007B607A68FB6BD31A1A0080217B181B6873
:101C90009B1A01330A00B9180B6084217B181B685A
:101CA000002B03D07B181B68BA1813608023FB1825
:101CB0001A683B689A4241D900234EE0BA6DFB6D29
:101CC000B868F968FBF742FE03000C003B627C62D7
:101CD000386A796AFDF758F802001F217B181A70DC
:101CE0007B181B783033DAB27B681A707B6801335B
:101CF0007B607B181B781800FDF77CF8BA6DFB6DD4
:101D0000FCF722FA03000C001A002300B868F968F7
:101D1000FCF7A2FC03000C00BB60FC600022114B2E
:101D2000B86DF96DFBF712FE03000C00BB65FC6596
:101D30008022BB181B68013BBA1813608023FB1874
:101D40001B68002BBAD101E0C04600E0C0467B68AA
:101D500000221A707A68FB6BD31A1800BD461BB0BC
:101D6000F0BDC04600002440CDCCCCCCCCCCEC3F68
:101D70009A9999999999B93F90B585B000AF386013
:101D800079603B687C68BB60FC60BB68FC68002BCA
:101D900002D10A4A94420BD0BB68FC68002B05D1E3
:101DA000074A944202D101235B4202E0002300E093
:101DB00001231800BD4605B090BDC0460000F07F6D
:101DC0000000F0FF90B585B000AF386079603B68E7
:101DD0007C68BB60FC60BB68FC68002B02D10C4ACD
:101DE00094420DD0BB68FC68002B02D1094A944292
:101DF00006D0BB68FC68002B04D1074A944201D18D
:101E0000012300E000231800BD4605B090BDC04688
:101E10000000F87F0000F07F0000F8FFF0B589B007
:101E200000AF78613961BA60FB600023BB613B6938
:101E3000013B3B613B697A69D31800221A703B6908
:101E40007A69D318FB61BB6B002B02D0BB6B242BD0
:101E500001DD0A23BB630023BB61BB68FA6813433F
:101E600042D1FB69013BFB61FB6930221A700123FF
:101E7000BB6139E0FB69013BFB61BB6B1D00DB17FC
:101E80001E00B868F9682A003300FBF7F7F81C0059
:101E90001300DBB23033DAB2FB691A70FB691B78CE
:101EA000392B10D9FB691A78342308218C46BC449D
:101EB00063441B78002B01D0072300E027239B18E5
:101EC000DAB2FB691A70BB6B3B60DB177B603A6868
:101ED0007B68B868F968FBF7D1F803000C00BB60B9
:101EE000FC60BB690133BB61FA697B699A4203D923
:101EF000BB68FA681343BDD1BB695A1CF9697B6999
:101F0000180001F049FDBB691800BD4609B0F0BDDD
:101F100080B586B000AFF860B9607A603B6000239E
:101F20003B61BB68013BBB60FA68BB68D318002209
:101F30001A70FA68BB68D3187B613B68002B02D02B
:101F40003B68242B01D90A233B6000233B617B685B
:101F5000002B2FD17B69013B7B617B6930221A709A
:101F600001233B6126E07B69013B7B617B6839682B
:101F7000180002F041F80B00DBB23033DAB27B69B3
:101F80001A707B691B78392B0BD97B691A783B6AED
:101F9000002B01D0072300E027239B18DAB27B69CE
:101FA0001A703968786801F0D7FF03007B603B69DD
:101FB00001333B617A69FB689A4202D97B68002B46
:101FC000D1D13B695A1C7969FB68180001F0E4FC27
:101FD0003B691800BD4606B080BD80B582B000AF39
:101FE000786039603A687B6811001800FDF724F9C1
:101FF00003001800BD4602B080BD000080B582B06D
:1020000000AF7860054B1A687B6811001800FFF775
:10201000E4FF00231800BD4602B080BD2CCEFF1F98
:102020000CB480B584B000AF786039601C23FB1815
:10203000BB60BB68BA693968786801F009F80300C9
:10204000FB60FB681800BD4604B080BC08BC02B051
:1020500018470EB480B585B000AF78602023FB1818
:10206000BB60BA68F9697B68180001F03DF80300AD
:10207000FB60FB681800BD4605B080BC08BC03B01F
:10208000184780B584B000AF78600023FB6002E0A1
:10209000FB680133FB607A68FB68D3181B78002B60
:1020A00005D07A68FB68D3181B78252BF0D1FB6824
:1020B0001800BD4604B080BD90B587B000AFF86091
:1020C000B9607A6000237B6114E0FB685C687B6820
:1020D000303B5A425341DBB21A01154BD018FB6812
:1020E0001B681A001021A047BB68103BBB607B69CE
:1020F00010337B61BB680F2BE7DCBB68002B12DD64
:10210000FB685C687B68303B5A425341DBB21A0182
:10211000074BD018B968FB681B681A00A0477A699A
:10212000BB68D3187B617B691800BD4607B090BDC2
:1021300028450611F0B5C3B002AFF860B9607A6007
:102140000023FC22BA181360E74B1B68C022BA18A0
:10215000136000F0F6FEBB681800FFF792FF030063
:10216000F8257A1913607B191B68002B16D0FB68C1
:102170005C68FB681A687B191968BB681800A0477F
:10218000FC203B181A6829007B181B68D3183A18E2
:102190001360BA687B181B68D318BB60BB681B78D8
:1021A000252B01D000F0CDFEF323FB1820221A705E
:1021B000F223FB1800221A70F123FB1800221A7078
:1021C000F023FB1800221A70EF23FB1800221A706C
:1021D000EE23FB1800221A70ED23FB1800221A7060
:1021E000EC23FB1800221A70EB23FB1800221A7054
:1021F0000023E022BA1813600023DC22BA1813600F
:102200000023D822BA18136000230024D022BA1861
:1022100013605460BB680133BB60BB685A1CBA6072
:102220001A7897217B181A707B181B787A2B01D9A2
:1022300000F086FE9A00AD4BD3181B689F46012321
:102240005B4200F087FEF023FB18FF221A70F32296
:10225000BB18BA1812781A70EF22BB18BA18127885
:102260001A70EE22BB18BA1812781A70ED22BB1839
:10227000BA1812781A70EC22BB18BA1812781A70B1
:10228000EB22BB18BA1812781A70C6E7EB217B183C
:102290001B78013BDAB27B181A70F322BB18BA180C
:1022A00012781A70F022BB18BA1812781A70EF223E
:1022B000BB18BA1812781A70EE22BB18BA18127826
:1022C0001A70ED22BB18BA1812781A70EC22BB18DB
:1022D000BA1812781A70A0E7EB217B181B7801332B
:1022E000DAB27B181A70EB217B181B780133DAB253
:1022F0007B181A70F322BB18BA1812781A70F022E1
:10230000BB18BA1812781A70EF22BB18BA181278D4
:102310001A70EE22BB18BA1812781A70ED22BB1888
:10232000BA1812781A70EC22BB18BA1812781A7000
:1023300073E7EF23FB1801221A70F322BB18BA18B7
:1023400012781A70F022BB18BA1812781A70EE229E
:10235000BB18BA1812781A70ED22BB18BA18127886
:102360001A70EC22BB18BA1812781A70EB22BB183C
:10237000BA1812781A7050E7EE23FB1801221A706F
:10238000F322BB18BA1812781A70F022BB18BA18C8
:1023900012781A70EF22BB18BA1812781A70ED2250
:1023A000BB18BA1812781A70EC22BB18BA18127837
:1023B0001A70EB22BB18BA1812781A702DE7ED23A9
:1023C000FB1801221A70F322BB18BA1812781A707F
:1023D000F022BB18BA1812781A70EF22BB18BA187C
:1023E00012781A70EE22BB18BA1812781A70EC2202
:1023F000BB18BA1812781A70EB22BB18BA181278E8
:102400001A700AE7EC23FB181B78002B03D001237A
:102410005B4200F09FFDBB68013B9822B9180A227D
:10242000180001F0C5FC0300E022BA1813609723DE
:10243000FB181B78302B08D1EF23FB181B78002BDF
:1024400003D1F323FB1830221A709823FB181B6862
:10245000BB60F022BB18BA1812781A70EF22BB18B2
:10246000BA1812781A70EE22BB18BA1812781A70BD
:10247000ED22BB18BA1812781A70EC22BB18BA18E1
:1024800012781A70EB22BB18BA1812781A70C4E6C8
:102490007B681A1D7A601B68E022BA181360F32269
:1024A000BB18BA1812781A70F022BB18BA18127832
:1024B0001A70EF22BB18BA1812781A70EE22BB18E5
:1024C000BA1812781A70ED22BB18BA1812781A705E
:1024D000EC22BB18BA1812781A70EB22BB18BA1883
:1024E00012781A7099E6C046ACCFFF1F4845061116
:1024F000EC23FB1801221A70BB681B782A2B12D11F
:102500007B681A1D7A601B68BC22B9180B60BB1867
:102510001B68002B00DA0023DC22BA181360BB68AA
:102520000133BB6016E09823F918BB680A22180033
:1025300001F08EFB0300B822B9180B60BB181B68B2
:10254000002B00DA0023DC22BA1813609823FB1852
:102550001B68BB60F322BB18BA1812781A70F022FD
:10256000BB18BA1812781A70EF22BB18BA18127872
:102570001A70EE22BB18BA1812781A70ED22BB1826
:10258000BA1812781A70EB22BB18BA1812781A709F
:1025900043E67B681A1D7A601B68DAB29723FB1842
:1025A0001A70FB685C68FB681A689723FB180121A6
:1025B0001800A047FC22BB181B680133BA1813602F
:1025C00000F0BFFCC023FB181B68180000F0A0FD42
:1025D000030098257A1913607B191B68180001F015
:1025E000DBFC0300F8217A181360FB685C687B1938
:1025F0001868FB681A680D007B181B681900A04753
:10260000FC217B181A687B191B68D3187A18136091
:1026100000F097FC7B681A1D7A601B689822B91835
:102620000B60BB181B68002B02D1DA4BBA18136081
:102630009823FB181B68180001F0AEFC0300F8217A
:102640007A181360EC23FB181B78002B0AD07B1838
:102650001A68DC203B181B689A4203D93B181B6898
:102660007A1813600023DC22BA181360EC23FB18DD
:1026700000221A70F323FB1820221A709822BB182C
:102680001B68B42179180B600023CC2179180B60EA
:10269000E023FB181B68002B19D1DC23FB181B68F7
:1026A000002B14D1FB685C68BB181868FB681A68BB
:1026B000F8257B191B681900A047FC217B181A68B4
:1026C0007B191B68D3187A18136000F03AFCF223C8
:1026D000FB181B78002B03D00123CC22BA181360FF
:1026E000F022BB181B78002B04D0BB181B78CC221F
:1026F000BA181360CC217B181B68002B17D09820C8
:102700003B181A687B181B68D3183A1813607B189B
:102710001B68F8203A181268D31A3A1813607B180D
:102720001B68E0217A181268D31A7A181360EF2315
:10273000FB181B78002B00D0AEE0EC23FB181B78B5
:10274000002B48D0DC23FB181A68F823FB181B6801
:10275000934200D21300B0217A181360E023FB18D3
:102760001A687B181B68D11AFB6820221800FFF733
:10277000A3FC0200FC257B191B689B187A191360C7
:10278000CC26BB191B68002B11D0FB685C68BB19F9
:102790001968FB681A68B423FB181B681800A04767
:1027A0007B191A68BB191B68D3187A191360DC23CC
:1027B000FB181A68F823FB181B68D11AFB68302233
:1027C0001800FFF779FC0200FC217B181B689B189E
:1027D0007A1813604BE0CC257B191B68002B1AD0AC
:1027E000F323FB181B78302B15D1FB685C687B1931
:1027F0001968FB681A68B423FB181B681800A04707
:10280000FC217B181A687B191B68D3187A1813608F
:1028100000237A191360E023FB181A68F823FB18C9
:102820001B68D11AF323FB181A78FB681800FFF70E
:1028300043FC0200FC257B191B689B187A19136066
:10284000CC26BB191B68002B11D0FB685C68BB1938
:102850001968FB681A68B423FB181B681800A047A6
:102860007B191A68BB191B68D3187A191360FB68A7
:102870005C689823FB181868FB681A68F8257B19B0
:102880001B681900A047FC217B181A687B191B687C
:10289000D3187A18136054E3EF23FB181B78002B2E
:1028A0005AD0CC257B191B68002B12D0FB685C68C2
:1028B0007B191968FB681A68B423FB181B68180099
:1028C000A047FC217B181A687B191B68D3187A185B
:1028D0001360DC23FA181268F82579190B68D11AED
:1028E000FB6830221800FFF7E7FB0200FC26B9194D
:1028F0000B689B18BA191360FB685C689822BA18B9
:102900001068FB681A6879190B681900A047BA1992
:10291000126879190B68D318BA191360DC23FB18F5
:102920001A687B191B68934200D21300B0217A18F1
:102930001360E023FB181A687B181B68D11AFB6828
:1029400020221800FFF7B8FB0200FC217B181B684F
:102950009B187A181360F4E2FB685C689823FB18F4
:102960001868FB681A68F8257B191B681900A047CE
:10297000FC217B181A687B191B68D3187A1813601E
:10298000DFE20223E422BA1813600023F822BA1807
:1029900013606AE0E8410611F023FB1802221A7066
:1029A000EB23FB1801221A709723FB1878221A7068
:1029B0009723FB181B78583B5A425341DAB2F12354
:1029C000FB181A701023E422BA1813600023F821B0
:1029D0007A181360F0203B181B78002B0ED01424BB
:1029E0003B1930225A709723FB181A783B199A70BA
:1029F0003B1802221A7002237A181360DC217B181C
:102A00001A68E0203B181B689A422BD97B181B6878
:102A10003A18136026E0F223FB1801221A700A23E9
:102A2000E422BA1813600023F822BA1813601CE0DD
:102A30000823E422BA1813600023F8217A181360DF
:102A4000F0203B181B78002B0ED01423FB183022EB
:102A50005A703B1801221A707B181B6801337A18D0
:102A6000136002E0C04600E0C0461423FB180133A7
:102A70009822BA181360EB22BB181B785BB2002BAC
:102A80001ADDBB181B785BB2012B0DDD7B680733A9
:102A9000072293431A0008327A605C681B68D022D0
:102AA000BA18136054600EE07B681A1D7A601B68C8
:102AB000D822BA18136006E07B681A1D7A601B687A
:102AC000D822BA181360F2203B181B78002B26D0AE
