:020000041100E9
:10A0000030040120C1880020000000000000000092
:10A010000000000000000000000000000000000040
:10A020000000000000000000000000000000000030
:10A030000000000000000000000000000000000020
:10A040000000000000000000000000000000000010
:10A050000000000000000000000000000000000000
:10A0600000000000000000000000000000000000F0
:10A0700000000000000000000000000000000000E0
:10A0800000000000000000000000000000000000D0
:10A0900000000000000000000000000000000000C0
:10A0A00000000000000000000000000000000000B0
:10A0B00000000000000000000000000000000000A0
:10A0C000002080F314880A4885460A490A4A00207D
:10A0D000521A002A04D008600431043A002AFAD146
:10A0E000064880470648804706488047FEE700004C
:10A0F0003004012030E400207818012055BC0020F5
:10A1000029BC002009A300208446101C62468C460E
:10A11000191C634600E0C0461FB500F033F9002863
:10A1200001D40021C8421FBD10B500F087F840429D
:10A13000013010BD10B500F025F9002801DB00202A
:10A1400010BD012010BDC04610B500F01BF900285D
:10A1500001DD002010BD012010BDC04610B500F08B
:10A16000ADF8002801DC002010BD012010BDC04664
:10A1700010B500F0A3F8002801DA002010BD01207E
:10A1800010BDC0461C2101231B04984201D3000CC2
:10A1900010391B0A984201D3000A08391B0998425A
:10A1A00001D30009043902A2105C40187047C04670
:10A1B0000403020201010101000000000000000090
:10A1C000414208401C2101231B04984201D3000C8A
:10A1D00010391B0A984201D3000A08391B0998421A
:10A1E00001D30009043902A2105C401A7047C0462E
:10A1F0001B1C1D1D1E1E1E1E1F1F1F1F1F1F1F1F7E
:10A2000070B500220C4B04000D00FFF7B1FF0028D1
:10A2100004D12000290000F039FF70BD064B002258
:10A220002000290000F09AFB00F030FF80231B067D
:10A230009C466044F1E7C0460000E041F0B54E4660
:10A240004546DE4657461C03E0B5240B1A4E0F0365
:10A250004D00A1465C00DB0F84463F0B6D0DC90F1E
:10A260009046640D9B46B5421AD0B44210D00126E8
:10A27000A5420ED14F450CD10126C44509D15945FF
:10A2800018D0002D05D138430600701E864100E02D
:10A29000012630003CBC90469946A246AB46F0BD34
:10A2A0003B0001260343F4D1AC42F2D14B461343A9
:10A2B000EFD1E1E70026ECE7FF070000F0B54F46DD
:10A2C0004646D6464D00C0B50E03C90F8A462C49F6
:10A2D0001F035C008046360B6D0D91463F0B640DED
:10A2E000DB0F8D421ED08C4216D0002D1ED1304384
:10A2F0008446002C01D13A4323D06246002A1AD06A
:10A300009A4529D0514602200139084001381CBC29
:10A3100090469946A246F0BD39001143E5D002208F
:10A320004042F4E73043FAD1AC420FD0002C0FD1B9
:10A330003A43E7D00CE00122013B9343180001307F
:10A34000E5E763460020002BE1D0DBE73A43E6D1A6
:10A350009A45D7D1A542D5DCA54205DBBE42D1D86E
:10A3600008D00020BE42D2D2504601230138984383
:10A370000130CCE7C845C5D80020C845C7D2F3E7AF
:10A38000FF070000F0B54F464646D6464D00C0B523
:10A390000E03C90F8A462C491F035C008046360B0A
:10A3A0006D0D91463F0B640DDB0F8D421ED08C422C
:10A3B0000CD0002D1ED130438446002C0BD13A43E3
:10A3C00009D163460020002B2FD009E0390011434A
:10A3D000EFD0022029E06246002A21D09A4511D010
:10A3E000514602200139084001381EE03043F0D1C7
:10A3F000AC421FD0002C01D13A43F1D09A45EFD1A5
:10A40000A542EDDCA54205DBBE42E9D816D000200E
:10A41000BE420AD25046012301389843013004E07D
:10A420000122013B9343180001301CBC9046994621
:10A43000A246F0BD3A43E1D00220F6E7C845CFD8A6
:10A440000020C845F1D2E5E7FF070000F0B5574608
:10A450004E464546DE46E0B50C0381461F0005002A
:10A46000230B480087B092469846400DCE0F002837
:10A4700000D17CE07D4B984200D196E043466C0FC2
:10A48000DB001C4380237A4A1B041C4394460300D0
:10A4900063440193002398469B46ED003B031B0B4E
:10A4A00099467A00FB0F5146520D029300D187E086
:10A4B0006E4B9A4222D06E484B0F844601986244FC
:10A4C0008446494694446246C9000B438021019268
:10A4D000002209040B4351469446C90032000298F9
:10A4E000424001980130039040460F2800D9C7E050
:10A4F0008000804647465F48C05987464A465346D3
:10A500005A4813438446019A62440192002B00D0BA
:10A510008CE0022241461143884694460021DDE743
:10A52000029A1C000D00E3465B46022B6BD0032B06
:10A5300000D1FFE1012B00D065E1002600240025B9
:10A5400000212403230B0C0D24051C434A4B360524
:10A55000234033435B00D2075B08134328001900F4
:10A5600007B03CBC90469946A246AB46F0BD1C00E5
:10A570002C4353D04346002B00D181E14046FFF7E6
:10A5800001FE02000B3A1D2301009B1A44464A4675
:10A590004D4608398C40DA408D401443374B1B1A26
:10A5A0000193002398469B4678E74C4643461C435C
:10A5B0002DD108239846063B002501909B466DE768
:10A5C0004B4601220B43A5D04B46002B00D147E15F
:10A5D0004846FFF7D7FD02000B3A1D27BA1A574627
:10A5E0000100D740524608394B468A408B40110043
:10A5F0003B43019A214F101ABC460200624401926B
:10A60000002294466AE7194E0024002598E70C239F
:10A6100044469846093B01909B463FE704239846F1
:10A6200000230193013300259B4637E7032342466D
:10A630001A43904603224B4694464FE7320073E795
:10A640008024002224030025084E79E7802212038B
:10A65000144200D1FCE0134200D0F9E01A43140385
:10A66000240B029A0D00014E6AE7C046FF07000066
:10A6700001FCFFFF20DC0020FFFF0F800DFCFFFF2F
:10A680002F0C2D042D0C28000E0C0904090C484336
:10A6900080460800784381463000784302902800C5
:10A6A000704384464046000C8246CC44D444E14585
:10A6B00007D902988246802040028146CA4450460B
:10A6C00002906046000C8346604600048446404683
:10A6D0000004000C8046604640440490180C8046FC
:10A6E00028001B041B0C58438446180078438146FD
:10A6F0004046784382464046454360464D44070CF9
:10A700007D19A94503D9802040028146CA4460468C
:10A710002F0CBA4407043F0C2D04ED19AB445846E6
:10A72000270C2404240C05902000484379438946D3
:10A7300039008446000C8346714366434E445E44B0
:10A74000B14503D98020400281464944300C8146FE
:10A7500060460004000C844620005843494481466A
:10A76000404678433604664484464046444348465F
:10A770007B43070CE4183C19A34203D980235B02F6
:10A780009846C4440598029B804648460004000C45
:10A7900043448146AB42AD419B19B342B6412704C5
:10A7A0004F446D4257447819804676428B46B146F5
:10A7B000C344D9445745BF41A845AD418B45894164
:10A7C000B145B6416D427F422F43240C4942764247
:10A7D00031433C19641849466444C90D64020C4372
:10A7E00004995D020D43691E8D41DB0D1D434B46EF
:10A7F0005B021D43E3017AD501216B080D401D4327
:10A80000E3071D4364084F4B0399CE18002E46DD25
:10A810006B0709D00F212940042905D02B1DAB421D
:10A82000AD416D4264191D00E30105D5464B039906
:10A830001C408023DB00CE1844498E4200DDE2E656
:10A840006307ED08640276051D43240B760D77E659
:10A8500080231B031C4324033200240B3C4E6FE671
:10A860005046FFF78FFC03001A00153220301C2AD7
:10A8700000DCB2E65246083B9A4000211300B8E6DD
:10A880004846FFF77FFC03001A00153220301C2ACF
:10A8900000DC78E64C46083B9C4000257EE6012122
:10A8A000891B382900DD48E61F2923DC294B2E00AF
:10A8B0009C46039BCE4063441800230085408340A0
:10A8C000681E854133432B43CC40590709D00F21E3
:10A8D0001940042905D0191D99429B415B42E41897
:10A8E0000B0021021FD501260024002528E6019B2C
:10A8F000039388E71F235B429E1B2300F34020291C
:10A9000005D015498C46039961448C402543691E46
:10A910008D412B43072500241D4007D00F21002423
:10A9200019400429D7D165076402240BDB081D43B5
:10A93000002605E680231B031C432403240B044E3E
:10A94000FEE5C046FF030000FFFFFFFEFE0700001C
:10A95000FF0700001E0400003E040000F0B557464B
:10A9600045464E46DE46E0B50F037F0A450F3D43A0
:10A97000AC465D004E00CC0F690D8A461F03CC49E2
:10A98000550F83B0C0007F0AD200760D8046DB0FE2
:10A990002F4301928A4500D1C0E05546751BA94658
:10A9A0000125AB465D466B409B469C4200D190E042
:10A9B0004D46002D00DCBBE05346002B00D1D5E016
:10A9C0008E4200D1B5E180231B041F434B46382B38
:10A9D00000DD8BE11F2B00DD36E2494620233D00E0
:10A9E0005B1A11009A409D40531E9A414B46A8465F
:10A9F0004D46DF406346E9404546DB1B9C460D4320
:10AA00001543451BA842804163464142591A0B0237
:10AA100000D40DE149024B0A98464346002B00D171
:10AA200057E14046FFF7AEFB0300083B2022290018
:10AA30004746D21A9F40D1409D400F439E4200DDC1
:10AA400040E19E1B731C1F2B00DDD2E12022280059
:10AA5000D21A390095409140D8406A1E9541014371
:10AA60000D4339000026D9406B0709D00F232B4036
:10AA7000042B05D02B1DAB42AD416D4249191D0081
:10AA80000B0200D4D7E0721C894B5605760D9A4212
:10AA900000D1DFE0874FED080F407807284382465A
:10AAA0007A02120B00211203130B0A0D12051A432E
:10AAB000814B3605134033435B00E4075B082343B7
:10AAC0005046190003B03CBC90469946A246AB469E
:10AAD000F0BD4D46002D5CDD5346002B00D18BE0D0
:10AAE0008E4200D116E280231B041F434B46382BB5
:10AAF00000DD8EE11F2B00DCC0E13900203BD94096
:10AB00004B46202B05D040234D465B1B9F403A43CC
:10AB10000192019D6F1EBD410D437EE167493D00DD
:10AB200089461543B144002D2ED09B469C4230D01F
:10AB3000494600294AD1624D711C294200D0E1E00A
:10AB40003D00614615430143AA46002E00D0EFE1C7
:10AB5000002900D1C5E1002D00D000E26346C00805
:10AB60005B07184363468246D9086DE03B001343F8
:10AB700000D1C0E04B46013B002B00D1C1E189452B
:10AB800000D1D6E0994621E701256B409B469C42C7
:10AB9000CED14946002900D0D2E0711C8A465546E4
:10ABA00047490D4235D161460143002E00D08AE16C
:10ABB000002900D10CE23B00134300D00EE26346B3
:10ABC000C0085A0702439246D9083DE05146891B06
:10ABD00089465C46002E00D0E4E06346034300D182
:10ABE0006BE10B00013B002B00D1E8E1304DA942A5
:10ABF00000D1DEE19946DEE03B0013437BD04B46BB
:10AC0000013B002B00D14CE1894500D182E19946FE
:10AC10006CE7274B9A4500D1EDE1821882428941C9
:10AC20005646674449427918CD07520815434908EA
:10AC30006B0700D01AE74B07ED081D43AA46B14643
:10AC4000C9081B4B994527D04B460A035E05120BDA
:10AC5000760D27E71600002300229A4622E7634676
:10AC6000C0085E073043D9088246002D14D08025E5
:10AC70002D03294207D0FE082E4204D15C46310044
:10AC8000D20878071043CA00410F1143C0004A0799
:10AC9000C00810438246C90853460B4300D1EEE179
:10ACA000802212030A431203120B014EFAE6C04639
:10ACB000FF070000FFFF7FFFFFFF0F8001F8FFFF8E
:10ACC000FE070000D149F61A39406B0700D0CDE6E7
:10ACD000B1E72800FFF756FA030018331F2B00DCFA
:10ACE000A4E6083885402F000025A7E63A43150062
:10ACF0006A1E954185E66346C0085A07024392469C
:10AD0000D9089EE76146851ACB1BA8428941494272
:10AD1000884619004346C91A0B0088461B0200D515
:10AD200013E10B002B439A4600D076E60021002465
:10AD30008AE76346C0085A0702439246D908ABE740
:10AD400053469B1B9946002E00D08EE0634603437A
:10AD500000D1B2E04B46013B002B00D170E1AC4D7D
:10AD6000A94500D125E199464B46382B00DD08E185
:10AD70001F2B00DD4EE1494620234E465B1A6546F7
:10AD8000010098409D40F140431E98410D4305430A
:10AD90006046F0403F18AD18954289414942C919B3
:10ADA00056463FE09A4B9A4500D1A4E08023614685
:10ADB0001B0419438C464B46382B00DDB2E01F2B99
:10ADC00000DDE4E0494620234E465B1A654601005B
:10ADD00098409D40F140431E98410D430543604615
:10ADE000F0403F1A551BAA4289414942791A5646FA
:10ADF0000DE63A001F3EF2401600202B03D0402201
:10AE0000D31A9F403D436B1E9D41002135430026D0
:10AE10000EE73A4315006A1E95412D188542804180
:10AE2000414261440B0200D402E7794B01369E4255
:10AE300000D110E70122754F6B08394015401D43C2
:10AE4000CB071D4349080FE63900203BD9404B464C
:10AE5000202B05D040234D465B1B9F403A43019277
:10AE6000019D6F1EBD410D43CBE5694B9A4542D014
:10AE7000802361461B0419438C4675E7494620230D
:10AE80003D005B1A9D4011009A40A8464D46531E56
:10AE90009A414B46E9404546DF400D431543BC44CB
:10AEA000BBE78518854289416744494279180126E4
:10AEB0000B0200D4BCE60226BCE7D2087B071A438B
:10AEC0009246F908BDE6002915D063463D005E07AD
:10AED000D9081543C008002D00D0B8E030438246A1
:10AEE000DAE6002D00D121E77907D2080A4392461D
:10AEF000F9085C46A8E67807D20810438246F908AC
:10AF0000CAE6851A6346A8428041DF1B4042391ACF
:10AF100001267CE56346C0085B071843634682460A
:10AF2000D908B9E6634603431D00681E854159E709
:10AF3000002900D093E6002D00D17DE07907D208EA
:10AF40000A439246F9085C46A6E6151A6346AA42E9
:10AF50009241FF1A5242BB1A98465C465DE5634631
:10AF6000851AD91BA8429B415B42C91A0B0247D5DF
:10AF7000151A6346AA429241FF1A5242B91A5C4618
:10AF800072E5634603431D00681E854103E766467C
:10AF9000203BDE404B46202B06D0494640235B1A1F
:10AFA00061469940084380464546691E8D413543B8
:10AFB00018E7D2087B071A439246F9086CE6151A7F
:10AFC0006346AA429241FF1A5242B91A01261EE56F
:10AFD0007807D20810438246F90835E6851885427D
:10AFE00089416744494279180B0200D420E6074B97
:10AFF000012619401CE60023564600229A4651E5D8
:10B000002B000B439A4600D190E611E6FFFF7FFF2D
:10B01000FF0700006646203BDE404B46202B06D053
:10B02000494640235B1A614699400843804645469D
:10B03000691E8D413543AEE68021002409032FE6C9
:10B040008518954292416744514279182FE706438B
:10B0500080200003014208D0FD08054205D1D20836
:10B060007F073A4316005C462900CA00710F11435E
:10B07000F6004A07F60832439246C9080CE6002358
:10B08000014E9A461A000DE5FF07000030B5144D39
:10B090000A034B00120B5B0DC90F0024AB4204DD09
:10B0A000104CA34203DD104BCC18200030BD80248F
:10B0B000640322430D4CE41A1F2C08DD0C48C31A0C
:10B0C000DA4013005C420029EFD11C00EDE7094D86
:10B0D000E040AC4663449A4013000343F2E7C046A5
:10B0E000FE0300001D040000FFFFFF7F330400008B
:10B0F00013040000EDFBFFFF10B5041E12D0FFF794
:10B1000041F8144B1B1A5B055B0D0A281BDC02007F
:10B110002100153291400A000B21081AC440240373
:10B12000240B02E00023002400220021100024034D
:10B130000A0D240B12052243074C1B052240134322
:10B140005B00590810BD0B3884402403240B0022F7
:10B15000EBE7C0461E040000FFFF0F80F0B50500BE
:10B1600085B008000C00160000F044FD27182000F0
:10B1700000F040FD431901933B6831002800039320
:10B1800002F06EF8002803D00120404205B0F0BD67
:10B19000321F211D281D02F095F80028F4D1042249
:10B1A00003A9019802F08EF8431E9841EDE770B5AF
:10B1B00088B001AD08002900140000F0DDFD061E76
:10B1C00011D108220199200004F0CEF86B69AA6819
:10B1D00023616B7EE6712376EB68E2609B1A636104
:10B1E000300008B070BD01267642F9E7F0B51F00C7
:10B1F00001238DB0029105AD06003B602900029845
:10B20000140000F0B9FD002800D073E0A368AA681C
:10B2100093421AD1E368EA68934216D123692A69F6
:10B22000934212D163696A6993420ED1227E2B7ECA
:10B230009A420AD1627E6B7E9A4206D108226968E0
:10B24000606804F047F8002854D0F06802F0C8F8AD
:10B25000071E42D0F268002104F0D6F8F2683900E7
:10B26000706802F01DF80090002833D1BB8A3D00C1
:10B270000393030058350193019A039B934225DD04
:10B2800008220299280004F025F8002828D1280077
:10B2900008226168083004F067F8237E39002B74B7
:10B2A000637E6B74A368E268B068D21A520A6A823D
:10B2B000EF2212069B185B0A6B612369F268AB618F
:10B2C0006369EB61FFF74AFF002803D1BB8A019A4B
:10B2D000934209D1380002F087F801235B420BE06A
:10B2E000019B20350133C6E7380002F07DF8009855
:10B2F0000DB0F0BD00233B600093F8E770B505008A
:10B30000C06802F06DF8041E19D0EA68002104F04C
:10B310007BF8EA682100A86801F0C2FF00280BD181
:10B32000EA6868682100FFF719FF051E04D12000B4
:10B3300002F05AF8280070BD200002F055F80125EF
:10B340006D42F7E7F0B50500C5B04668012900D1A8
:10B350008668E86802F044F8041E3DD0EA680021DF
:10B3600004F052F8EA682100300001F099FF071E4E
:10B370002FD1230002A9183303A8019300F052FB38
:10B38000029B402B05D9402302AA029303339B184A
:10B390001F70029A03A9019803F04AFF0023029349
:10B3A000A78A02A97F01583703A800F01DFB029A63
:10B3B00003A9E01903F03CFFEA6821003000FFF721
:10B3C000CDFE051E05D1200002F00EF8280045B084
:10B3D000F0BD200002F008F801256D42F6E773B5D4
:10B3E0001D00069B04001600012B05D113000095DB
:10B3F000079A02F013F876BD079BAB4202D20120F8
:10B400004042F8E7079901F02BFF0028F7D12A0006
:10B410003100200001F056FF431E9841F0E7000084
:10B42000034B10B51968034B186801F019FF10BDE4
:10B430003C04012030040120054B186053001B1808
:10B4400004480360044B00201A60044B19607047E5
:10B450003004012034040120380401203C04012080
:10B46000F0B5324B324CA5441C68324B22689A42EC
:10B470004ED16379052B4BD82379002B50D1A56889
:10B480006619731CFF330693E37950AF0993A379D0
:10B490001800079300F0C2FC274B0590196804229E
:10B4A000380003F0C5FE0122244B0892509A9A42BC
:10B4B00031D00DA800F0D4FB002829D10D9B8022AB
:10B4C0000A930E9B310038000B9303F0B1FE059AEE
:10B4D000069910A803F0ACFE0CAB00932A002100E3
:10B4E000079830AB01F088FF059A30A910A803F047
:10B4F00077FE00280CD1802302936C3B00930197C8
:10B5000010AB0B9A0A99099801F074FF002802D039
:10B5100001235B420893089891239B009D44F0BD52
:10B52000012BF5D1A568023B6619ACE73404012074
:10B53000BCFDFFFF494D474530040120BAAB4774BD
:10B54000054B1A68831A127B9B1A00220F2B01D914
:10B550000200103A100070473404012070B50D004D
:10B5600004000D4B0822010028001E6803F0FCFEB9
:10B57000A0688319EB60237B2B76327BA31B9B1A7D
:10B580001B0972790133934204D1B368181A2861F8
:10B59000C01770BDA369F9E73404012010B530224B
:10B5A00000F04FFC002010BD10B5084C0121200018
:10B5B000FFF7C8FE002806D12000FFF79FFE431EBC
:10B5C0009841404210BD0120FBE7C046BC16012057
:10B5D000F0B585B014006A46384B394D1E682B68AB
:10B5E00000AF0733DB08DB00D31A9D46B8607960F3
:10B5F0002A6869463000FB6000F023FCBB68012B21
:10B600001ED1022C58D82F4B009A9A4216D12E4B9D
:10B610001A687B68117B9B1A52795B1A1B0993424B
:10B620004AD2002C03D11A0179686A4411619B0047
:10B630001C19FB68A4001C19244B6360022414E04D
:10B64000BB68032B02D00124644231E02B68300038
:10B65000590001F005FE0028F5D101242A68FF21D8
:10B66000684603F0D1FE174B00932968FB68184A1F
:10B670005B18043B1A608819644201F0F1FD002850
:10B6800016D12B68F96898191A0001F01BFE0028E2
:10B690000ED12968300001F0E3FD002808D12A68A6
:10B6A000F968300001F00EFE431E9841404204400C
:10B6B0002000BD4605B0F0BD0224C5E730040120DE
:10B6C00038040120BAAB477434040120ACCA744773
:10B6D00053358DD8F0B5A5B005901F000B7E0D0039
:10B6E00002930023029909930F3399431AD10AAAAE
:10B6F0002900EC682E69FFF75AFD002802D00120CE
:10B70000404212E00F9B220003930193029B0E998B
:10B710001B07DB0F00930D983300FFF760FE431EFD
:10B720009841EDE7102902D0002025B0F0BD002A95
:10B7300000D08BE0484E3900336801205C7BFFF776
:10B7400047FF0028DBD108AB07AA2969E86800F0A9
:10B750005BFA0028D3D1EB68089803932B69049314
:10B76000002C6AD13D4B34681E6880235B019E42E9
:10B7700000D21E000138039B001B8019C018310045
:10B7800003F032FE039A46439446049B3619634401
:10B790009C1B0AAA29000598FFF709FD0028AED1D5
:10B7A0000F9B320003930193029B0E991B07DB0F43
:10B7B00000930D982300FFF712FE00289FD101226D
:10B7C00039001000FFF704FF002898D108AB07AA42
:10B7D0002969E86800F018FA002800D08FE711AC5A
:10B7E0002100280000F0C8FA002800D087E718AE32
:10B7F0003100E868FFF7D2FE336A220063613369E3
:10B800002900A360B369164823613388238309ABF9
:10B81000FFF7ECFC002800D071E70222390001207C
:10B82000FFF7D6FE002800D069E7099B012B00D066
:10B830007AE70B48FFF762FD71E70323C41C9C43C2
:10B84000039B0894E618049B1C1BA2E7012AB6D0B0
:10B85000022A00D068E7E0E7340401203804012020
:10B86000BC160120F0B5594B87B01B68584E0293A7
:10B87000584B07001B68306801935B790D000393F8
:10B8800001F0AEFD041E48D001003268029800F0BD
:10B89000D8FA0422029905A803F0CAFC00230193F8
:10B8A00023681A004C4B9A420AD1029B3068181840
:10B8B000043800F0CEFA494BC0184342434101938B
:10B8C000059B1A00444B9A421AD1414E33685800E6
:10B8D000029B043BC01800F0BCFA414B98420FD1C8
:10B8E000019B002B2DD1326805A9029801F0EAFCDA
:10B8F000002826D0200001F077FD022040421EE003
:10B90000019B002B1DD11A0019000320FFF760FED8
:10B91000002804D0200001F067FD0120EEE72D4B48
:10B920001A681300117B5279103B5B1812019B18A7
:10B930003B60019B2B60200001F056FD002007B00A
:10B94000F0BD039B039A591E0B0012010C3A2548C7
:10B95000A2185E1C01D123690FE01668864219D136
:10B96000566886420CD1103A9669864210D1013B46
:10B97000EFE701331B01E3181B693B60022316E06C
:10B980000122013A1B012A60E3181B693B600FE0AA
:10B990000222F6E79942ECD10E4B1A681300117B94
:10B9A0005279103B5B1812019B183B6000232B60FF
:10B9B000084B1A683B68107B51791B1A9B1A1B09AC
:10B9C000994297D92B68022BB5D993E7300401200F
:10B9D0003804012034040120BAAB4774ADCA722781
:10B9E00053358DD8ACCA7447F7B50D4D01902C680E
:10B9F0000E00A07900F012FA0090012000F018FA71
:10BA0000071D2868A3680130FF30C018009B3A006A
:10BA1000C018019900F015FA37600020FEBDC0463D
:10BA2000340401200A4B70B51B680E0019001B7905
:10BA3000040010312025012B00D16D192A002000AF
:10BA400003F0F6FB00206419013C2070356070BDE6
:10BA500034040120002310B58AB002A901A8029382
:10BA6000FFF700FF002821DB0124644203A90198AD
:10BA7000FFF774FD00281BDB019B029A03A920003D
:10BA8000FFF728FE00280DDB0198FFF759FD002382
:10BA9000019002939842E9D101204042FFF784FDD2
:10BAA000002805D0022040420AB010BD831CFBD004
:10BAB000FFF7B6FCF8E70000002110B5080002F01F
:10BAC00067FF0A4C2060002803D1094801F098FB69
:10BAD00010BDFA21C90002F09FFF002801DA0548D5
:10BAE000F4E7206802F0C8FFF2E7C04640040120F6
:10BAF00060DC00206EDC002010B5024B186802F0FC
:10BB00007FFF10BD4004012070B50D000400FFF759
:10BB1000D3FFFFF7F1FF2900200000F003F8002019
:10BB200070BD000013B501F08FFB00282BD1174C1E
:10BB3000200000F0ADF8002825D101AA694601389F
:10BB400000F090F8002817D1019A009BC8209B189C
:10BB5000802252011100000201F05CFC8022019958
:10BB600052010098FFF768FCFFF77AFC431C03D0F2
:10BB7000FFF770FF01F04AFC00F022F90022616833
:10BB8000034800F004F901F041FC13BDBC1601208C
:10BB900083DC0020F0B5164E0C003500002733681A
:10BBA00085B003900293029B9F4202DB012040423A
:10BBB0001AE06B68082203991800019303F08AFBCE
:10BBC0001C35002812D1019B23601C237B43F618EF
:10BBD000B3686360F368A3603369E36073692361EA
:10BBE000B38B2383B369636105B0F0BD0137DAE736
:10BBF00044040120034A01680023914200D1C38913
:10BC00001800704754724274F7B507000120019183
:10BC100015001E0001F0E4FB041E18D008220100EC
:10BC2000380000F00EF923782B7063786B7063791D
:10BC3000A2791B0212049B1822799B18E279120642
:10BC40009B18019A934205D9200001F0CDFB0120F9
:10BC5000404204E02000336001F0C6FB0020FEBD3E
:10BC60000020704730B589B00D00084801A91400C4
:10BC7000FFF790FF002806D1039A049B2A609B1AC5
:10BC8000236009B030BD01204042FAE788DC002083
:10BC90008821F0B50400324A324B8BB04905086860
:10BCA000904225D100230A00009303AB616021601C
:10BCB000583201938B8A0098984223DB03A92A48C3
:10BCC000FFF768FF051E18D1069B059A009361686F
:10BCD0009B1A5B08E3608A4200D1D21803A9A260D4
:10BCE0002248FFF757FF03A92148FFF753FF06E05B
:10BCF0008020400109189942D1D101256D422800C8
:10BD00000BB0F0BD8820536900031818538A400215
:10BD10005B021B1806939369019D0793138A154EC6
:10BD20002B83D36905900893124B1C201B68039248
:10BD30005D1C35600825AC4643439444F3186546C2
:10BD400004331800019B0495E0CBE0C0E0CBE0C0D9
:10BD50001B6820320360009B01330093AAE7C046B2
:10BD600051724274000008118DDC002092DC00202A
:10BD700096DC00204404012010B5002804D00029DE
:10BD800002D0FFF707FF10BD01204042FBE730B5AE
:10BD900089B00D0001A9FFF7EFFF00280DD103982E
:10BDA000059CA04203D0069A210000F04AF801F059
:10BDB0003FFB636828009847FEE709B030BD0000EC
:10BDC000F8B5144C002526001C273368AB420BDC69
:10BDD000114CE168606801F00BFB002816D1E168A6
:10BDE000A06801F005FB11E03B006B43F3181B7FDB
:10BDF0001B0902D001351C34E7E7637F002BF9D023
:10BE0000A169E06801F0F4FA0028F3D00120404273
:10BE1000F8BDC04644040120BC1601200138C3B25D
:10BE20000020052B01D8014AD05670479BDC00202A
:10BE30008023012803D002384342584103021800EE
:10BE400070470B0010B50100180003F0F1F9002055
:10BE500010BD0068704710B55C22002103F0D4FAD1
:10BE600010BD002804D0030000225C33984200D1AA
:10BE7000704702700130F9E7002303604360054B0F
:10BE80008360054BC360054B0361054B4361054B64
:10BE9000836170470123456789ABCDEFFEDCBA981B
:10BEA00076543210F0E1D2C3F0B54A780B78120222
:10BEB0001A438B7895B01B041A43CB7806001B06F7
:10BEC00013431BBA4A7912930B7912021A438B79E6
:10BED00008001B041A43CB791B251B0613431BBA0E
:10BEE0004A7A13930B7A12021A438B7A1B041A4371
:10BEF000CB7A1B0613431BBA05934B7B0A7B1B02B1
:10BF000013438A7B12041343CA7B12061A4313BAE3
:10BF100006934B7C0A7C1B0213438A7C1204134356
:10BF2000CA7C097D12061A4313BA427D0993837DA8
:10BF3000120211431B041943C37D1B060B431BBA9A
:10BF40000A93037E427E12021343827E12041A4336
:10BF5000C37E1B0613431BBA427F1093037F12025A
:10BF60001343827F12041A43C37F1B0613431BBA79
:10BF70001193431CDA7F831CDB7F1B021A43C31C13
:10BF8000DB7F1B041343021DD27F12061A4313BA30
:10BF900002000B93431DD97F831DDB7F08321B02F8
:10BFA0001943C31DDB7F1B040B43D17F21320906DC
:10BFB00019430BBA0C930300127828331978120234
:10BFC00011439A7803331B7812040A431B06134368
:10BFD0001BBA0D9303002C331A7801331B781B0214
:10BFE0001A4303002E331B781B04134302002F3225
:10BFF000127812061A4313BA0E93030030331A78DC
:10C0000001331B781B021A43030032331B781B04D5
:10C010001343020033321278376912061A4313BAF7
:10C0200002000F930300353234331278197812026C
:10C0300011439A7803331B7812040A431B061343F7
:10C040001BBA009303003833197801331B780200C0
:10C050001B02194303003A331B783B321B040B438A
:10C060001178B468090619430BBA019303003C33F5
:10C070001A7801331B78B1691B02134302003E3268
:10C0800012783F3012041A43037802201B061A4329
:10C0900013BA02937369FE4A5F40F3688A181F401F
:10C0A0007369F1685F40B368C141EB419B18FF18A9
:10C0B000129BF74ADB19039333690F004B4023406F
:10C0C000346963407469A2189B18039A139CEA416F
:10C0D0001B19D318B268039CC241574027404F40F8
:10C0E0003469BC46EA4FE719059C3F191C00EC4136
:10C0F0006744A4463C006444A446039CC4410394A2
:10C100001400039F7C40E24F1C40C919069F544015
:10C11000C91961186446EC41C34167466418039924
:10C1200059403940039F7940D94FD219099FD219FC
:10C130008A182100E9418A18049262461900C24116
:10C140005140214059408C46D14F0A99C919039F4B
:10C15000C919049F6144EF41791807912100140027
:10C16000C1414C402700049C039127403C0010999A
:10C17000C74F5440CF19FB18E318079C039FEC41AD
:10C18000E418049B0799C3415F400F4003994F4057
:10C19000BC461199BE4FCF19BF182200EA4167442F
:10C1A000D119079F1A00C7417A4022405A40049192
:10C1B00094460B99B64AC4418A1803995118049AB7
:10C1C0006144EA4152183900079261402200049C00
:10C1D00021400C007C40A446AD490C9C6118079C92
:10C1E000C918EC41049B61446418C34111000393D6
:10C1F0005940079B194051400D9B8C46A449591842
:10C20000CF192100E9416744CB190799039FC14128
:10C2100004934F40039B27405F40BC460E9B9C4FBE
:10C22000C441DF19BF18049A6744EA41D3190A00D0
:10C230000793049B62401A40270014000F9B944A06
:10C240004C409A18039BD218A218079C049BEC41FF
:10C25000C341A4183A0003935A40079B1A407A40FE
:10C26000009B94468A4A9A1852182100E941624478
:10C270008B1807999C46C1410A00039B04915A40C0
:10C2800022405A408249019BC4415918C919674646
:10C29000EF415218BB1807936346049A7C496240E9
:10C2A0001A40049B27005A40029B5918039BC91847
:10C2B000079B5218EB419B1808936346C3419C4669
:10C2C000129B059C724963400B9C6340009C634039
:10C2D0001F24E34103936346079C7B402340039C58
:10C2E0007B406218049C614612199B18089A069CB0
:10C2F000EA41D218079BC3410793139B63400C9CF0
:10C300006340019C63401F24E341079C0493614008
:10C31000089C2140644661401C005D4BE318DB191A
:10C32000C918089B099CC3410893059B17006340EB
:10C330000D9CEF416340029C7F1863401F24E34142
:10C34000089C0593079B524963401340C241079CD8
:10C3500012926340059C069A61180A9C61446240EF
:10C360000E9C59186240039C3B0062401F24E2412E
:10C37000EB410692129C089A5B186240089C3A4076
:10C3800062404349069CC7416118079C13970919ED
:10C3900052181900E941109C8918099A129F6240AD
:10C3A0000F9C6240049C62401F24E2410792139A52
:10C3B000079C57405F40C341364A9C46A218089CE0
:10C3C0000A9B1219119CBF186340009C0A0063402D
:10C3D000059CEA4163401F24E34164460893139B94
:10C3E000D71963402B4A089C4B40A218129CC141AC
:10C3F00012199A183B00EB411F249A181291109BB6
:10C400000B994B4001994B4006994B40E3416146E3
:10C410000993129C61401C001E4B7940E318139C49
:10C42000C7411B19C9181300EB4110970C9C119FB1
:10C43000591867403B00029C6340079C63401F0003
:10C440001F24E741109C0A97129F124B67400A9CD9
:10C450005740E3186344FF180B00EB41DB1917004A
:10C46000C7410D9CBC460B9F67403A00039C62404D
:10C47000089C624017001F24E74164460B97109FF9
:10C48000044A67404F40C1410B9C1191A21803E040
:10C490009979825AA1EBD96E129C0C9912190E9CB3
:10C4A000BF186140049C1A006140099CEA41614048
:10C4B0001F24E1410C916146119CD2196140FE4F4D
:10C4C0000C9C5940E719109CC3413F19C91917002A
:10C4D000EF411F247F1810930F990D9B4B40059936
:10C4E0004B400A994B40E3411199109C0D936140D8
:10C4F0001C005140C241F04BE3186344009C944639
:10C500000E9AC9186240069C3B0062400B9CEB41AE
:10C5100062401F24E24164460E92109A5B1862400A
:10C52000E5490E9C7A406118119C091952181900AE
:10C53000E94189183A00C241019C11920F9ADE4FDD
:10C540006240079C62400C9C62401F24E2410F92B3
:10C550006246119C62405A40C3410F9CE719109CEF
:10C5600010933F19009B029CD2196340089C0F0056
:10C5700063400D9CEF4163401F24E341109C0093F6
:10C58000119BBF1863404B40C141009CCA4AA2188E
:10C590006244039C8C4601999B186140099C3A00B7
:10C5A00061400E9CEA4161401F24E1416446D3187A
:10C5B000109A019162400C00BF497A406118119CA9
:10C5C000C741091952181900E9411197049C029FAB
:10C5D000891867403A000A9C62400F9C624017002D
:10C5E0001F24E74102976746119CB34A67405F40AA
:10C5F000C341029CA218109C10931219039B059C26
:10C60000BF1863400B9C0A006340009CEA416340F2
:10C610001F24E341109C0393119BD7196340A64A42
:10C62000039C4B40A21862449B183A00C141EA4166
:10C630008C461F24D2180699049B4B400C994B4002
:10C6400001994B40E34164461099049361401C00FA
:10C65000994B7940E318119CC7411B19C918130065
:10C66000EB411197059F079C591867403B000D9CB3
:10C670006340029C63401F001F24E7410597674603
:10C68000119C8D4B6740059C5740E318109C1B196B
:10C69000FF180B00EB41DB191700C741089C1097EE
:10C6A000069F67403A000E9C6240039C6240170060
:10C6B0001F24E741109C0697119F7F4A6740069C04
:10C6C0004F40A2186244BF181A00C141EA418C468B
:10C6D000099C0799D71961400A000F991F244A4005
:10C6E00004994A401100E141644607911099724A49
:10C6F0006140079C5940A218119C121989183A00F0
:10C70000EA4152181900C1410A9C119108996140EF
:10C710000B0000991F244B4005994B401900E14143
:10C7200008916146119C644B6140089C7940E31874
:10C73000109CC7411B19C9181300EB410B9C5B18D7
:10C7400009996140019C6140069C61401F24E141C0
:10C7500009911199099C7940514010915649C24163
:10C760006118109C614461181C00EC411292A446AF
:10C770000A9A0C9C61446240029C6240079C6240A1
:10C780001F24E2410A92129A0A9C7A405A40944627
:10C79000494AC341A218119C109312190C00EC4194
:10C7A0000B9B6244A4460D9C62446340039C63401F
:10C7B000089C63401F24E3411C000B933F4BE3188C
:10C7C0001400EC41DF193F19109C0C432300129C0C
:10C7D0002340109C0C40C14123438C460E9C0C9975
:10C7E000DF1961400B0004994B4009994B40190037
:10C7F0001F23D9410C91614611430B0010990C9CE9
:10C800000B406146114019432C4BC241E318129C66
:10C8100011921B19CB183900E9410D9ACB180F99C9
:10C82000109C4A4005994A400A994A401F21CA4132
:10C8300011000D92214A891809191C00EC410919AF
:10C84000119C3C43220064462240119C3C40C7415D
:10C85000224312970E9C009F51187C402200069C98
:10C86000129F62400B9C1F40624014001F22D44163
:10C870000E94129C1C432200119CC341224017437A
:10C880000E9C0E4AA2180C00EC416244BF181F22F5
:10C890009C46E7190F9B019C6340079C63400C9CDE
:10C8A0006340D341054A0F939A18119B129CD218EA
:10C8B0003B00EB41D21803E0A1EBD96EDCBC1B8F2F
:10C8C00063460B43234064460C4023439A180B00F5
:10C8D000C3411F211193029C009B6340089C63404D
:10C8E0000D9C6340CB411093119B109C3B4319005E
:10C8F00063461940119B3B400B43FE49C7416118F9
:10C90000129C009709191400EC415B18E318039F6F
:10C91000019C7C402100099C61400E9C61400C0000
:10C920001F21CC41F349019467181C00EC41674476
:10C930003F19009C14432100119C2140009C14408D
:10C9400021431400C441C919A446049F029C7C40A1
:10C9500022000A9C674662400F9C1F406240140000
:10C960001F22D441029464461C432200009CC34110
:10C9700022401743029CDF4AA218119C11931219FE
:10C980000C00EC41BF18E719039B059CD94A634092
:10C990000B9C6340109C63401F24E341009C039365
:10C9A0009B181B193C00EC411B19119C0C432200E5
:10C9B00064462240119C0C402243D2180B00C34114
:10C9C0001F210093069C049B63400C9C6340019CC8
:10C9D0006340CB410493009B049C3B431900119B93
:10C9E0001940009B3B400B43C249C74161181400EA
:10C9F000EC4161445B18BC46E318079F059C7C40F2
:10CA000021000D9C6140029C61400C001F21CC4123
:10CA1000B84905946718119C3F191C00EC413F1957
:10CA2000644614432100009C214064461440C241E6
:10CA300021431192089C069AC91962400E9C6240DB
:10CA4000039C62401F24E2410692119A069C1A43FD
:10CA5000170062461740119A1A403A43A54FC34146
:10CA6000E719009C12933F190C00EC41D219A2184F
:10CA7000079B099C9F4F63400F9C6340049C009060
:10CA800063401F24E3410793DF191300EB41129C1D
:10CA900067440C43FB182700119C2740129C0C4054
:10CAA000C14127438C46FF180A99089B4B401099B7
:10CAB0004B4005994B401F21CB4108936346129987
:10CAC00013430B4061461140089C1943894BC241F6
:10CAD000E318119C11921B19C9183B00EB411F224E
:10CAE0005B180B9C09996140019C6140069C614068
:10CAF000D141804A08008A181299644652181900D8
:10CB0000E9415218119939432140119C3C4021437D
:10CB100089180222D7410C9C12970A9F1D32674048
:10CB2000029C6740079C6740129CD7411C4322002F
:10CB30000997119C129F22401F40099C17436D4A80
:10CB4000A2186244BA181C000F000223EF41DC4116
:10CB5000BA18A4460B9C0D9F7C402300039C170031
:10CB60006340089CEF4163401C001F23DC41614B84
:10CB70000A94E318119C1B19DB196746129C0F439A
:10CB8000274064460C402743FF180223D9411191E6
:10CB90001F210C9B0E9C6340049C63404340CB418F
:10CBA000644611990B93119B1143214013400B9C38
:10CBB0000B4350496118129C09195B183C00022173
:10CBC000EC41CA41E31812920F9C0D9A1D3162404C
:10CBD000059C6240099C6240CA4146490C9251182A
:10CBE0001A00EA41129C61443C438A182100119CBE
:10CBF0002140129C3C40214389180222109CD741BD
:10CC00000E9A6240069C62400A9C62401F24E241E8
:10CC10000D921A00129C3A4322403C001C401443DF
:10CC2000A446344A0D9CA218119C12190C00EC4128
:10CC30006244A4460224E341019C11930F9B624489
:10CC40006340079C63400B9C63401F24E3410E93A9
:10CC5000119B0E9C7B404B409C46274BE318129C3B
:10CC60001B191400EC416344A4460224E141029CD8
:10CC70001291109963446140089C61400C9C614092
:10CC80001F24E141129C0F911199614051400F9C6A
:10CC90008C46194961180224CF191900E241E94173
:10CCA000039C67449446019AC919624017000D9A83
:10CCB000474057403A001F24E24164460192129ACD
:10CCC0000D4F6240019C5A40E719119C3F190C001E
:10CCD000EC41D219A2180224E341029C1093049B58
:10CCE0005C402700099C1F2367400E9C67403C0066
:10CCF000DC4103E0DCBC1B8FD6C162CA02946446EF
:10CD0000109B5C402700DC4B029C4F40E318129CB8
:10CD10001B19FF181300EB41DF190223D9411191B0
:10CD20001F21059C039B63400A9C63400F9C63404A
:10CD3000CB41119C0393109BCF496340039C53400C
:10CD4000611861445B183900E941C9180223DA41CE
:10CD5000069C9446049A624013000B9A6446534022
:10CD6000019A53401A001F23DA410492119AC24BD0
:10CD70006240049C7A40E318109C1B190C00EC41A3
:10CD8000D218A3183A000224E241079C1092059A97
:10CD9000624017000C9A1F245740029A57403A00ED
:10CDA000E24105926246109CB34F6240059C4A40A6
:10CDB000E719119C3F191C00EC41D219A718022257
:10CDC000D141069A119108994A400D99119C4A4007
:10CDD00003994A401F21CA411099069261401400EC
:10CDE000A54A5940A218624489183A00EA415218EB
:10CDF0000221CB419C46079B0E9943404B4004992E
:10CE000064464B401F21CB411199079361401C00A0
:10CE1000994B7940E318109C1B19C9181300EB417A
:10CE20005B180221CF41099C1097089F1D31674074
:10CE30000F9C6740059C6740CF4108976746109C50
:10CE40008D496740089C57406118119C09197F184B
:10CE500019000224E941E241C919070011921F2279
:10CE60000A9C6740019C6740069C6740D741380098
:10CE7000119C109F804A67400224821862445F40E0
:10CE8000BF180A00E341EA419C460B9C099BD2195A
:10CE900063401F00029B1F245F40079B5F403B00D5
:10CEA000E34164460993119B734F6340099C4B40D7
:10CEB000E719109C3F191400EC41DB19E718022315
:10CEC000D9410A9B10910C99109C4B4003994B40FF
:10CED00008994B401F21CB41614661401C001293D1
:10CEE000654B5140E318119C1B19C9183C000223E3
:10CEF000EC41DA4161180A920D9C0B9A62401300D2
:10CF0000049A0A9C534043401A001F23DA411192AD
:10CF1000109A594B6240119C7A40E3180C00EC4186
:10CF20006344D218A3183A000224E2410E9C0B92EB
:10CF30000C9A62401700059A1F245740099A5740DF
:10CF40003A00E2410B9C0C920A9A4B4F62400C9CB7
:10CF50004A40E719109C3F191C00EC41D219A71850
:10CF600002220F9CD1410D9A6240069C6240129CA5
:10CF700062401F24E2410D920B9A0D9C4A405A4098
:10CF800094463D4AA2180A9C12193C00EC416244A6
:10CF9000A4460224E341019C05930E9B6244634036
:10CFA000079C6340119C63401F24E3410793059B4A
:10CFB000079C4B407B409C462F4BE3180B9C1B1956
:10CFC0001400EC416344A4460224E741029C069706
:10CFD0000F9F63446740089C67400C9C67401F2478
:10CFE000E741254C3F197918069C059F674057403B
:10CFF000C9191F000224EF41E2417918019C039FE7
:10D00000674047401F200D9C6740C7411A4C1D38A0
:10D010003F19059C3F19069C54405C40A4460C00F7
:10D02000EC416744A446029CBC44049FC341674052
:10D03000099C1D306740079C6740C7410E4CB06893
:10D0400004193F19140006985C404C403F183F19E2
:10D050006446EC41F0683F196044B760F06002201C
:10D06000C1413069091831617169CB187361B369C5
:10D070009A18B26115B0F0BDD6C162CAF7B53F27A4
:10D08000036805001F409B180091140003609A423A
:10D0900002D9436801334360002F15D04026F61BA8
:10D0A000A64211D82B00403C1C33D8193C1900274C
:10D0B00032000099019302F0BBF801992800FEF7B5
:10D0C000F3FE009B9B190093260003E02800FEF767
:10D0D000EBFE403E009B1919891B3F2EF6D8A20992
:10D0E00092019918A21A04D028001C30C01902F02D
:10D0F0009FF8F7BD10B5002A01D0FFF7BFFF10BDA4
:10D1000037B5436802680D00DB00510F0B431BBAB3
:10D110000093D3001BBA01933F2304001A40073B3E
:10D12000372A00D978239A1A20002049FFF7E2FF16
:10D13000082269462000FFF7A1FFA3681B0E2B7091
:10D14000A3681B0C6B70A3681B0AAB70A368EB7021
:10D15000E3681B0E2B71E3681B0C6B71E3681B0A01
:10D16000AB71E368EB7123691B0E2B7223691B0CF7
:10D170006B7223691B0AAB722369EB7263691B0E26
:10D180002B7363691B0C6B7363691B0AAB73636955
:10D19000EB73A3691B0E2B74A3691B0C6B74A3693F
:10D1A0001B0AAB74A369EB7437BDC046A1DC002039
:10D1B00070B50E000500140098B001A8FEF74BFEF4
:10D1C00001A8FEF759FE3200290001A8FFF792FFDF
:10D1D000210001A8FFF794FF01A8FEF742FE18B056
:10D1E00070BD10B500F021F910BD000010B5034B63
:10D1F0001B689968FFF7F5FF002010BD04E00020D0
:10D2000070B50126050076422C78002C06D101214C
:10D210000A20494200F009F9200070BD31002000C9
:10D2200000F003F90135EFE710B500F04BF810BD41
:10D2300010B500F015F810BD10B500F0D1F810BD14
:10D2400010B500F0D1F810BD002110B5080001F0B4
:10D2500055FD024B1860002010BDC0467806012025
:10D2600070B50C000500FEF747FC0B4BE418240BCF
:10D2700024036419A54201D1002070BD074B290089
:10D28000186801F027FE002803D180235B01ED1808
:10D29000F0E701204042F0E7FF0F00007806012090
:10D2A00070B50D0016000400FEF726FC044833009C
:10D2B0002A002100006801F049FDC01770BDC0467A
:10D2C00078060120F0B5040085B026050291019290
:10D2D000360DFEF711FC002E2FD08025240B2703DE
:10D2E0003B4C6D012A000021200002F08DF83948E6
:10D2F0002B0022003900006801F028FD019BAD1BC6
:10D300009D4200D91D00A0192A00029901F090FF4A
:10D31000304E3900306801F0DDFD802322005B01D2
:10D320003900306801F058FD029B5B19029380239D
:10D330005B01FC18019B5B1B0193019D019A029B01
:10D3400016199B185B1B0393234B761B9D422DD80C
:10D35000150B2D03531B0193029B2C195D19019B87
:10D36000002B20D0FEF7C8FB8022194E520100216D
:10D37000300002F049F88023164F5B013200210093
:10D38000386801F0E3FC019A2900300001F050FFF9
:10D390002100386801F09EFD802332005B012100EE
:10D3A000386801F019FD002005B0F0BDFEF7A4FBC0
:10D3B000084F3100386801F08DFD8023039A5B012E
:10D3C0003100386801F008FD044BED18B6E7C0469F
:10D3D0007C06012078060120FF0F000000F0FFFF0F
:10D3E00010B501F0ABFD10BD10B501F0B1FD10BDE1
:10D3F000002070470020704710B5080011001A0087
:10D40000FFF7D6FE1422029B1A6010BD10B501F082
:10D4100025F9FEE710B500F041FD10BD13B5049CE1
:10D42000009400F055FD16BD7047002070470000C5
:10D4300000B589B001A90648FEF79EFC002804D17A
:10D44000069A05990398FFF72BFF09B000BDC04667
:10D45000E1DC0020DC23044A04499B0010B5D150D4
:10D4600072B601F07BFE10BD0008FF1F01CD002049
:10D47000F0B51F68441885B0A446D419019400245F
:10D480001C60604500D14DE10678112E17D935009A
:10D49000113D0130032D00DC35E1AF4200D243E104
:10D4A00001390E3EB14200D23CE1015D115501341B
:10D4B000A542FAD1441900205119009030E0110022
:10D4C00000946446241A022C4CD90678441C0F2E72
:10D4D0002AD8002E06D1974D2078013400283CD060
:10D4E0000F3036180198F71C401AB84231D3604605
:10D4F000B51D001BA84235D32078087060784870AD
:10D50000E01C0290C81C0390A07888700320255C62
:10D510000D5401308742FAD102998C190399891967
:10D5200026780F2E23D901343F2E5FD91F25354091
:10D530001B2D51D90098081A7609751E824200D910
:10D54000F4E0814200D8F1E0019F01367F1AB74232
:10D5500070D2891A1960052007E0FF36AE4201D06B
:10D56000A445B9D10420891A19604042A5E0A01C45
:10D570006478B601A408A6196F4C341900946F4C56
:10D580008E1B3619B24200D9D0E0B14200D8CDE0AE
:10D59000019C641A022CDCD934780C7074784C70BD
:10D5A000B4788C700331441E25780324254088D03C
:10D5B000019C641AAC42CCD36446EE1C241AB442DB
:10D5C000D0D304780C70012D00D09FE0461C4D1C78
:10D5D000741C29003678A7E72078AD01800840192F
:10D5E000451CC043009508180134A5E71F2E3BD900
:10D5F0001F2535400AD14F4E2078013400282CD009
:10D600001F302D186046001B0128ABD920786678A2
:10D6100080010130B608801900900234081A824255
:10D6200000D983E0814200D880E0019EAF1C761AC9
:10D63000BE428ED306780E708E1C029646784E70CF
:10D64000AE1C03960226875D8F55039F0136B742B5
:10D65000F9D1029920004919A5E7FF35B54200D15B
:10D6600077E7A445C8D17DE70F2E34D9072535408B
:10D670000BD1304F20780134002820D007302D18EE
:10D680006046001B012800D86CE727786078BF014E
:10D69000800838188027F602FF013E408019081ADA
:10D6A0000234814212D1891A19600020A44504D0A5
:10D6B0006445804103239843043805B0F0BDFF352D
:10D6C000BD4200D145E7A445D4D14BE71C4E80199B
:10D6D0000E1A0096A3E7601C2478B601A408A619C8
:10D6E000741CF6438E190094B2421FD8B1421DD962
:10D6F000019C641A012C00D82BE734780C707478E4
:10D700004C7002314FE71100009451E744784C709F
:10D71000032D02D0861C8D1C5AE7C61C8078CD1CB8
:10D72000887055E711001DE7110012E7891A19608A
:10D7300006201AE700FFFFFF01070000FFF8FFFFC8
:10D7400000C0FFFF401870470021F0B589B004AC5D
:10D75000200005910491FFF7F5FF802502782570E0
:10D7600053425A410068D3B2803800934342584133
:10D77000C3B201933C4B012120000493FFF7E2FF69
:10D78000027803AB1A70427865705A7002781F886D
:10D790001A7042785A701A8894468122A2700278D0
:10D7A0001A7042785A700322049201326271027830
:10D7B0001E881A7042785A7082789A70C278DA702D
:10D7C000039A65700178294D197041786580832529
:10D7D00025710478597003991C70447880395C7005
:10D7E0008478C0789C70D8706346803B584243412F
:10D7F0001F481F243618704246411E404B42594173
:10D80000039B0E401B49823D5B18594259417B42A4
:10D810005F4153425A413140009B39400A401A400F
:10D82000019B1A40012A08D12800FCF7ABFC001B21
:10D83000424242416D00013CF4D201250024012AFC
:10D8400003D00120404209B0F0BD2800FCF7B8FC2D
:10D85000021B013453425A416D00202CEFD11F3876
:10D86000431E9841EEE7C046010000028182FFFF9F
:10D87000807EFFFF807E7D7CF8B5079F089E099D16
:10D880000A9C00282AD0481C01D0022926D1511C0C
:10D8900001D0042A22D15A1C01D0042B1ED1069B90
:10D8A000013302D0069B042B18D17B1C01D0042F1E
:10D8B00014D1731C01D0042E10D16B1C01D0042D87
:10D8C0000CD1631C01D0042C08D10B9B013302D076
:10D8D0000B9B182B02D1FFF737FFF8BD0120404208
:10D8E000FBE710B5FFF7A4FC10BD10B5FFF79CFCDB
:10D8F00010BD00007FB50422182304920593039203
:10D90000130002920192009202210448FFF7B4FF33
:10D91000431E9841404207B000BDC046A020000011
:10D9200003094330181870471FB50269C368040023
:10D930009A4203D20120404204B010BD190943337A
:10D94000CB189A42F6D30023009303924168826871
:10D9500003AB0068FFF78CFD0028EBD1039BE26866
:10D960009A42E7D82361E7E77F22C17983790A40A9
:10D9700012029A18437912029B1802791B02D318DB
:10D98000C2781B02D218837812029A1843781202C6
:10D990009B1800781B0249B2C018002900DA4042E7
:10D9A000704770B515005C1A944204D2220001F051
:10D9B0003FFC200070BD01F03BFC2C00F9E7F0B506
:10D9C0008FB006901000079114000193FFF7CCFF71
:10D9D000061E03DA002738000FB0F0BD2000083023
:10D9E000FFF7C2FF051EF5DB20001030FFF7BCFF7C
:10D9F000159B07009842EDD8230018330093019B34
:10DA0000AD19E31800240393009B05949B1901931F
:10DA1000009B5B190293BC42DDD200250822039BC8
:10DA2000009909A8FFF7BDFF009B1B1809A80093E8
:10DA3000FFF79AFFAA000BAB0135D050032DEDD1B3
:10DA40000B9E33190493BB42C4D8149B32001C199B
:10DA50000199039B2000FFF7A4FF019B059D1B1864
:10DA600001937619B54213D10C9A049B9C18BC42C1
:10DA7000B0D814998C46634418000299039BFFF7B1
:10DA800090FF029B1B1802930D9BEB180593C2E7B6
:10DA9000079BAB4204D9069A2378525D9B182370EA
:10DAA00001340135DEE70000772337B50C4D0193D3
:10DAB0006C682B6820005900FFF713FF00280CD179
:10DAC00029682000FFF70DFF042201A92000FFF7BD
:10DAD0000CFF431E984140423EBD0120FBE7C0467B
:10DAE000CC160120084B0A181960084B58609A6040
:10DAF000196003780020772B04D010787738431E04
:10DB0000984140427047C0467C160120CC16012047
:10DB100013B5012918D1104B5C6801AB597098708E
:10DB200041405B207722404201431A70D970019B2B
:10DB300020000093084B1968FFF7D3FE04226946C2
:10DB40002000FFF7D2FE16BD022902D1024B9C68CD
:10DB5000E3E701204042F6E7CC160120F0B52A4B5E
:10DB600085B0019058680478772C03D09B681B78A7
:10DB7000772B46D1019B7F2B43D801260023764289
:10DB800037000B6003AD0198984211D1B74231DDE7
:10DB900001230F601360096801980023814204D1BA
:10DBA0001168994201D102211160180005B0F0BD41
:10DBB0007820FF302880D338DCB2FF382043E8706B
:10DBC0001148AC704068006884460398844500D1D1
:10DBD0001F000E48AC702880022044405D3804438A
:10DBE000EC70094C0398A4682468844200D11E009C
:10DBF0000133C8E700230E6013600B6801330B602C
:10DC0000C9E701235B42D0E7CC1601207702000070
:10DC1000F8B5060022300D00140000F04BFC002285
:10DC2000301811000A26A94202D100202260F8BD56
:10DC300083181F78002F07D05B7B002B04D0734321
:10DC40000E33D2180131EEE701204042EFE713B561
:10DC5000040001AAFFF7DCFF2000223000F02AFCBC
:10DC6000019BE418201816BDF0B585B00290100095
:10DC70001A3015001E00039100F01CFC31000190C9
:10DC80002800FFF7E4FF114B07789C68039B601E98
:10DC9000C018210001F0A8FB4443029BE4180C4B80
:10DCA0001B78BB420CD00B4B1B78BB420BD1310015
:10DCB0002800FFF7CCFF437B019A013B5A43A41A8B
:10DCC000200005B0F0BD0024FAE7C046D8160120B8
:10DCD000F1DC0020F2DC002010B504000068002810
:10DCE00001D0FFF7ADFAA068002801D0FFF7A8FA2D
:10DCF0002000FFF7A5FA10BDF0B587B0019008002D
:10DD000012300D00049200F0D5FB040028001630FC
:10DD100000F0DBFB220006000199002000F0DEFB92
:10DD2000002486420ED00120404207B0F0BD210001
:10DD30002800FFF78CFF0027437B0293029BBB4226
:10DD400005D80134049BA342F1D10020EDE70A2657
:10DD50007E4321002800FFF77AFF33000E33C018FE
:10DD600000F0B3FB210005902800FFF770FF33009F
:10DD70001433C01800F09EFB019B21001B182800E3
:10DD80000393FFF764FF1036801900F093FB0399AB
:10DD90000200002000F0A2FB059B8342C3D10137A3
:10DDA000CCE70000F0B587B0049018000C300F00ED
:10DDB0001C00059200F07EFB01902000123000F064
:10DDC00079FB334D3B68AE680290701EC0187B68CB
:10DDD0003100C01801F008FB4643EB6808229B1B8A
:10DDE0002C4920000096039301F0FAF9002803D093
:10DDF0000120404207B0F0BD237A022BF8D1049BEA
:10DE0000019A5B689342F3D1029B059A9342EFD843
:10DE10002000093000F059FB1F4B9842E8D8E37A04
:10DE20007F2BE5D826001836300000F04EFBAB689B
:10DE3000984225D120001E3000F03CFB2B68984210
:10DE4000D6D800212000FFF702FF093000F032FB96
:10DE5000002106002000FFF7FAFE013000F02AFB47
:10DE60007B683618B342C3D3EB68009A9342BFD3A2
:10DE700020001A3000F01EFB039B83428041B9E76B
:10DE8000300000F022FB6B689842D3D0B0E7C04668
:10DE9000D8160120E8DC00200E0C000010B50B4C59
:10DEA00020605000181A61601100A2602061E060DB
:10DEB000FFF718FE002802D1FFF71CFD10BDFFF789
:10DEC000F3FD0028F8D001204042F7E7D8160120E2
:10DED000F0B51F009FB01793249B1590380018933E
:10DEE00000231030150016911393149300F0EDFAEF
:10DEF0003B0004002A0017A915A8FFF753FF0028CC
:10DF000000D047E1FB7A14AA13A918000793FFF782
:10DF100025FE0890002800D03CE1139B149A13437F
:10DF20007DD03B0012331800099300F0C3FAC64CB1
:10DF3000636804933B001A3318000A9300F0BAFA9E
:10DF4000179B189AA46806909818013821000019A8
:10DF500001F04AFA44430C943C002234200000F0C3
:10DF6000A9FA3B1820000D9300F0A4FA00230499AD
:10DF70001598199301F040FA002900D00AE1069B98
:10DF800003910B93FB7A039A9A425DD3149B012B66
:10DF900036D1139E38003100FFF759FE03780A98F6
:10DFA0000C9300F087FA31000D903800FFF74FFE18
:10DFB000437B18010C300693FFF73EF903900028CD
:10DFC00000D1E7E033003A0018991798FFF74CFEAC
:10DFD0000490002800D1DDE0039C00230C342500D0
:10DFE0000593069B059A934200D995E00F230C9A5E
:10DFF00000259A43102A00D1B7E00398FFF720F9D3
:10E00000139B0493049A079B934200D9C8E01A001B
:10E0100039001598FFF770FE002810D0BAE0169A64
:10E020001599089800F05AFA844200D179E7079AC6
:10E0300039001598FFF760FE002800D071E7FFF760
:10E0400033FD08981FB0F0BD19AA03993800FFF7F7
:10E05000DFFD061E00D09DE03800093000F035FAE3
:10E06000199CA04200D295E00D9B1C19230014338B
:10E070000593657BAE4235D3039B002B14D0591E0C
:10E080003800FFF7E4FD0A235D431435401900F022
:10E0900011FA049B0499013B181801F0A5F9049B9F
:10E0A00058430C9B1B1A0B93069A637B53430B9AA2
:10E0B00093426FD8601D00F0FDF9050038001E3056
:10E0C00000F0F8F904002800FDF716F85F4A604BED
:10E0D000FCF7BCF9FCF794F8A0425BD8039B013332
:10E0E00003934FE7059800F0E5F90499050001F066
:10E0F00083F900294ED1099800F0DCF9854249D80E
:10E100002000093000F0D6F9059B0A330593189BCF
:10E1100098423FD80136ACE7049B3100AB60380031
:10E12000FFF795FD0A23059A53430B931033C0184C
:10E1300000F0C0F96860159B310038000E93FFF7BE
:10E1400086FD0B9B1433C01800F0B4F90D9A0E9B9A
:10E1500094461B182B60059B103501330593049BD7
:10E16000634404933DE701351034069BAB4200D86D
:10E1700043E7A168159B994203D3169A9B189942CD
:10E18000F1D962682068FFF7B0FB0028EBD0039854
:10E19000FFF756F8FFF788FC01235B42089350E72E
:10E1A0000A9800F087F90B90099800F083F9049918
:10E1B0000E903800FFF74BFD0378049938000C935C
:10E1C000FFF745FD437B18010C300693FFF734F849
:10E1D00003900028DED03A00049B18991798FFF7A7
:10E1E00043FD04990D903800FFF731FD013000F038
:10E1F00061F9039B049958603800179CFFF727FDCD
:10E20000093000F057F9039B069A24181C609A60A5
:10E210000C331C0000260593069BB3421AD80F222C
:10E220000C9B93430B93102B44D06B461B7C01211A
:10E2300018001093FFF76CFC061E58D000230C93B7
:10E240000C98FFF749FDA2E7D81601209A999999F1
:10E25000999901400A25754304993800FFF7F7FCA6
:10E260002B001033C01800F025F96060159B04994D
:10E2700038000F93FFF7EBFC1435401900F01AF942
:10E280000F9B04991B1823603800FFF7E0FC40192E
:10E2900000F010F90E9B181A0B9B984200D9180039
:10E2A0000B9A0D9B9446A3606344E06001361034E2
:10E2B0000D93B1E7069B039A01331B01D3185A68EB
:10E2C000159B9A4203D316995B189A42ADD9059CC7
:10E2D000002508E062682168A068FFF706FB10349B
:10E2E0000028ABD10135069BAB42F3D89DE70499DA
:10E2F0003800FFF7ACFC0C9A19AB0D901A70142083
:10E3000013091193FEF798FF041E97D014223100D1
:10E310000C9001F079F80D9B581D00F0CBF805002A
:10E320000D9B0E9610330F930D9B0E9A5B7B9A42BA
:10E3300016D3002D00D181E7119B022B1BD12800A1
:10E34000FFF7EEFAE060FEF777FFA060002800D14B
:10E3500074E7039B039A9968002318321D0024E098
:10E360000F9800F0A7F80E9B361801330E930F9B01
:10E370000A330F93D8E7119B012BEAD12800FFF74E
:10E38000CFFAE060FEF758FFA060002800D155E703
:10E3900066603000FEF750FFA3682060002BD8D1E4
:10E3A0004CE71801105801332D188B42F9D1039B0B
:10E3B0001B681993039B5B681A930D93A3681C95C4
:10E3C0001B93E3681D930B9B102B32D119A8FFF709
:10E3D000ABFA002800D033E76368169901932368ED
:10E3E00015980093A2681D9BFFF7E9FA60608542CB
:10E3F00000D025E723680025039E236118360B957E
:10E40000069BAB4225D800252E00069BAB423ED88A
:10E4100002211098FFF77CFB002800D010E72000B5
:10E42000FFF75AFC0398FEF70BFF139B013313937E
:10E43000E6E50B9B202B00D002E719A8FFF774FA42
:10E44000002800D0FCE61D9B9D4200D0F8E6A368A2
:10E45000D1E704993800FFF7FAFB0A236B430E3328
:10E46000C01800F032F823690B9A0D90991800201B
:10E47000326800F033F80D9B834200D0E0E632684A
:10E480000B9B944663440B9301351036B8E7236920
:10E490009919059BDA681868FFF727FA002800D059
:10E4A000CEE6059B0135DB680493F618059B103317
:10E4B0000593AAE7437802781B021A438378C07851
:10E4C0001B04134300061843704713B501AC010049
:10E4D0000222200000F0ACFE208816BD30B5FF25DA
:10E4E000064C8A18914200D130BD0B78013143406F
:10E4F0002B405B001B5B000A5840F3E7F4DC002074
:10E5000010B50400284800F007FA616A274800F0B7
:10E5100003FAA16A264800F0FFF9E16A254800F0F5
:10E52000FBF9216B244800F0F7F96168234800F0FB
:10E53000F3F9A168224800F0EFF9E168214800F002
:10E54000EBF92169204800F0E7F961691F4800F004
:10E55000E3F9A1691E4800F0DFF9E1691D4800F008
:10E56000DBF9216A1C4800F0D7F9616B1B4800F009
:10E57000D3F921681A4800F0CFF9A16B194800F0CF
:10E58000CBF9E16B184800F0C7F9216C174800F08F
:10E59000C3F9174B1748196800F0BEF9164B1B68F2
:10E5A000002B00D09847FEE7F4DE00200ADF0020B1
:10E5B00016DF002022DF00202EDF00203ADF0020BF
:10E5C00046DF002052DF00205EDF00206ADF0020EF
:10E5D00076DF002082DF00208EDF00209ADF00201F
:10E5E000A6DF0020B2DF0020BEDF0020CADF00204F
:10E5F0002CED00E0D6DF0020EC16012010B5002045
:10E6000000F0B6F910BD30B50468039D8C4216DDEC
:10E61000002A04D00C244C43041964681460002BB5
:10E6200004D00C224A43821892681A60002D04D04C
:10E630000C234B43C018C3682B60080030BD012178
:10E640004942FAE707B5009313000A0001000248A7
:10E65000FFF7D9FF0EBDC046E4DF002072B60022EE
:10E66000014B1A60FEE7C0460400004010B50028C8
:10E6700004D00368197003685A1C02600800FEF792
:10E68000B5FD10BDF7B514000022009001912026C1
:10E6900094420ADD0199895C00290BD1A2420BDA70
:10E6A000A41A20269A0700D510360025DB0710D4BF
:10E6B000250008E00132EDE70C00F2E73100009898
:10E6C000FFF7D4FF013D002DF8DCE543ED172540B1
:10E6D000641B2F0003E00098FFF7C8FF0137019B80
:10E6E0005B1BD95D0029F6D12500002D04DCE04339
:10E6F000C0172040C019FEBD31000098FFF7B6FFDB
:10E70000013DF2E7F0B58BB00700119D1000129E9D
:10E710001A430AD1302302AA138002A9139B3200A4
:10E720003800FFF7AFFF0BB0F0BD002D05D0109AF9
:10E730000A2A20D1002B1EDA404200231F2402AAFD
:10E74000D377149BA4183A3B0193002815D1002DD0
:10E7500009D0002E1CD0139B9B0719D52D21380002
:10E76000FFF784FF013E139B320021003800FFF7C2
:10E7700089FF4019D7E70025DFE7109900F03CFE3C
:10E78000092901D9019BC918013C30312170DCE70E
:10E790002D23013C23700025E5E70000F0B50700BC
:10E7A0000E00140000258BB03378002B07D1002F0A
:10E7B00002D000223B681A7028000BB0F0BD252B58
:10E7C00000D0A1E07278002AF1D0731C252A00D174
:10E7D00099E0002106912D2A02D12C3AB31C069211
:10E7E0001E003378302B15D00023079333781A009E
:10E7F000303AD1B2092913D9732B18D1236845496E
:10E800000434002B00D01900069B079A3800FFF74C
:10E8100039FF1EE00222069B013613430693E0E710
:10E820000A21079B01364B43D3180793DEE7642B7D
:10E8300012D122680434D3176121049106990391FF
:10E840000799029101210191093100913800FFF7E8
:10E8500059FF2D180136A7E76C2B0BD173786C2B61
:10E86000F8D1B378642B1FD15D3B07349C4302364B
:10E870000CCCE1E7782B0CD122680434D31761214A
:10E880000491069903910799029100210191103199
:10E89000DBE7702B10D138003021FFF7E7FE78213D
:10E8A0003800FFF7E3FEE7E7782B1BD1713B073415
:10E8B0009C4302360CCCE2E7582B04D1226841215C
:10E8C0000434D317DCE7752B14D122680434D31732
:10E8D0006121049106990391079902910021019108
:10E8E0000A31B2E7752BB5D16E3B07349C43023633
:10E8F0000CCCEDE7632BADD1236809A90B70002385
:10E9000004344B7080E71E0031783800FFF7AEFE0C
:10E9100001359FE7F4DF00200FB407B504AA02CA4F
:10E9200000200192FFF73AFF002003B008BC04B0BA
:10E930001847022806D9012380228340D205916816
:10E940000B43936070470000030605D41F23184053
:10E950001E3B8340014A13607047C04600E100E05F
:10E96000024BE0301B688000C150704700E000207F
:10E970000C224243054B10B5D1589B189B68097D6A
:10E98000002B01D00021984710BDC0468016012001
:10E99000F0B5040085B00E00002802D0002005B0BC
:10E9A000F0BD019002900620FFF7C3FF03AB02AA5F
:10E9B00001A92000FFF746FE0028EFD105000E4C0C
:10E9C000019B029F23606760A66080200B4B400282
:10E9D000AE00A8401E21F61800F006FD013530609B
:10E9E000102DF2D103993800FFF7BAFF6068FFF7E6
:10E9F000ABFF2000D3E7C04680160120F0160120AF
:10EA0000002804D07622036800201A73704701485A
:10EA1000FCE7C04684000881F8B5002826D0002213
:10EA2000134C9300E3588B421CD31F2103688026AC
:10EA30001D781C78F6058C431C700424F7683C4351
:10EA4000F4601C788C431C701401A218D2B21A71A5
:10EA50000024EA0704D51A7811431970FFF7D0FF94
:10EA60002000F8BD0F2A01D00132DAE7014CF7E7A8
:10EA7000F01601208400088110B5002808D01F235B
:10EA8000026811780B431370FFF7BAFF002010BD26
:10EA90000048FCE7840008810421044B044A013B40
:10EAA000002B02D010680842F9D070478196980078
:10EAB0009000081100220321054B1A60054B1A60D3
:10EAC00032321A60044A116007221A607047C04649
:10EAD000880008118C0008119000081110B5FFF78C
:10EAE000DBFF0022034B1A60034B06321A70FFF75C
:10EAF000D3FF10BD880008110000081110B5FFF702
:10EB0000CBFF0022034B1A60034B04321A70FFF74D
:10EB1000C3FF10BD880008110000081170B5012462
:10EB2000FFF7BAFF044B054D1C6005232B70FFF760
:10EB3000B3FF2878204070BD88000811000008113C
:10EB400010B5044C013C002C03D0FFF7E7FF002870
:10EB5000F8D110BD81969800F0B5070093B014006D
:10EB6000402A00DD74E0002A48D0002318009A00F3
:10EB700002AD01335051102BF9D1002318259C42CE
:10EB800024DC032323405A1E9341A510ED18EFF314
:10EB9000108672B6FFF7D4FFFFF7A0FFFF233804FB
:10EBA0001B0418403B0CDBB21843FF231B021F4021
:10EBB000022300223843000218432649264B0A60EC
:10EBC0001860042C10DC029A1A6011E0CA5CDE00A6
:10EBD0002E40B2409810800002AE86590133324375
:10EBE000019602AE8251CAE7402C10D0954208DC53
:10EBF000FFF7A6FFFFF782FF86F31088200013B00F
:10EC0000F0BD910002A8095801321960EEE7029A9E
:10EC10001A60039A1A60049A1A60059A1A60069A92
:10EC20001A60079A1A60089A1A60099A1A600A9A72
:10EC30001A600B9A1A600C9A1A600D9A1A600E9A52
:10EC40001A600F9A1A60109A01921A60119ABBE723
:10EC50000024D3E7880008110000081170B50500F2
:10EC6000EFF3108472B6FFF717FF04220B4B280452
:10EC70001A60FF231B0418402B0CDBB21843FF2340
:10EC80001B021D40032328430002054D1843286042
:10EC9000FFF702FF286884F3108870BD8800081110
:10ECA0000000081170B50500EFF3108472B6104B28
:10ECB00018421CD0FFF744FFFFF710FF00220D4B56
:10ECC00028041A60FF231B0418402B0CDBB21843E6
:10ECD000FF231B021D402023284300021843064B3C
:10ECE0001860FFF72DFFFFF709FF84F3108870BD50
:10ECF00000E0FF00880008110000081110B5002492
:10ED0000A0421BD188230E4C5B0523600D4B0122D2
:10ED100063608023A36080235B01E3608023032082
:10ED20005B002361E161013BA1182376CB7F626127
:10ED30008343CB77044B1A70FFF7BCFE200010BD55
:10ED40008C16012000000811B0160120F7B517003D
:10ED5000002832D0002A30D0002B2ED005688D42FA
:10ED60002BD844688C4228D34A1ED218954224D806
:10ED7000944222D30130C27FD40720D4124C24788D
:10ED8000002C1ED009020D0A02218A43C2770322F9
:10ED90009C0813405A1E9341E4188C402E006319BE
:10EDA0000193019BB34201D12000FEBD3000FFF76B
:10EDB00055FF7B1B98510436F3E70448F5E70448F8
:10EDC000F3E70448F1E7C046B0160120840019813A
:10EDD0008100198180001981F0B585B01E00019075
:10EDE0001700031E67D0002A65D0002E63D000688C
:10EDF000884260D85A688A425DD34B1E9B1998425C
:10EE000059D89A4257D3019B5D1C0123EA7F1A42CD
:10EE100053D12C480078002851D00320824313435B
:10EE20003F220C02114003914021EB77039B240AFF
:10EE3000CB1A029335009E4205D8320039002000DB
:10EE4000FFF78AFE2EE039002000029AFFF784FEC9
:10EE5000029BE418FB180293039B27009B191E00DA
:10EE6000403E0393402E02D832000299E7E7029B0E
:10EE70003800191BC9194022403EFFF76DFE40378C
:10EE80003F2EF4D8039E2000803E3F233400B20979
:10EE90009C43511C029B4030890192012018591853
:10EEA000B21ACDD10121019B0133DA7F8A43DA778F
:10EEB000280005B0F0BD044DFAE7044DF8E7044D15
:10EEC000F6E7C046B016012084001981810019813F
:10EED00080001981F8B5036805008B421FD843688C
:10EEE0008B421CD3461CF37F01271C003C4018D1E9
:10EEF0000E4A1278002A16D0032293433B4309029C
:10EF0000F377080AFFF7CEFEF37FBB43F377EB6995
:10EF1000181E03D02000210098472000F8BD0448A7
:10EF2000FCE70448FAE70448F8E7C046B0160120B9
:10EF300084001981810019818000198110B50100B8
:10EF40007246024800F02AF810BDC0463017012072
:10EF500010B501007246024800F05EF810BDC046D0
:10EF60003017012010B5044C044B043C9C4200D2E5
:10EF700010BD23689847F7E7FCDF0020FCDF002086
:10EF800010B5044C044B9C4200D910BD08CC9847E6
:10EF9000F8E7C046FCDF0020F8DF002070B506006F
:10EFA0000C1E32D00F23173199431A4B0D0012203B
:10EFB000994202D8080000F069F802300001845933
:10EFC000002C1FD02268A368AA4220D3E1688B607E
:10EFD000A368002B00D0D960501B0F280CD96119F1
:10EFE0004D60A21853680860DB0FDB070343256000
:10EFF0003000536000F05AF8802362681B06134308
:10F0000063600834300000F0DBF8200070BD1C00A5
:10F01000D6E7C046FFFF3F00F7B50190002934D086
:10F0200008394B680C005E000B687608CA184E6001
:10F03000576800931500002F10DBD068936817689D
:10F040008360D5199268002A00D0D060009BDF1938
:10F050006B682760DB0FDB073B436B60A61B7368A5
:10F06000002B0FDBF168B3688B60002B00D0D960F8
:10F070003368216859186B683160DB0FDB070B437D
:10F0800031006B60019800F011F8F7BD064A0300EB
:10F090001220934203D800201B09012B00D870478F
:10F0A00001305B08F9E7C046FFFF3F0070B505007F
:10F0B00008680C00FFF7EAFF020102300001183275
:10F0C0004359AA18002B05D01968002902D02068DE
:10F0D000814206D39460E260A360002B00D0DC6024
:10F0E00070BD1A009B68EDE70B00D0B50F24802699
:10F0F00008278A180F33C168A343A243D41A3606DF
:10F100000919103CC1600361083A9C60D919344365
:10F110001F605E604F60426117605460FFF7C6FF7A
:10F12000D0BDF8B507000D0016000021982204009C
:10F130001837C1605200380000F066F922003932F9
:10F14000FF323B001033BB60FF611F009A42F8D1D1
:10F15000320029002000FFF7C7FFF8BD10B50349B2
:10F16000034A0448521AFFF7DCFF10BD0048FF1F96
:10F1700000880020301701204369F7B59C46002322
:10F180001F001E0004690193A44509D8C2680A60E3
:10F19000019A4F6008328E600020CA600B61FEBD8C
:10F1A00062682568002A04DA019A521901926419EA
:10F1B000EAE701375B19AE42F9D22E00F7E700000B
:10F1C0007FB501A9FFF7D8FF044B049A19688A425A
:10F1D00000DD1A60186807B000BDC046B4160120F3
:10F1E00030B5032A0CD903000B439B071CD10368DD
:10F1F0000C68A34218D1043A04300431032AF6D82B
:10F20000551E002A0ED002780C78A2420ED101358C
:10F210000123013904E0C25C0133CC5CA24205D178
:10F22000AB42F8D1002030BD551EECE7101BFAE7C9
:10F23000F0B5C64600B50F2A42D90D0005430C00B3
:10F240000300AD0741D11500103D2D09A8462D0141
:10F25000AC46844400E03300266865681E60E668BA
:10F26000A768DE601E005D609F6010341036634545
:10F27000F1D145460F240C2301352D0149191440C5
:10F280004519134224D00023CE58EE500433E61A19
:10F29000032EF9D80323043CA4080134A4001A4027
:10F2A0002D190919561E002A07D0002300E023005B
:10F2B000CA5C5C1CEA549E42F9D104BC9046F0BD85
:10F2C0000500561E002AF0D1F7E7561E0500ECE7B0
:10F2D0002200F6E730B5002A39D003000B439B0724
:10F2E0001FD1032A1DD903680C68A34231D1043A07
:10F2F000002A2CD01A4C1B4D1C199C432C420CD0BC
:10F3000025E003680C68A34223D1043A002A1ED0EA
:10F31000134C1C199C432C4219D104300431032A8C
:10F32000EFD804780D78013AA5420ED1002A0ED00C
:10F33000002C0CD0012304E09A4208D00133002CA9
:10F3400005D0C45CCD5CAC42F6D0601B00E0002070
:10F3500030BD04780D78013AA542E9D0601BF7E78B
:10F36000FFFEFEFE80808080F0B50C0004430300A9
:10F37000A40701D1032A15D80700002A11D00D785F
:10F38000541E7B1C3D70002D20D00125BA1806E0CC
:10F390004E5D013C7E55131B0135002E16D0002C0E
:10F3A000F6D1F0BD0E4CA44606E00433043A043115
:10F3B0001F003560032AE0D967460D68094C1E001E
:10F3C0002C19AC433C42F0D01F00D8E71919002299
:10F3D000002CE6D01A7001339942FBD1E1E7C04618
:10F3E00080808080FFFEFEFE01B40248844601BC9E
:10F3F000604700BF6902000001B40248844601BCB6
:10F40000604700BF6902000001B40248844601BCA5
:10F41000604700BF1703000000000000000000006C
:10F42000808E0020228D0020228D0020208D002043
:10F43000288D0020288D0020408E0020208D002067
:10F44000288D0020408E0020288D0020208D002057
:10F450003C8E00203C8E00203C8E00204C8E0020F4
:10F4600057445420696E69742045727221005744D4
:10F4700054207365742074696D656F7574204572CE
:10F480007221007072696D006D69736300696D743B
:10F4900062006F747000706B65790014101C20306E
:10F4A000408000000000000000000000000000009C
:10F4B000000000000000000000000000000000004C
:10F4C000000000000000000000000000000000003C
:10F4D000000000000000000000000000000000002C
:10F4E000006A756D7074620043534B594449464637
:10F4F000001112000000C1C081C1400101C3C0035E
:10F50000800241C201C6C006800741C70005C1C5CF
:10F5100081C4400401CCC00C800D41CD000FC1CF8F
:10F5200081CE400E000AC1CA81CB400B01C9C0097F
:10F53000800841C801D8C018801941D9001BC1DB1F
:10F5400081DA401A001EC1DE81DF401F01DDC01DCF
:10F55000801C41DC0014C1D481D5401501D7C017EF
:10F56000801641D601D2C012801341D30011C1D1FF
:10F5700081D0401001F0C030803141F10033C1F33F
:10F5800081F240320036C1F681F7403701F5C035CF
:10F59000803441F4003CC1FC81FD403D01FFC03F8F
:10F5A000803E41FE01FAC03A803B41FB0039C1F97F
:10F5B00081F840380028C1E881E9402901EBC02BDF
:10F5C000802A41EA01EEC02E802F41EF002DC1EDCF
:10F5D00081EC402C01E4C024802541E50027C1E7EF
:10F5E00081E640260022C1E281E3402301E1C021FF
:10F5F000802041E001A0C060806141A10063C1A3FF
:10F6000081A240620066C1A681A7406701A5C065CE
:10F61000806441A4006CC1AC81AD406D01AFC06F8E
:10F62000806E41AE01AAC06A806B41AB0069C1A97E
:10F6300081A840680078C1B881B9407901BBC07B1E
:10F64000807A41BA01BEC07E807F41BF007DC1BDCE
:10F6500081BC407C01B4C074807541B50077C1B7EE
:10F6600081B640760072C1B281B3407301B1C071FE
:10F67000807041B00050C190819140510193C053BE
:10F68000805241920196C056805741970055C195CE
:10F6900081944054019CC05C805D419D005FC19F8E
:10F6A000819E405E005AC19A819B405B0199C0597E
:10F6B000805841980188C04880494189004BC18BDE
:10F6C000818A404A004EC18E818F404F018DC04DCE
:10F6D000804C418C0044C184818540450187C047EE
:10F6E000804641860182C042804341830041C181FE
:10F6F000818040405B48617264206661756C742053
:10F7000068616E646C65725D0A00523020203D2095
:10F71000307825780A00523120203D203078257835
:10F720000A00523220203D20307825780A005233DA
:10F7300020203D20307825780A00523420203D20BA
:10F74000307825780A00523520203D203078257801
:10F750000A00523620203D20307825780A005237A2
:10F7600020203D20307825780A00523820203D2086
:10F77000307825780A00523920203D2030782578CD
:10F780000A00523130203D20307825780A0052316D
:10F7900031203D20307825780A00523132203D203A
:10F7A000307825780A00535020203D203078257885
:10F7B0000A004C5220203D20307825780A00504322
:10F7C00020203D20307825780A00505352203D20DB
:10F7D000307825780A0048465352203D203078255D
:10F7E000780A000001000000002000400A0000002C
:10F7F000FDCD0020286E756C6C2900000000000013
:10F800000008FF1F08E0002000000000F4E20020D4
:10F810005CE30020C4E300200000000000000000C2
:10F8200000000000000000000000000000000000D8
:10F8300000000000000000000000000000000000C8
:10F8400000000000000000000000000000000000B8
:10F8500000000000000000000000000000000000A8
:10F860000000000000000000000000000000000098
:10F870000000000000000000000000000000000088
:10F880000000000000000000000000000000000078
:10F890000000000000000000000000000000000068
:10F8A0000000000000000000000000000000000058
:10F8B00001000000000000000E33CDAB34126DE6F5
:10F8C000ECDE05000B00000000000000000000005E
:10F8D0000000000000000000000000000000000028
:10F8E0000000000000000000000000000000000018
:10F8F0000000000000000000000000000000000008
:10F9000000000000000000000000000000000000F7
:00FC3000D4
:040000051100A00046
:00000001FF
